{
	"3_Ballot.sol": {
		"Notary": {
			"abi": [
				{
					"anonymous": false,
					"inputs": [
						{
							"indexed": false,
							"internalType": "uint256",
							"name": "hash",
							"type": "uint256"
						},
						{
							"indexed": false,
							"internalType": "uint256",
							"name": "cid",
							"type": "uint256"
						},
						{
							"indexed": false,
							"internalType": "uint32",
							"name": "genesisFunding",
							"type": "uint32"
						}
					],
					"name": "ImageStored",
					"type": "event"
				},
				{
					"inputs": [
						{
							"internalType": "uint256",
							"name": "_jpegHash",
							"type": "uint256"
						}
					],
					"name": "retrieve_image",
					"outputs": [
						{
							"internalType": "uint256",
							"name": "",
							"type": "uint256"
						}
					],
					"stateMutability": "view",
					"type": "function"
				},
				{
					"inputs": [
						{
							"internalType": "uint256",
							"name": "_jpegHash",
							"type": "uint256"
						},
						{
							"internalType": "uint256",
							"name": "_cid",
							"type": "uint256"
						},
						{
							"internalType": "uint32",
							"name": "_genesisFunding",
							"type": "uint32"
						}
					],
					"name": "store_image",
					"outputs": [],
					"stateMutability": "payable",
					"type": "function"
				}
			],
			"devdoc": {
				"kind": "dev",
				"methods": {},
				"version": 1
			},
			"evm": {
				"assembly": "    /* \"3_Ballot.sol\":25:844  contract Notary {... */\n  mstore(0x40, 0x80)\n  callvalue\n  dup1\n  iszero\n  tag_1\n  jumpi\n  revert(0x00, 0x00)\ntag_1:\n  pop\n  dataSize(sub_0)\n  dup1\n  dataOffset(sub_0)\n  0x00\n  codecopy\n  0x00\n  return\nstop\n\nsub_0: assembly {\n        /* \"3_Ballot.sol\":25:844  contract Notary {... */\n      mstore(0x40, 0x80)\n      jumpi(tag_1, lt(calldatasize, 0x04))\n      shr(0xe0, calldataload(0x00))\n      dup1\n      0x5f6eb9c7\n      eq\n      tag_2\n      jumpi\n      dup1\n      0x60d37bbf\n      eq\n      tag_3\n      jumpi\n    tag_1:\n      revert(0x00, 0x00)\n        /* \"3_Ballot.sol\":246:631  function store_image(uint _jpegHash, uint _cid, uint32 _genesisFunding) external payable {... */\n    tag_2:\n      tag_4\n      0x04\n      dup1\n      calldatasize\n      sub\n      dup2\n      add\n      swap1\n      tag_5\n      swap2\n      swap1\n      tag_6\n      jump\t// in\n    tag_5:\n      tag_7\n      jump\t// in\n    tag_4:\n      stop\n        /* \"3_Ballot.sol\":636:842  function retrieve_image(uint _jpegHash) external view returns (uint) {... */\n    tag_3:\n      callvalue\n      dup1\n      iszero\n      tag_8\n      jumpi\n      revert(0x00, 0x00)\n    tag_8:\n      pop\n      tag_9\n      0x04\n      dup1\n      calldatasize\n      sub\n      dup2\n      add\n      swap1\n      tag_10\n      swap2\n      swap1\n      tag_11\n      jump\t// in\n    tag_10:\n      tag_12\n      jump\t// in\n    tag_9:\n      mload(0x40)\n      tag_13\n      swap2\n      swap1\n      tag_14\n      jump\t// in\n    tag_13:\n      mload(0x40)\n      dup1\n      swap2\n      sub\n      swap1\n      return\n        /* \"3_Ballot.sol\":246:631  function store_image(uint _jpegHash, uint _cid, uint32 _genesisFunding) external payable {... */\n    tag_7:\n        /* \"3_Ballot.sol\":366:381  _genesisFunding */\n      dup1\n        /* \"3_Ballot.sol\":353:381  msg.value == _genesisFunding */\n      0xffffffff\n      and\n        /* \"3_Ballot.sol\":353:362  msg.value */\n      callvalue\n        /* \"3_Ballot.sol\":353:381  msg.value == _genesisFunding */\n      eq\n        /* \"3_Ballot.sol\":345:444  require(msg.value == _genesisFunding, \"Transaction value does not match provided genesis funding.\") */\n      tag_16\n      jumpi\n      mload(0x40)\n      0x08c379a000000000000000000000000000000000000000000000000000000000\n      dup2\n      mstore\n      0x04\n      add\n      tag_17\n      swap1\n      tag_18\n      jump\t// in\n    tag_17:\n      mload(0x40)\n      dup1\n      swap2\n      sub\n      swap1\n      revert\n    tag_16:\n        /* \"3_Ballot.sol\":490:491  0 */\n      0x00\n        /* \"3_Ballot.sol\":462:471  retrieval */\n      0x00\n        /* \"3_Ballot.sol\":462:482  retrieval[_jpegHash] */\n      0x00\n        /* \"3_Ballot.sol\":472:481  _jpegHash */\n      dup6\n        /* \"3_Ballot.sol\":462:482  retrieval[_jpegHash] */\n      dup2\n      mstore\n      0x20\n      add\n      swap1\n      dup2\n      mstore\n      0x20\n      add\n      0x00\n      keccak256\n        /* \"3_Ballot.sol\":462:486  retrieval[_jpegHash].cid */\n      0x00\n      add\n      sload\n        /* \"3_Ballot.sol\":462:491  retrieval[_jpegHash].cid == 0 */\n      eq\n        /* \"3_Ballot.sol\":454:520  require(retrieval[_jpegHash].cid == 0, \"Image already notarized.\") */\n      tag_19\n      jumpi\n      mload(0x40)\n      0x08c379a000000000000000000000000000000000000000000000000000000000\n      dup2\n      mstore\n      0x04\n      add\n      tag_20\n      swap1\n      tag_21\n      jump\t// in\n    tag_20:\n      mload(0x40)\n      dup1\n      swap2\n      sub\n      swap1\n      revert\n    tag_19:\n        /* \"3_Ballot.sol\":557:561  _cid */\n      dup2\n        /* \"3_Ballot.sol\":530:539  retrieval */\n      0x00\n        /* \"3_Ballot.sol\":530:550  retrieval[_jpegHash] */\n      0x00\n        /* \"3_Ballot.sol\":540:549  _jpegHash */\n      dup6\n        /* \"3_Ballot.sol\":530:550  retrieval[_jpegHash] */\n      dup2\n      mstore\n      0x20\n      add\n      swap1\n      dup2\n      mstore\n      0x20\n      add\n      0x00\n      keccak256\n        /* \"3_Ballot.sol\":530:554  retrieval[_jpegHash].cid */\n      0x00\n      add\n        /* \"3_Ballot.sol\":530:561  retrieval[_jpegHash].cid = _cid */\n      dup2\n      swap1\n      sstore\n      pop\n        /* \"3_Ballot.sol\":609:624  _genesisFunding */\n      dup1\n        /* \"3_Ballot.sol\":571:580  retrieval */\n      0x00\n        /* \"3_Ballot.sol\":571:591  retrieval[_jpegHash] */\n      0x00\n        /* \"3_Ballot.sol\":581:590  _jpegHash */\n      dup6\n        /* \"3_Ballot.sol\":571:591  retrieval[_jpegHash] */\n      dup2\n      mstore\n      0x20\n      add\n      swap1\n      dup2\n      mstore\n      0x20\n      add\n      0x00\n      keccak256\n        /* \"3_Ballot.sol\":571:606  retrieval[_jpegHash].genesisFunding */\n      0x01\n      add\n      0x00\n        /* \"3_Ballot.sol\":571:624  retrieval[_jpegHash].genesisFunding = _genesisFunding */\n      0x0100\n      exp\n      dup2\n      sload\n      dup2\n      0xffffffff\n      mul\n      not\n      and\n      swap1\n      dup4\n      0xffffffff\n      and\n      mul\n      or\n      swap1\n      sstore\n      pop\n        /* \"3_Ballot.sol\":246:631  function store_image(uint _jpegHash, uint _cid, uint32 _genesisFunding) external payable {... */\n      pop\n      pop\n      pop\n      jump\t// out\n        /* \"3_Ballot.sol\":636:842  function retrieve_image(uint _jpegHash) external view returns (uint) {... */\n    tag_12:\n        /* \"3_Ballot.sol\":699:703  uint */\n      0x00\n        /* \"3_Ballot.sol\":751:752  0 */\n      0x00\n        /* \"3_Ballot.sol\":723:732  retrieval */\n      0x00\n        /* \"3_Ballot.sol\":723:743  retrieval[_jpegHash] */\n      0x00\n        /* \"3_Ballot.sol\":733:742  _jpegHash */\n      dup5\n        /* \"3_Ballot.sol\":723:743  retrieval[_jpegHash] */\n      dup2\n      mstore\n      0x20\n      add\n      swap1\n      dup2\n      mstore\n      0x20\n      add\n      0x00\n      keccak256\n        /* \"3_Ballot.sol\":723:747  retrieval[_jpegHash].cid */\n      0x00\n      add\n      sload\n        /* \"3_Ballot.sol\":723:752  retrieval[_jpegHash].cid != 0 */\n      sub\n        /* \"3_Ballot.sol\":715:794  require(retrieval[_jpegHash].cid != 0, \"Provided hash not recorded in notary.\") */\n      tag_23\n      jumpi\n      mload(0x40)\n      0x08c379a000000000000000000000000000000000000000000000000000000000\n      dup2\n      mstore\n      0x04\n      add\n      tag_24\n      swap1\n      tag_25\n      jump\t// in\n    tag_24:\n      mload(0x40)\n      dup1\n      swap2\n      sub\n      swap1\n      revert\n    tag_23:\n        /* \"3_Ballot.sol\":811:820  retrieval */\n      0x00\n        /* \"3_Ballot.sol\":811:831  retrieval[_jpegHash] */\n      0x00\n        /* \"3_Ballot.sol\":821:830  _jpegHash */\n      dup4\n        /* \"3_Ballot.sol\":811:831  retrieval[_jpegHash] */\n      dup2\n      mstore\n      0x20\n      add\n      swap1\n      dup2\n      mstore\n      0x20\n      add\n      0x00\n      keccak256\n        /* \"3_Ballot.sol\":811:835  retrieval[_jpegHash].cid */\n      0x00\n      add\n      sload\n        /* \"3_Ballot.sol\":804:835  return retrieval[_jpegHash].cid */\n      swap1\n      pop\n        /* \"3_Ballot.sol\":636:842  function retrieve_image(uint _jpegHash) external view returns (uint) {... */\n      swap2\n      swap1\n      pop\n      jump\t// out\n        /* \"#utility.yul\":88:205   */\n    tag_27:\n        /* \"#utility.yul\":197:198   */\n      0x00\n        /* \"#utility.yul\":194:195   */\n      0x00\n        /* \"#utility.yul\":187:199   */\n      revert\n        /* \"#utility.yul\":334:411   */\n    tag_29:\n        /* \"#utility.yul\":371:378   */\n      0x00\n        /* \"#utility.yul\":400:405   */\n      dup2\n        /* \"#utility.yul\":389:405   */\n      swap1\n      pop\n        /* \"#utility.yul\":334:411   */\n      swap2\n      swap1\n      pop\n      jump\t// out\n        /* \"#utility.yul\":417:539   */\n    tag_30:\n        /* \"#utility.yul\":490:514   */\n      tag_49\n        /* \"#utility.yul\":508:513   */\n      dup2\n        /* \"#utility.yul\":490:514   */\n      tag_29\n      jump\t// in\n    tag_49:\n        /* \"#utility.yul\":483:488   */\n      dup2\n        /* \"#utility.yul\":480:515   */\n      eq\n        /* \"#utility.yul\":470:533   */\n      tag_50\n      jumpi\n        /* \"#utility.yul\":529:530   */\n      0x00\n        /* \"#utility.yul\":526:527   */\n      0x00\n        /* \"#utility.yul\":519:531   */\n      revert\n        /* \"#utility.yul\":470:533   */\n    tag_50:\n        /* \"#utility.yul\":417:539   */\n      pop\n      jump\t// out\n        /* \"#utility.yul\":545:684   */\n    tag_31:\n        /* \"#utility.yul\":591:596   */\n      0x00\n        /* \"#utility.yul\":629:635   */\n      dup2\n        /* \"#utility.yul\":616:636   */\n      calldataload\n        /* \"#utility.yul\":607:636   */\n      swap1\n      pop\n        /* \"#utility.yul\":645:678   */\n      tag_52\n        /* \"#utility.yul\":672:677   */\n      dup2\n        /* \"#utility.yul\":645:678   */\n      tag_30\n      jump\t// in\n    tag_52:\n        /* \"#utility.yul\":545:684   */\n      swap3\n      swap2\n      pop\n      pop\n      jump\t// out\n        /* \"#utility.yul\":690:783   */\n    tag_32:\n        /* \"#utility.yul\":726:733   */\n      0x00\n        /* \"#utility.yul\":766:776   */\n      0xffffffff\n        /* \"#utility.yul\":759:764   */\n      dup3\n        /* \"#utility.yul\":755:777   */\n      and\n        /* \"#utility.yul\":744:777   */\n      swap1\n      pop\n        /* \"#utility.yul\":690:783   */\n      swap2\n      swap1\n      pop\n      jump\t// out\n        /* \"#utility.yul\":789:909   */\n    tag_33:\n        /* \"#utility.yul\":861:884   */\n      tag_55\n        /* \"#utility.yul\":878:883   */\n      dup2\n        /* \"#utility.yul\":861:884   */\n      tag_32\n      jump\t// in\n    tag_55:\n        /* \"#utility.yul\":854:859   */\n      dup2\n        /* \"#utility.yul\":851:885   */\n      eq\n        /* \"#utility.yul\":841:903   */\n      tag_56\n      jumpi\n        /* \"#utility.yul\":899:900   */\n      0x00\n        /* \"#utility.yul\":896:897   */\n      0x00\n        /* \"#utility.yul\":889:901   */\n      revert\n        /* \"#utility.yul\":841:903   */\n    tag_56:\n        /* \"#utility.yul\":789:909   */\n      pop\n      jump\t// out\n        /* \"#utility.yul\":915:1052   */\n    tag_34:\n        /* \"#utility.yul\":960:965   */\n      0x00\n        /* \"#utility.yul\":998:1004   */\n      dup2\n        /* \"#utility.yul\":985:1005   */\n      calldataload\n        /* \"#utility.yul\":976:1005   */\n      swap1\n      pop\n        /* \"#utility.yul\":1014:1046   */\n      tag_58\n        /* \"#utility.yul\":1040:1045   */\n      dup2\n        /* \"#utility.yul\":1014:1046   */\n      tag_33\n      jump\t// in\n    tag_58:\n        /* \"#utility.yul\":915:1052   */\n      swap3\n      swap2\n      pop\n      pop\n      jump\t// out\n        /* \"#utility.yul\":1058:1675   */\n    tag_6:\n        /* \"#utility.yul\":1134:1140   */\n      0x00\n        /* \"#utility.yul\":1142:1148   */\n      0x00\n        /* \"#utility.yul\":1150:1156   */\n      0x00\n        /* \"#utility.yul\":1199:1201   */\n      0x60\n        /* \"#utility.yul\":1187:1196   */\n      dup5\n        /* \"#utility.yul\":1178:1185   */\n      dup7\n        /* \"#utility.yul\":1174:1197   */\n      sub\n        /* \"#utility.yul\":1170:1202   */\n      slt\n        /* \"#utility.yul\":1167:1286   */\n      iszero\n      tag_60\n      jumpi\n        /* \"#utility.yul\":1205:1284   */\n      tag_61\n      tag_27\n      jump\t// in\n    tag_61:\n        /* \"#utility.yul\":1167:1286   */\n    tag_60:\n        /* \"#utility.yul\":1325:1326   */\n      0x00\n        /* \"#utility.yul\":1350:1403   */\n      tag_62\n        /* \"#utility.yul\":1395:1402   */\n      dup7\n        /* \"#utility.yul\":1386:1392   */\n      dup3\n        /* \"#utility.yul\":1375:1384   */\n      dup8\n        /* \"#utility.yul\":1371:1393   */\n      add\n        /* \"#utility.yul\":1350:1403   */\n      tag_31\n      jump\t// in\n    tag_62:\n        /* \"#utility.yul\":1340:1403   */\n      swap4\n      pop\n        /* \"#utility.yul\":1296:1413   */\n      pop\n        /* \"#utility.yul\":1452:1454   */\n      0x20\n        /* \"#utility.yul\":1478:1531   */\n      tag_63\n        /* \"#utility.yul\":1523:1530   */\n      dup7\n        /* \"#utility.yul\":1514:1520   */\n      dup3\n        /* \"#utility.yul\":1503:1512   */\n      dup8\n        /* \"#utility.yul\":1499:1521   */\n      add\n        /* \"#utility.yul\":1478:1531   */\n      tag_31\n      jump\t// in\n    tag_63:\n        /* \"#utility.yul\":1468:1531   */\n      swap3\n      pop\n        /* \"#utility.yul\":1423:1541   */\n      pop\n        /* \"#utility.yul\":1580:1582   */\n      0x40\n        /* \"#utility.yul\":1606:1658   */\n      tag_64\n        /* \"#utility.yul\":1650:1657   */\n      dup7\n        /* \"#utility.yul\":1641:1647   */\n      dup3\n        /* \"#utility.yul\":1630:1639   */\n      dup8\n        /* \"#utility.yul\":1626:1648   */\n      add\n        /* \"#utility.yul\":1606:1658   */\n      tag_34\n      jump\t// in\n    tag_64:\n        /* \"#utility.yul\":1596:1658   */\n      swap2\n      pop\n        /* \"#utility.yul\":1551:1668   */\n      pop\n        /* \"#utility.yul\":1058:1675   */\n      swap3\n      pop\n      swap3\n      pop\n      swap3\n      jump\t// out\n        /* \"#utility.yul\":1681:2010   */\n    tag_11:\n        /* \"#utility.yul\":1740:1746   */\n      0x00\n        /* \"#utility.yul\":1789:1791   */\n      0x20\n        /* \"#utility.yul\":1777:1786   */\n      dup3\n        /* \"#utility.yul\":1768:1775   */\n      dup5\n        /* \"#utility.yul\":1764:1787   */\n      sub\n        /* \"#utility.yul\":1760:1792   */\n      slt\n        /* \"#utility.yul\":1757:1876   */\n      iszero\n      tag_66\n      jumpi\n        /* \"#utility.yul\":1795:1874   */\n      tag_67\n      tag_27\n      jump\t// in\n    tag_67:\n        /* \"#utility.yul\":1757:1876   */\n    tag_66:\n        /* \"#utility.yul\":1915:1916   */\n      0x00\n        /* \"#utility.yul\":1940:1993   */\n      tag_68\n        /* \"#utility.yul\":1985:1992   */\n      dup5\n        /* \"#utility.yul\":1976:1982   */\n      dup3\n        /* \"#utility.yul\":1965:1974   */\n      dup6\n        /* \"#utility.yul\":1961:1983   */\n      add\n        /* \"#utility.yul\":1940:1993   */\n      tag_31\n      jump\t// in\n    tag_68:\n        /* \"#utility.yul\":1930:1993   */\n      swap2\n      pop\n        /* \"#utility.yul\":1886:2003   */\n      pop\n        /* \"#utility.yul\":1681:2010   */\n      swap3\n      swap2\n      pop\n      pop\n      jump\t// out\n        /* \"#utility.yul\":2016:2134   */\n    tag_35:\n        /* \"#utility.yul\":2103:2127   */\n      tag_70\n        /* \"#utility.yul\":2121:2126   */\n      dup2\n        /* \"#utility.yul\":2103:2127   */\n      tag_29\n      jump\t// in\n    tag_70:\n        /* \"#utility.yul\":2098:2101   */\n      dup3\n        /* \"#utility.yul\":2091:2128   */\n      mstore\n        /* \"#utility.yul\":2016:2134   */\n      pop\n      pop\n      jump\t// out\n        /* \"#utility.yul\":2140:2362   */\n    tag_14:\n        /* \"#utility.yul\":2233:2237   */\n      0x00\n        /* \"#utility.yul\":2271:2273   */\n      0x20\n        /* \"#utility.yul\":2260:2269   */\n      dup3\n        /* \"#utility.yul\":2256:2274   */\n      add\n        /* \"#utility.yul\":2248:2274   */\n      swap1\n      pop\n        /* \"#utility.yul\":2284:2355   */\n      tag_72\n        /* \"#utility.yul\":2352:2353   */\n      0x00\n        /* \"#utility.yul\":2341:2350   */\n      dup4\n        /* \"#utility.yul\":2337:2354   */\n      add\n        /* \"#utility.yul\":2328:2334   */\n      dup5\n        /* \"#utility.yul\":2284:2355   */\n      tag_35\n      jump\t// in\n    tag_72:\n        /* \"#utility.yul\":2140:2362   */\n      swap3\n      swap2\n      pop\n      pop\n      jump\t// out\n        /* \"#utility.yul\":2368:2537   */\n    tag_36:\n        /* \"#utility.yul\":2452:2463   */\n      0x00\n        /* \"#utility.yul\":2486:2492   */\n      dup3\n        /* \"#utility.yul\":2481:2484   */\n      dup3\n        /* \"#utility.yul\":2474:2493   */\n      mstore\n        /* \"#utility.yul\":2526:2530   */\n      0x20\n        /* \"#utility.yul\":2521:2524   */\n      dup3\n        /* \"#utility.yul\":2517:2531   */\n      add\n        /* \"#utility.yul\":2502:2531   */\n      swap1\n      pop\n        /* \"#utility.yul\":2368:2537   */\n      swap3\n      swap2\n      pop\n      pop\n      jump\t// out\n        /* \"#utility.yul\":2543:2788   */\n    tag_37:\n        /* \"#utility.yul\":2683:2717   */\n      0x5472616e73616374696f6e2076616c756520646f6573206e6f74206d61746368\n        /* \"#utility.yul\":2679:2680   */\n      0x00\n        /* \"#utility.yul\":2671:2677   */\n      dup3\n        /* \"#utility.yul\":2667:2681   */\n      add\n        /* \"#utility.yul\":2660:2718   */\n      mstore\n        /* \"#utility.yul\":2752:2780   */\n      0x2070726f76696465642067656e657369732066756e64696e672e000000000000\n        /* \"#utility.yul\":2747:2749   */\n      0x20\n        /* \"#utility.yul\":2739:2745   */\n      dup3\n        /* \"#utility.yul\":2735:2750   */\n      add\n        /* \"#utility.yul\":2728:2781   */\n      mstore\n        /* \"#utility.yul\":2543:2788   */\n      pop\n      jump\t// out\n        /* \"#utility.yul\":2794:3160   */\n    tag_38:\n        /* \"#utility.yul\":2936:2939   */\n      0x00\n        /* \"#utility.yul\":2957:3024   */\n      tag_76\n        /* \"#utility.yul\":3021:3023   */\n      0x3a\n        /* \"#utility.yul\":3016:3019   */\n      dup4\n        /* \"#utility.yul\":2957:3024   */\n      tag_36\n      jump\t// in\n    tag_76:\n        /* \"#utility.yul\":2950:3024   */\n      swap2\n      pop\n        /* \"#utility.yul\":3033:3126   */\n      tag_77\n        /* \"#utility.yul\":3122:3125   */\n      dup3\n        /* \"#utility.yul\":3033:3126   */\n      tag_37\n      jump\t// in\n    tag_77:\n        /* \"#utility.yul\":3151:3153   */\n      0x40\n        /* \"#utility.yul\":3146:3149   */\n      dup3\n        /* \"#utility.yul\":3142:3154   */\n      add\n        /* \"#utility.yul\":3135:3154   */\n      swap1\n      pop\n        /* \"#utility.yul\":2794:3160   */\n      swap2\n      swap1\n      pop\n      jump\t// out\n        /* \"#utility.yul\":3166:3585   */\n    tag_18:\n        /* \"#utility.yul\":3332:3336   */\n      0x00\n        /* \"#utility.yul\":3370:3372   */\n      0x20\n        /* \"#utility.yul\":3359:3368   */\n      dup3\n        /* \"#utility.yul\":3355:3373   */\n      add\n        /* \"#utility.yul\":3347:3373   */\n      swap1\n      pop\n        /* \"#utility.yul\":3419:3428   */\n      dup2\n        /* \"#utility.yul\":3413:3417   */\n      dup2\n        /* \"#utility.yul\":3409:3429   */\n      sub\n        /* \"#utility.yul\":3405:3406   */\n      0x00\n        /* \"#utility.yul\":3394:3403   */\n      dup4\n        /* \"#utility.yul\":3390:3407   */\n      add\n        /* \"#utility.yul\":3383:3430   */\n      mstore\n        /* \"#utility.yul\":3447:3578   */\n      tag_79\n        /* \"#utility.yul\":3573:3577   */\n      dup2\n        /* \"#utility.yul\":3447:3578   */\n      tag_38\n      jump\t// in\n    tag_79:\n        /* \"#utility.yul\":3439:3578   */\n      swap1\n      pop\n        /* \"#utility.yul\":3166:3585   */\n      swap2\n      swap1\n      pop\n      jump\t// out\n        /* \"#utility.yul\":3591:3765   */\n    tag_39:\n        /* \"#utility.yul\":3731:3757   */\n      0x496d61676520616c7265616479206e6f746172697a65642e0000000000000000\n        /* \"#utility.yul\":3727:3728   */\n      0x00\n        /* \"#utility.yul\":3719:3725   */\n      dup3\n        /* \"#utility.yul\":3715:3729   */\n      add\n        /* \"#utility.yul\":3708:3758   */\n      mstore\n        /* \"#utility.yul\":3591:3765   */\n      pop\n      jump\t// out\n        /* \"#utility.yul\":3771:4137   */\n    tag_40:\n        /* \"#utility.yul\":3913:3916   */\n      0x00\n        /* \"#utility.yul\":3934:4001   */\n      tag_82\n        /* \"#utility.yul\":3998:4000   */\n      0x18\n        /* \"#utility.yul\":3993:3996   */\n      dup4\n        /* \"#utility.yul\":3934:4001   */\n      tag_36\n      jump\t// in\n    tag_82:\n        /* \"#utility.yul\":3927:4001   */\n      swap2\n      pop\n        /* \"#utility.yul\":4010:4103   */\n      tag_83\n        /* \"#utility.yul\":4099:4102   */\n      dup3\n        /* \"#utility.yul\":4010:4103   */\n      tag_39\n      jump\t// in\n    tag_83:\n        /* \"#utility.yul\":4128:4130   */\n      0x20\n        /* \"#utility.yul\":4123:4126   */\n      dup3\n        /* \"#utility.yul\":4119:4131   */\n      add\n        /* \"#utility.yul\":4112:4131   */\n      swap1\n      pop\n        /* \"#utility.yul\":3771:4137   */\n      swap2\n      swap1\n      pop\n      jump\t// out\n        /* \"#utility.yul\":4143:4562   */\n    tag_21:\n        /* \"#utility.yul\":4309:4313   */\n      0x00\n        /* \"#utility.yul\":4347:4349   */\n      0x20\n        /* \"#utility.yul\":4336:4345   */\n      dup3\n        /* \"#utility.yul\":4332:4350   */\n      add\n        /* \"#utility.yul\":4324:4350   */\n      swap1\n      pop\n        /* \"#utility.yul\":4396:4405   */\n      dup2\n        /* \"#utility.yul\":4390:4394   */\n      dup2\n        /* \"#utility.yul\":4386:4406   */\n      sub\n        /* \"#utility.yul\":4382:4383   */\n      0x00\n        /* \"#utility.yul\":4371:4380   */\n      dup4\n        /* \"#utility.yul\":4367:4384   */\n      add\n        /* \"#utility.yul\":4360:4407   */\n      mstore\n        /* \"#utility.yul\":4424:4555   */\n      tag_85\n        /* \"#utility.yul\":4550:4554   */\n      dup2\n        /* \"#utility.yul\":4424:4555   */\n      tag_40\n      jump\t// in\n    tag_85:\n        /* \"#utility.yul\":4416:4555   */\n      swap1\n      pop\n        /* \"#utility.yul\":4143:4562   */\n      swap2\n      swap1\n      pop\n      jump\t// out\n        /* \"#utility.yul\":4568:4792   */\n    tag_41:\n        /* \"#utility.yul\":4708:4742   */\n      0x50726f76696465642068617368206e6f74207265636f7264656420696e206e6f\n        /* \"#utility.yul\":4704:4705   */\n      0x00\n        /* \"#utility.yul\":4696:4702   */\n      dup3\n        /* \"#utility.yul\":4692:4706   */\n      add\n        /* \"#utility.yul\":4685:4743   */\n      mstore\n        /* \"#utility.yul\":4777:4784   */\n      0x746172792e000000000000000000000000000000000000000000000000000000\n        /* \"#utility.yul\":4772:4774   */\n      0x20\n        /* \"#utility.yul\":4764:4770   */\n      dup3\n        /* \"#utility.yul\":4760:4775   */\n      add\n        /* \"#utility.yul\":4753:4785   */\n      mstore\n        /* \"#utility.yul\":4568:4792   */\n      pop\n      jump\t// out\n        /* \"#utility.yul\":4798:5164   */\n    tag_42:\n        /* \"#utility.yul\":4940:4943   */\n      0x00\n        /* \"#utility.yul\":4961:5028   */\n      tag_88\n        /* \"#utility.yul\":5025:5027   */\n      0x25\n        /* \"#utility.yul\":5020:5023   */\n      dup4\n        /* \"#utility.yul\":4961:5028   */\n      tag_36\n      jump\t// in\n    tag_88:\n        /* \"#utility.yul\":4954:5028   */\n      swap2\n      pop\n        /* \"#utility.yul\":5037:5130   */\n      tag_89\n        /* \"#utility.yul\":5126:5129   */\n      dup3\n        /* \"#utility.yul\":5037:5130   */\n      tag_41\n      jump\t// in\n    tag_89:\n        /* \"#utility.yul\":5155:5157   */\n      0x40\n        /* \"#utility.yul\":5150:5153   */\n      dup3\n        /* \"#utility.yul\":5146:5158   */\n      add\n        /* \"#utility.yul\":5139:5158   */\n      swap1\n      pop\n        /* \"#utility.yul\":4798:5164   */\n      swap2\n      swap1\n      pop\n      jump\t// out\n        /* \"#utility.yul\":5170:5589   */\n    tag_25:\n        /* \"#utility.yul\":5336:5340   */\n      0x00\n        /* \"#utility.yul\":5374:5376   */\n      0x20\n        /* \"#utility.yul\":5363:5372   */\n      dup3\n        /* \"#utility.yul\":5359:5377   */\n      add\n        /* \"#utility.yul\":5351:5377   */\n      swap1\n      pop\n        /* \"#utility.yul\":5423:5432   */\n      dup2\n        /* \"#utility.yul\":5417:5421   */\n      dup2\n        /* \"#utility.yul\":5413:5433   */\n      sub\n        /* \"#utility.yul\":5409:5410   */\n      0x00\n        /* \"#utility.yul\":5398:5407   */\n      dup4\n        /* \"#utility.yul\":5394:5411   */\n      add\n        /* \"#utility.yul\":5387:5434   */\n      mstore\n        /* \"#utility.yul\":5451:5582   */\n      tag_91\n        /* \"#utility.yul\":5577:5581   */\n      dup2\n        /* \"#utility.yul\":5451:5582   */\n      tag_42\n      jump\t// in\n    tag_91:\n        /* \"#utility.yul\":5443:5582   */\n      swap1\n      pop\n        /* \"#utility.yul\":5170:5589   */\n      swap2\n      swap1\n      pop\n      jump\t// out\n\n    auxdata: 0xa2646970667358221220359a692d69c03317ecedd86431fb9ae46358a15642c7ceb93d19f4e5febb07f964736f6c634300081e0033\n}\n",
				"bytecode": {
					"linkReferences": {},
					"object": "6080604052348015600e575f5ffd5b506104b98061001c5f395ff3fe608060405260043610610028575f3560e01c80635f6eb9c71461002c57806360d37bbf14610048575b5f5ffd5b6100466004803603810190610041919061024c565b610084565b005b348015610053575f5ffd5b5061006e6004803603810190610069919061029c565b61016d565b60405161007b91906102d6565b60405180910390f35b8063ffffffff1634146100cc576040517f08c379a00000000000000000000000000000000000000000000000000000000081526004016100c39061036f565b60405180910390fd5b5f5f5f8581526020019081526020015f205f015414610120576040517f08c379a0000000000000000000000000000000000000000000000000000000008152600401610117906103d7565b60405180910390fd5b815f5f8581526020019081526020015f205f0181905550805f5f8581526020019081526020015f206001015f6101000a81548163ffffffff021916908363ffffffff160217905550505050565b5f5f5f5f8481526020019081526020015f205f0154036101c2576040517f08c379a00000000000000000000000000000000000000000000000000000000081526004016101b990610465565b60405180910390fd5b5f5f8381526020019081526020015f205f01549050919050565b5f5ffd5b5f819050919050565b6101f2816101e0565b81146101fc575f5ffd5b50565b5f8135905061020d816101e9565b92915050565b5f63ffffffff82169050919050565b61022b81610213565b8114610235575f5ffd5b50565b5f8135905061024681610222565b92915050565b5f5f5f60608486031215610263576102626101dc565b5b5f610270868287016101ff565b9350506020610281868287016101ff565b925050604061029286828701610238565b9150509250925092565b5f602082840312156102b1576102b06101dc565b5b5f6102be848285016101ff565b91505092915050565b6102d0816101e0565b82525050565b5f6020820190506102e95f8301846102c7565b92915050565b5f82825260208201905092915050565b7f5472616e73616374696f6e2076616c756520646f6573206e6f74206d617463685f8201527f2070726f76696465642067656e657369732066756e64696e672e000000000000602082015250565b5f610359603a836102ef565b9150610364826102ff565b604082019050919050565b5f6020820190508181035f8301526103868161034d565b9050919050565b7f496d61676520616c7265616479206e6f746172697a65642e00000000000000005f82015250565b5f6103c16018836102ef565b91506103cc8261038d565b602082019050919050565b5f6020820190508181035f8301526103ee816103b5565b9050919050565b7f50726f76696465642068617368206e6f74207265636f7264656420696e206e6f5f8201527f746172792e000000000000000000000000000000000000000000000000000000602082015250565b5f61044f6025836102ef565b915061045a826103f5565b604082019050919050565b5f6020820190508181035f83015261047c81610443565b905091905056fea2646970667358221220359a692d69c03317ecedd86431fb9ae46358a15642c7ceb93d19f4e5febb07f964736f6c634300081e0033",
					"opcodes": "PUSH1 0x80 PUSH1 0x40 MSTORE CALLVALUE DUP1 ISZERO PUSH1 0xE JUMPI PUSH0 PUSH0 REVERT JUMPDEST POP PUSH2 0x4B9 DUP1 PUSH2 0x1C PUSH0 CODECOPY PUSH0 RETURN INVALID PUSH1 0x80 PUSH1 0x40 MSTORE PUSH1 0x4 CALLDATASIZE LT PUSH2 0x28 JUMPI PUSH0 CALLDATALOAD PUSH1 0xE0 SHR DUP1 PUSH4 0x5F6EB9C7 EQ PUSH2 0x2C JUMPI DUP1 PUSH4 0x60D37BBF EQ PUSH2 0x48 JUMPI JUMPDEST PUSH0 PUSH0 REVERT JUMPDEST PUSH2 0x46 PUSH1 0x4 DUP1 CALLDATASIZE SUB DUP2 ADD SWAP1 PUSH2 0x41 SWAP2 SWAP1 PUSH2 0x24C JUMP JUMPDEST PUSH2 0x84 JUMP JUMPDEST STOP JUMPDEST CALLVALUE DUP1 ISZERO PUSH2 0x53 JUMPI PUSH0 PUSH0 REVERT JUMPDEST POP PUSH2 0x6E PUSH1 0x4 DUP1 CALLDATASIZE SUB DUP2 ADD SWAP1 PUSH2 0x69 SWAP2 SWAP1 PUSH2 0x29C JUMP JUMPDEST PUSH2 0x16D JUMP JUMPDEST PUSH1 0x40 MLOAD PUSH2 0x7B SWAP2 SWAP1 PUSH2 0x2D6 JUMP JUMPDEST PUSH1 0x40 MLOAD DUP1 SWAP2 SUB SWAP1 RETURN JUMPDEST DUP1 PUSH4 0xFFFFFFFF AND CALLVALUE EQ PUSH2 0xCC JUMPI PUSH1 0x40 MLOAD PUSH32 0x8C379A000000000000000000000000000000000000000000000000000000000 DUP2 MSTORE PUSH1 0x4 ADD PUSH2 0xC3 SWAP1 PUSH2 0x36F JUMP JUMPDEST PUSH1 0x40 MLOAD DUP1 SWAP2 SUB SWAP1 REVERT JUMPDEST PUSH0 PUSH0 PUSH0 DUP6 DUP2 MSTORE PUSH1 0x20 ADD SWAP1 DUP2 MSTORE PUSH1 0x20 ADD PUSH0 KECCAK256 PUSH0 ADD SLOAD EQ PUSH2 0x120 JUMPI PUSH1 0x40 MLOAD PUSH32 0x8C379A000000000000000000000000000000000000000000000000000000000 DUP2 MSTORE PUSH1 0x4 ADD PUSH2 0x117 SWAP1 PUSH2 0x3D7 JUMP JUMPDEST PUSH1 0x40 MLOAD DUP1 SWAP2 SUB SWAP1 REVERT JUMPDEST DUP2 PUSH0 PUSH0 DUP6 DUP2 MSTORE PUSH1 0x20 ADD SWAP1 DUP2 MSTORE PUSH1 0x20 ADD PUSH0 KECCAK256 PUSH0 ADD DUP2 SWAP1 SSTORE POP DUP1 PUSH0 PUSH0 DUP6 DUP2 MSTORE PUSH1 0x20 ADD SWAP1 DUP2 MSTORE PUSH1 0x20 ADD PUSH0 KECCAK256 PUSH1 0x1 ADD PUSH0 PUSH2 0x100 EXP DUP2 SLOAD DUP2 PUSH4 0xFFFFFFFF MUL NOT AND SWAP1 DUP4 PUSH4 0xFFFFFFFF AND MUL OR SWAP1 SSTORE POP POP POP POP JUMP JUMPDEST PUSH0 PUSH0 PUSH0 PUSH0 DUP5 DUP2 MSTORE PUSH1 0x20 ADD SWAP1 DUP2 MSTORE PUSH1 0x20 ADD PUSH0 KECCAK256 PUSH0 ADD SLOAD SUB PUSH2 0x1C2 JUMPI PUSH1 0x40 MLOAD PUSH32 0x8C379A000000000000000000000000000000000000000000000000000000000 DUP2 MSTORE PUSH1 0x4 ADD PUSH2 0x1B9 SWAP1 PUSH2 0x465 JUMP JUMPDEST PUSH1 0x40 MLOAD DUP1 SWAP2 SUB SWAP1 REVERT JUMPDEST PUSH0 PUSH0 DUP4 DUP2 MSTORE PUSH1 0x20 ADD SWAP1 DUP2 MSTORE PUSH1 0x20 ADD PUSH0 KECCAK256 PUSH0 ADD SLOAD SWAP1 POP SWAP2 SWAP1 POP JUMP JUMPDEST PUSH0 PUSH0 REVERT JUMPDEST PUSH0 DUP2 SWAP1 POP SWAP2 SWAP1 POP JUMP JUMPDEST PUSH2 0x1F2 DUP2 PUSH2 0x1E0 JUMP JUMPDEST DUP2 EQ PUSH2 0x1FC JUMPI PUSH0 PUSH0 REVERT JUMPDEST POP JUMP JUMPDEST PUSH0 DUP2 CALLDATALOAD SWAP1 POP PUSH2 0x20D DUP2 PUSH2 0x1E9 JUMP JUMPDEST SWAP3 SWAP2 POP POP JUMP JUMPDEST PUSH0 PUSH4 0xFFFFFFFF DUP3 AND SWAP1 POP SWAP2 SWAP1 POP JUMP JUMPDEST PUSH2 0x22B DUP2 PUSH2 0x213 JUMP JUMPDEST DUP2 EQ PUSH2 0x235 JUMPI PUSH0 PUSH0 REVERT JUMPDEST POP JUMP JUMPDEST PUSH0 DUP2 CALLDATALOAD SWAP1 POP PUSH2 0x246 DUP2 PUSH2 0x222 JUMP JUMPDEST SWAP3 SWAP2 POP POP JUMP JUMPDEST PUSH0 PUSH0 PUSH0 PUSH1 0x60 DUP5 DUP7 SUB SLT ISZERO PUSH2 0x263 JUMPI PUSH2 0x262 PUSH2 0x1DC JUMP JUMPDEST JUMPDEST PUSH0 PUSH2 0x270 DUP7 DUP3 DUP8 ADD PUSH2 0x1FF JUMP JUMPDEST SWAP4 POP POP PUSH1 0x20 PUSH2 0x281 DUP7 DUP3 DUP8 ADD PUSH2 0x1FF JUMP JUMPDEST SWAP3 POP POP PUSH1 0x40 PUSH2 0x292 DUP7 DUP3 DUP8 ADD PUSH2 0x238 JUMP JUMPDEST SWAP2 POP POP SWAP3 POP SWAP3 POP SWAP3 JUMP JUMPDEST PUSH0 PUSH1 0x20 DUP3 DUP5 SUB SLT ISZERO PUSH2 0x2B1 JUMPI PUSH2 0x2B0 PUSH2 0x1DC JUMP JUMPDEST JUMPDEST PUSH0 PUSH2 0x2BE DUP5 DUP3 DUP6 ADD PUSH2 0x1FF JUMP JUMPDEST SWAP2 POP POP SWAP3 SWAP2 POP POP JUMP JUMPDEST PUSH2 0x2D0 DUP2 PUSH2 0x1E0 JUMP JUMPDEST DUP3 MSTORE POP POP JUMP JUMPDEST PUSH0 PUSH1 0x20 DUP3 ADD SWAP1 POP PUSH2 0x2E9 PUSH0 DUP4 ADD DUP5 PUSH2 0x2C7 JUMP JUMPDEST SWAP3 SWAP2 POP POP JUMP JUMPDEST PUSH0 DUP3 DUP3 MSTORE PUSH1 0x20 DUP3 ADD SWAP1 POP SWAP3 SWAP2 POP POP JUMP JUMPDEST PUSH32 0x5472616E73616374696F6E2076616C756520646F6573206E6F74206D61746368 PUSH0 DUP3 ADD MSTORE PUSH32 0x2070726F76696465642067656E657369732066756E64696E672E000000000000 PUSH1 0x20 DUP3 ADD MSTORE POP JUMP JUMPDEST PUSH0 PUSH2 0x359 PUSH1 0x3A DUP4 PUSH2 0x2EF JUMP JUMPDEST SWAP2 POP PUSH2 0x364 DUP3 PUSH2 0x2FF JUMP JUMPDEST PUSH1 0x40 DUP3 ADD SWAP1 POP SWAP2 SWAP1 POP JUMP JUMPDEST PUSH0 PUSH1 0x20 DUP3 ADD SWAP1 POP DUP2 DUP2 SUB PUSH0 DUP4 ADD MSTORE PUSH2 0x386 DUP2 PUSH2 0x34D JUMP JUMPDEST SWAP1 POP SWAP2 SWAP1 POP JUMP JUMPDEST PUSH32 0x496D61676520616C7265616479206E6F746172697A65642E0000000000000000 PUSH0 DUP3 ADD MSTORE POP JUMP JUMPDEST PUSH0 PUSH2 0x3C1 PUSH1 0x18 DUP4 PUSH2 0x2EF JUMP JUMPDEST SWAP2 POP PUSH2 0x3CC DUP3 PUSH2 0x38D JUMP JUMPDEST PUSH1 0x20 DUP3 ADD SWAP1 POP SWAP2 SWAP1 POP JUMP JUMPDEST PUSH0 PUSH1 0x20 DUP3 ADD SWAP1 POP DUP2 DUP2 SUB PUSH0 DUP4 ADD MSTORE PUSH2 0x3EE DUP2 PUSH2 0x3B5 JUMP JUMPDEST SWAP1 POP SWAP2 SWAP1 POP JUMP JUMPDEST PUSH32 0x50726F76696465642068617368206E6F74207265636F7264656420696E206E6F PUSH0 DUP3 ADD MSTORE PUSH32 0x746172792E000000000000000000000000000000000000000000000000000000 PUSH1 0x20 DUP3 ADD MSTORE POP JUMP JUMPDEST PUSH0 PUSH2 0x44F PUSH1 0x25 DUP4 PUSH2 0x2EF JUMP JUMPDEST SWAP2 POP PUSH2 0x45A DUP3 PUSH2 0x3F5 JUMP JUMPDEST PUSH1 0x40 DUP3 ADD SWAP1 POP SWAP2 SWAP1 POP JUMP JUMPDEST PUSH0 PUSH1 0x20 DUP3 ADD SWAP1 POP DUP2 DUP2 SUB PUSH0 DUP4 ADD MSTORE PUSH2 0x47C DUP2 PUSH2 0x443 JUMP JUMPDEST SWAP1 POP SWAP2 SWAP1 POP JUMP INVALID LOG2 PUSH5 0x6970667358 0x22 SLT KECCAK256 CALLDATALOAD SWAP11 PUSH10 0x2D69C03317ECEDD86431 EXTSTATICCALL SWAP11 RETF PUSH4 0x58A15642 0xC7 0xCE 0xB9 RETURNDATASIZE NOT DELEGATECALL JUMPF 0xFEBB SMOD EXTDELEGATECALL PUSH5 0x736F6C6343 STOP ADDMOD 0x1E STOP CALLER "
				},
				"gasEstimates": {
					"creation": {
						"codeDepositCost": "241800",
						"executionCost": "279",
						"totalCost": "242079"
					},
					"external": {
						"retrieve_image(uint256)": "infinite",
						"store_image(uint256,uint256,uint32)": "infinite"
					}
				},
				"methodIdentifiers": {
					"retrieve_image(uint256)": "60d37bbf",
					"store_image(uint256,uint256,uint32)": "5f6eb9c7"
				}
			},
			"storageLayout": {
				"storage": [
					{
						"astId": 19,
						"contract": "3_Ballot.sol:Notary",
						"label": "retrieval",
						"offset": 0,
						"slot": "0",
						"type": "t_mapping(t_uint256,t_struct(Image)6_storage)"
					}
				],
				"types": {
					"t_mapping(t_uint256,t_struct(Image)6_storage)": {
						"encoding": "mapping",
						"key": "t_uint256",
						"label": "mapping(uint256 => struct Notary.Image)",
						"numberOfBytes": "32",
						"value": "t_struct(Image)6_storage"
					},
					"t_struct(Image)6_storage": {
						"encoding": "inplace",
						"label": "struct Notary.Image",
						"members": [
							{
								"astId": 3,
								"contract": "3_Ballot.sol:Notary",
								"label": "cid",
								"offset": 0,
								"slot": "0",
								"type": "t_uint256"
							},
							{
								"astId": 5,
								"contract": "3_Ballot.sol:Notary",
								"label": "genesisFunding",
								"offset": 0,
								"slot": "1",
								"type": "t_uint32"
							}
						],
						"numberOfBytes": "64"
					},
					"t_uint256": {
						"encoding": "inplace",
						"label": "uint256",
						"numberOfBytes": "32"
					},
					"t_uint32": {
						"encoding": "inplace",
						"label": "uint32",
						"numberOfBytes": "4"
					}
				}
			},
			"userdoc": {
				"kind": "user",
				"methods": {},
				"version": 1
			}
		}
	}
}