{
	"Notary.sol": {
		"Notary": {
			"abi": [
				{
					"anonymous": false,
					"inputs": [
						{
							"indexed": false,
							"internalType": "uint256",
							"name": "hash",
							"type": "uint256"
						},
						{
							"indexed": false,
							"internalType": "uint256",
							"name": "cid",
							"type": "uint256"
						},
						{
							"indexed": false,
							"internalType": "uint32",
							"name": "genesisFunding",
							"type": "uint32"
						}
					],
					"name": "ImageStored",
					"type": "event"
				},
				{
					"inputs": [
						{
							"internalType": "uint256",
							"name": "_jpegHash",
							"type": "uint256"
						}
					],
					"name": "retrieve_image",
					"outputs": [
						{
							"internalType": "uint256",
							"name": "",
							"type": "uint256"
						}
					],
					"stateMutability": "view",
					"type": "function"
				},
				{
					"inputs": [
						{
							"internalType": "uint256",
							"name": "_jpegHash",
							"type": "uint256"
						},
						{
							"internalType": "uint256",
							"name": "_cid",
							"type": "uint256"
						},
						{
							"internalType": "uint32",
							"name": "_genesisFunding",
							"type": "uint32"
						},
						{
							"internalType": "uint32",
							"name": "_commitEnd",
							"type": "uint32"
						},
						{
							"internalType": "uint32",
							"name": "_revealEnd",
							"type": "uint32"
						}
					],
					"name": "store_image",
					"outputs": [],
					"stateMutability": "payable",
					"type": "function"
				}
			],
			"devdoc": {
				"kind": "dev",
				"methods": {},
				"version": 1
			},
			"evm": {
				"assembly": "    /* \"Notary.sol\":25:1441  contract Notary {... */\n  mstore(0x40, 0x80)\n  callvalue\n  dup1\n  iszero\n  tag_1\n  jumpi\n  revert(0x00, 0x00)\ntag_1:\n  pop\n  dataSize(sub_0)\n  dup1\n  dataOffset(sub_0)\n  0x00\n  codecopy\n  0x00\n  return\nstop\n\nsub_0: assembly {\n        /* \"Notary.sol\":25:1441  contract Notary {... */\n      mstore(0x40, 0x80)\n      jumpi(tag_1, lt(calldatasize, 0x04))\n      shr(0xe0, calldataload(0x00))\n      dup1\n      0x60d37bbf\n      eq\n      tag_2\n      jumpi\n      dup1\n      0xfc5e796b\n      eq\n      tag_3\n      jumpi\n    tag_1:\n      revert(0x00, 0x00)\n        /* \"Notary.sol\":1233:1439  function retrieve_image(uint _jpegHash) external view returns (uint) {... */\n    tag_2:\n      callvalue\n      dup1\n      iszero\n      tag_4\n      jumpi\n      revert(0x00, 0x00)\n    tag_4:\n      pop\n      tag_5\n      0x04\n      dup1\n      calldatasize\n      sub\n      dup2\n      add\n      swap1\n      tag_6\n      swap2\n      swap1\n      tag_7\n      jump\t// in\n    tag_6:\n      tag_8\n      jump\t// in\n    tag_5:\n      mload(0x40)\n      tag_9\n      swap2\n      swap1\n      tag_10\n      jump\t// in\n    tag_9:\n      mload(0x40)\n      dup1\n      swap2\n      sub\n      swap1\n      return\n        /* \"Notary.sol\":298:1228  function store_image(uint _jpegHash, uint _cid, uint32 _genesisFunding, uint32 _commitEnd, uint32 _revealEnd) external payable {... */\n    tag_3:\n      tag_11\n      0x04\n      dup1\n      calldatasize\n      sub\n      dup2\n      add\n      swap1\n      tag_12\n      swap2\n      swap1\n      tag_13\n      jump\t// in\n    tag_12:\n      tag_14\n      jump\t// in\n    tag_11:\n      stop\n        /* \"Notary.sol\":1233:1439  function retrieve_image(uint _jpegHash) external view returns (uint) {... */\n    tag_8:\n        /* \"Notary.sol\":1296:1300  uint */\n      0x00\n        /* \"Notary.sol\":1348:1349  0 */\n      0x00\n        /* \"Notary.sol\":1320:1329  retrieval */\n      0x00\n        /* \"Notary.sol\":1320:1340  retrieval[_jpegHash] */\n      0x00\n        /* \"Notary.sol\":1330:1339  _jpegHash */\n      dup5\n        /* \"Notary.sol\":1320:1340  retrieval[_jpegHash] */\n      dup2\n      mstore\n      0x20\n      add\n      swap1\n      dup2\n      mstore\n      0x20\n      add\n      0x00\n      keccak256\n        /* \"Notary.sol\":1320:1344  retrieval[_jpegHash].cid */\n      0x00\n      add\n      sload\n        /* \"Notary.sol\":1320:1349  retrieval[_jpegHash].cid != 0 */\n      sub\n        /* \"Notary.sol\":1312:1391  require(retrieval[_jpegHash].cid != 0, \"Provided hash not recorded in notary.\") */\n      tag_16\n      jumpi\n      mload(0x40)\n      0x08c379a000000000000000000000000000000000000000000000000000000000\n      dup2\n      mstore\n      0x04\n      add\n      tag_17\n      swap1\n      tag_18\n      jump\t// in\n    tag_17:\n      mload(0x40)\n      dup1\n      swap2\n      sub\n      swap1\n      revert\n    tag_16:\n        /* \"Notary.sol\":1408:1417  retrieval */\n      0x00\n        /* \"Notary.sol\":1408:1428  retrieval[_jpegHash] */\n      0x00\n        /* \"Notary.sol\":1418:1427  _jpegHash */\n      dup4\n        /* \"Notary.sol\":1408:1428  retrieval[_jpegHash] */\n      dup2\n      mstore\n      0x20\n      add\n      swap1\n      dup2\n      mstore\n      0x20\n      add\n      0x00\n      keccak256\n        /* \"Notary.sol\":1408:1432  retrieval[_jpegHash].cid */\n      0x00\n      add\n      sload\n        /* \"Notary.sol\":1401:1432  return retrieval[_jpegHash].cid */\n      swap1\n      pop\n        /* \"Notary.sol\":1233:1439  function retrieve_image(uint _jpegHash) external view returns (uint) {... */\n      swap2\n      swap1\n      pop\n      jump\t// out\n        /* \"Notary.sol\":298:1228  function store_image(uint _jpegHash, uint _cid, uint32 _genesisFunding, uint32 _commitEnd, uint32 _revealEnd) external payable {... */\n    tag_14:\n        /* \"Notary.sol\":452:453  0 */\n      0x00\n        /* \"Notary.sol\":439:449  _commitEnd */\n      dup3\n        /* \"Notary.sol\":439:453  _commitEnd > 0 */\n      0xffffffff\n      and\n      gt\n        /* \"Notary.sol\":435:951  if (_commitEnd > 0) {... */\n      iszero\n      tag_20\n      jumpi\n        /* \"Notary.sol\":490:505  _genesisFunding */\n      dup3\n        /* \"Notary.sol\":477:505  msg.value == _genesisFunding */\n      0xffffffff\n      and\n        /* \"Notary.sol\":477:486  msg.value */\n      callvalue\n        /* \"Notary.sol\":477:505  msg.value == _genesisFunding */\n      eq\n        /* \"Notary.sol\":469:568  require(msg.value == _genesisFunding, \"Transaction value does not match provided genesis funding.\") */\n      tag_21\n      jumpi\n      mload(0x40)\n      0x08c379a000000000000000000000000000000000000000000000000000000000\n      dup2\n      mstore\n      0x04\n      add\n      tag_22\n      swap1\n      tag_23\n      jump\t// in\n    tag_22:\n      mload(0x40)\n      dup1\n      swap2\n      sub\n      swap1\n      revert\n    tag_21:\n        /* \"Notary.sol\":622:632  10 minutes */\n      0x0258\n        /* \"Notary.sol\":603:618  block.timestamp */\n      timestamp\n        /* \"Notary.sol\":590:600  _commitEnd */\n      dup4\n        /* \"Notary.sol\":590:618  _commitEnd - block.timestamp */\n      0xffffffff\n      and\n      tag_24\n      swap2\n      swap1\n      tag_25\n      jump\t// in\n    tag_24:\n        /* \"Notary.sol\":590:632  _commitEnd - block.timestamp >= 10 minutes */\n      lt\n      iszero\n        /* \"Notary.sol\":582:692  require(_commitEnd - block.timestamp >= 10 minutes, \"Length of commitment period must be at least 10 minutes\") */\n      tag_26\n      jumpi\n      mload(0x40)\n      0x08c379a000000000000000000000000000000000000000000000000000000000\n      dup2\n      mstore\n      0x04\n      add\n      tag_27\n      swap1\n      tag_28\n      jump\t// in\n    tag_27:\n      mload(0x40)\n      dup1\n      swap2\n      sub\n      swap1\n      revert\n    tag_26:\n        /* \"Notary.sol\":741:751  10 minutes */\n      0x0258\n        /* \"Notary.sol\":727:737  _commitEnd */\n      dup3\n        /* \"Notary.sol\":714:724  _revealEnd */\n      dup3\n        /* \"Notary.sol\":714:737  _revealEnd - _commitEnd */\n      tag_29\n      swap2\n      swap1\n      tag_30\n      jump\t// in\n    tag_29:\n        /* \"Notary.sol\":714:751  _revealEnd - _commitEnd >= 10 minutes */\n      0xffffffff\n      and\n      lt\n      iszero\n        /* \"Notary.sol\":706:811  require(_revealEnd - _commitEnd >= 10 minutes, \"Length of commitment period must be at least 10 minutes\") */\n      tag_31\n      jumpi\n      mload(0x40)\n      0x08c379a000000000000000000000000000000000000000000000000000000000\n      dup2\n      mstore\n      0x04\n      add\n      tag_32\n      swap1\n      tag_28\n      jump\t// in\n    tag_32:\n      mload(0x40)\n      dup1\n      swap2\n      sub\n      swap1\n      revert\n    tag_31:\n        /* \"Notary.sol\":435:951  if (_commitEnd > 0) {... */\n      jump(tag_33)\n    tag_20:\n        /* \"Notary.sol\":858:859  0 */\n      0x00\n        /* \"Notary.sol\":840:855  _genesisFunding */\n      dup4\n        /* \"Notary.sol\":840:859  _genesisFunding > 0 */\n      0xffffffff\n      and\n      gt\n        /* \"Notary.sol\":836:951  if (_genesisFunding > 0) {... */\n      iszero\n      tag_34\n      jumpi\n        /* \"Notary.sol\":875:940  revert(\"Non-balloting transaction can not have genesis funding.\") */\n      mload(0x40)\n      0x08c379a000000000000000000000000000000000000000000000000000000000\n      dup2\n      mstore\n      0x04\n      add\n      tag_35\n      swap1\n      tag_36\n      jump\t// in\n    tag_35:\n      mload(0x40)\n      dup1\n      swap2\n      sub\n      swap1\n      revert\n        /* \"Notary.sol\":836:951  if (_genesisFunding > 0) {... */\n    tag_34:\n        /* \"Notary.sol\":435:951  if (_commitEnd > 0) {... */\n    tag_33:\n        /* \"Notary.sol\":996:997  0 */\n      0x00\n        /* \"Notary.sol\":968:977  retrieval */\n      0x00\n        /* \"Notary.sol\":968:988  retrieval[_jpegHash] */\n      0x00\n        /* \"Notary.sol\":978:987  _jpegHash */\n      dup8\n        /* \"Notary.sol\":968:988  retrieval[_jpegHash] */\n      dup2\n      mstore\n      0x20\n      add\n      swap1\n      dup2\n      mstore\n      0x20\n      add\n      0x00\n      keccak256\n        /* \"Notary.sol\":968:992  retrieval[_jpegHash].cid */\n      0x00\n      add\n      sload\n        /* \"Notary.sol\":968:997  retrieval[_jpegHash].cid == 0 */\n      eq\n        /* \"Notary.sol\":960:1026  require(retrieval[_jpegHash].cid == 0, \"Image already notarized.\") */\n      tag_37\n      jumpi\n      mload(0x40)\n      0x08c379a000000000000000000000000000000000000000000000000000000000\n      dup2\n      mstore\n      0x04\n      add\n      tag_38\n      swap1\n      tag_39\n      jump\t// in\n    tag_38:\n      mload(0x40)\n      dup1\n      swap2\n      sub\n      swap1\n      revert\n    tag_37:\n        /* \"Notary.sol\":1059:1221  Image( { ... */\n      mload(0x40)\n      dup1\n      0x80\n      add\n      0x40\n      mstore\n      dup1\n        /* \"Notary.sol\":1086:1090  _cid */\n      dup6\n        /* \"Notary.sol\":1059:1221  Image( { ... */\n      dup2\n      mstore\n      0x20\n      add\n        /* \"Notary.sol\":1121:1136  _genesisFunding */\n      dup5\n        /* \"Notary.sol\":1059:1221  Image( { ... */\n      0xffffffff\n      and\n      dup2\n      mstore\n      0x20\n      add\n        /* \"Notary.sol\":1162:1172  _commitEnd */\n      dup4\n        /* \"Notary.sol\":1059:1221  Image( { ... */\n      0xffffffff\n      and\n      dup2\n      mstore\n      0x20\n      add\n        /* \"Notary.sol\":1198:1208  _revealEnd */\n      dup3\n        /* \"Notary.sol\":1059:1221  Image( { ... */\n      0xffffffff\n      and\n      dup2\n      mstore\n      pop\n        /* \"Notary.sol\":1036:1045  retrieval */\n      0x00\n        /* \"Notary.sol\":1036:1056  retrieval[_jpegHash] */\n      0x00\n        /* \"Notary.sol\":1046:1055  _jpegHash */\n      dup8\n        /* \"Notary.sol\":1036:1056  retrieval[_jpegHash] */\n      dup2\n      mstore\n      0x20\n      add\n      swap1\n      dup2\n      mstore\n      0x20\n      add\n      0x00\n      keccak256\n        /* \"Notary.sol\":1036:1221  retrieval[_jpegHash] = Image( { ... */\n      0x00\n      dup3\n      add\n      mload\n      dup2\n      0x00\n      add\n      sstore\n      0x20\n      dup3\n      add\n      mload\n      dup2\n      0x01\n      add\n      exp(0x0100, 0x00)\n      dup2\n      sload\n      dup2\n      0xffffffff\n      mul\n      not\n      and\n      swap1\n      dup4\n      0xffffffff\n      and\n      mul\n      or\n      swap1\n      sstore\n      pop\n      0x40\n      dup3\n      add\n      mload\n      dup2\n      0x01\n      add\n      exp(0x0100, 0x04)\n      dup2\n      sload\n      dup2\n      0xffffffff\n      mul\n      not\n      and\n      swap1\n      dup4\n      0xffffffff\n      and\n      mul\n      or\n      swap1\n      sstore\n      pop\n      0x60\n      dup3\n      add\n      mload\n      dup2\n      0x01\n      add\n      exp(0x0100, 0x08)\n      dup2\n      sload\n      dup2\n      0xffffffff\n      mul\n      not\n      and\n      swap1\n      dup4\n      0xffffffff\n      and\n      mul\n      or\n      swap1\n      sstore\n      pop\n      swap1\n      pop\n      pop\n        /* \"Notary.sol\":298:1228  function store_image(uint _jpegHash, uint _cid, uint32 _genesisFunding, uint32 _commitEnd, uint32 _revealEnd) external payable {... */\n      pop\n      pop\n      pop\n      pop\n      pop\n      jump\t// out\n        /* \"#utility.yul\":88:205   */\n    tag_41:\n        /* \"#utility.yul\":197:198   */\n      0x00\n        /* \"#utility.yul\":194:195   */\n      0x00\n        /* \"#utility.yul\":187:199   */\n      revert\n        /* \"#utility.yul\":334:411   */\n    tag_43:\n        /* \"#utility.yul\":371:378   */\n      0x00\n        /* \"#utility.yul\":400:405   */\n      dup2\n        /* \"#utility.yul\":389:405   */\n      swap1\n      pop\n        /* \"#utility.yul\":334:411   */\n      swap2\n      swap1\n      pop\n      jump\t// out\n        /* \"#utility.yul\":417:539   */\n    tag_44:\n        /* \"#utility.yul\":490:514   */\n      tag_68\n        /* \"#utility.yul\":508:513   */\n      dup2\n        /* \"#utility.yul\":490:514   */\n      tag_43\n      jump\t// in\n    tag_68:\n        /* \"#utility.yul\":483:488   */\n      dup2\n        /* \"#utility.yul\":480:515   */\n      eq\n        /* \"#utility.yul\":470:533   */\n      tag_69\n      jumpi\n        /* \"#utility.yul\":529:530   */\n      0x00\n        /* \"#utility.yul\":526:527   */\n      0x00\n        /* \"#utility.yul\":519:531   */\n      revert\n        /* \"#utility.yul\":470:533   */\n    tag_69:\n        /* \"#utility.yul\":417:539   */\n      pop\n      jump\t// out\n        /* \"#utility.yul\":545:684   */\n    tag_45:\n        /* \"#utility.yul\":591:596   */\n      0x00\n        /* \"#utility.yul\":629:635   */\n      dup2\n        /* \"#utility.yul\":616:636   */\n      calldataload\n        /* \"#utility.yul\":607:636   */\n      swap1\n      pop\n        /* \"#utility.yul\":645:678   */\n      tag_71\n        /* \"#utility.yul\":672:677   */\n      dup2\n        /* \"#utility.yul\":645:678   */\n      tag_44\n      jump\t// in\n    tag_71:\n        /* \"#utility.yul\":545:684   */\n      swap3\n      swap2\n      pop\n      pop\n      jump\t// out\n        /* \"#utility.yul\":690:1019   */\n    tag_7:\n        /* \"#utility.yul\":749:755   */\n      0x00\n        /* \"#utility.yul\":798:800   */\n      0x20\n        /* \"#utility.yul\":786:795   */\n      dup3\n        /* \"#utility.yul\":777:784   */\n      dup5\n        /* \"#utility.yul\":773:796   */\n      sub\n        /* \"#utility.yul\":769:801   */\n      slt\n        /* \"#utility.yul\":766:885   */\n      iszero\n      tag_73\n      jumpi\n        /* \"#utility.yul\":804:883   */\n      tag_74\n      tag_41\n      jump\t// in\n    tag_74:\n        /* \"#utility.yul\":766:885   */\n    tag_73:\n        /* \"#utility.yul\":924:925   */\n      0x00\n        /* \"#utility.yul\":949:1002   */\n      tag_75\n        /* \"#utility.yul\":994:1001   */\n      dup5\n        /* \"#utility.yul\":985:991   */\n      dup3\n        /* \"#utility.yul\":974:983   */\n      dup6\n        /* \"#utility.yul\":970:992   */\n      add\n        /* \"#utility.yul\":949:1002   */\n      tag_45\n      jump\t// in\n    tag_75:\n        /* \"#utility.yul\":939:1002   */\n      swap2\n      pop\n        /* \"#utility.yul\":895:1012   */\n      pop\n        /* \"#utility.yul\":690:1019   */\n      swap3\n      swap2\n      pop\n      pop\n      jump\t// out\n        /* \"#utility.yul\":1025:1143   */\n    tag_46:\n        /* \"#utility.yul\":1112:1136   */\n      tag_77\n        /* \"#utility.yul\":1130:1135   */\n      dup2\n        /* \"#utility.yul\":1112:1136   */\n      tag_43\n      jump\t// in\n    tag_77:\n        /* \"#utility.yul\":1107:1110   */\n      dup3\n        /* \"#utility.yul\":1100:1137   */\n      mstore\n        /* \"#utility.yul\":1025:1143   */\n      pop\n      pop\n      jump\t// out\n        /* \"#utility.yul\":1149:1371   */\n    tag_10:\n        /* \"#utility.yul\":1242:1246   */\n      0x00\n        /* \"#utility.yul\":1280:1282   */\n      0x20\n        /* \"#utility.yul\":1269:1278   */\n      dup3\n        /* \"#utility.yul\":1265:1283   */\n      add\n        /* \"#utility.yul\":1257:1283   */\n      swap1\n      pop\n        /* \"#utility.yul\":1293:1364   */\n      tag_79\n        /* \"#utility.yul\":1361:1362   */\n      0x00\n        /* \"#utility.yul\":1350:1359   */\n      dup4\n        /* \"#utility.yul\":1346:1363   */\n      add\n        /* \"#utility.yul\":1337:1343   */\n      dup5\n        /* \"#utility.yul\":1293:1364   */\n      tag_46\n      jump\t// in\n    tag_79:\n        /* \"#utility.yul\":1149:1371   */\n      swap3\n      swap2\n      pop\n      pop\n      jump\t// out\n        /* \"#utility.yul\":1377:1470   */\n    tag_47:\n        /* \"#utility.yul\":1413:1420   */\n      0x00\n        /* \"#utility.yul\":1453:1463   */\n      0xffffffff\n        /* \"#utility.yul\":1446:1451   */\n      dup3\n        /* \"#utility.yul\":1442:1464   */\n      and\n        /* \"#utility.yul\":1431:1464   */\n      swap1\n      pop\n        /* \"#utility.yul\":1377:1470   */\n      swap2\n      swap1\n      pop\n      jump\t// out\n        /* \"#utility.yul\":1476:1596   */\n    tag_48:\n        /* \"#utility.yul\":1548:1571   */\n      tag_82\n        /* \"#utility.yul\":1565:1570   */\n      dup2\n        /* \"#utility.yul\":1548:1571   */\n      tag_47\n      jump\t// in\n    tag_82:\n        /* \"#utility.yul\":1541:1546   */\n      dup2\n        /* \"#utility.yul\":1538:1572   */\n      eq\n        /* \"#utility.yul\":1528:1590   */\n      tag_83\n      jumpi\n        /* \"#utility.yul\":1586:1587   */\n      0x00\n        /* \"#utility.yul\":1583:1584   */\n      0x00\n        /* \"#utility.yul\":1576:1588   */\n      revert\n        /* \"#utility.yul\":1528:1590   */\n    tag_83:\n        /* \"#utility.yul\":1476:1596   */\n      pop\n      jump\t// out\n        /* \"#utility.yul\":1602:1739   */\n    tag_49:\n        /* \"#utility.yul\":1647:1652   */\n      0x00\n        /* \"#utility.yul\":1685:1691   */\n      dup2\n        /* \"#utility.yul\":1672:1692   */\n      calldataload\n        /* \"#utility.yul\":1663:1692   */\n      swap1\n      pop\n        /* \"#utility.yul\":1701:1733   */\n      tag_85\n        /* \"#utility.yul\":1727:1732   */\n      dup2\n        /* \"#utility.yul\":1701:1733   */\n      tag_48\n      jump\t// in\n    tag_85:\n        /* \"#utility.yul\":1602:1739   */\n      swap3\n      swap2\n      pop\n      pop\n      jump\t// out\n        /* \"#utility.yul\":1745:2650   */\n    tag_13:\n        /* \"#utility.yul\":1837:1843   */\n      0x00\n        /* \"#utility.yul\":1845:1851   */\n      0x00\n        /* \"#utility.yul\":1853:1859   */\n      0x00\n        /* \"#utility.yul\":1861:1867   */\n      0x00\n        /* \"#utility.yul\":1869:1875   */\n      0x00\n        /* \"#utility.yul\":1918:1921   */\n      0xa0\n        /* \"#utility.yul\":1906:1915   */\n      dup7\n        /* \"#utility.yul\":1897:1904   */\n      dup9\n        /* \"#utility.yul\":1893:1916   */\n      sub\n        /* \"#utility.yul\":1889:1922   */\n      slt\n        /* \"#utility.yul\":1886:2006   */\n      iszero\n      tag_87\n      jumpi\n        /* \"#utility.yul\":1925:2004   */\n      tag_88\n      tag_41\n      jump\t// in\n    tag_88:\n        /* \"#utility.yul\":1886:2006   */\n    tag_87:\n        /* \"#utility.yul\":2045:2046   */\n      0x00\n        /* \"#utility.yul\":2070:2123   */\n      tag_89\n        /* \"#utility.yul\":2115:2122   */\n      dup9\n        /* \"#utility.yul\":2106:2112   */\n      dup3\n        /* \"#utility.yul\":2095:2104   */\n      dup10\n        /* \"#utility.yul\":2091:2113   */\n      add\n        /* \"#utility.yul\":2070:2123   */\n      tag_45\n      jump\t// in\n    tag_89:\n        /* \"#utility.yul\":2060:2123   */\n      swap6\n      pop\n        /* \"#utility.yul\":2016:2133   */\n      pop\n        /* \"#utility.yul\":2172:2174   */\n      0x20\n        /* \"#utility.yul\":2198:2251   */\n      tag_90\n        /* \"#utility.yul\":2243:2250   */\n      dup9\n        /* \"#utility.yul\":2234:2240   */\n      dup3\n        /* \"#utility.yul\":2223:2232   */\n      dup10\n        /* \"#utility.yul\":2219:2241   */\n      add\n        /* \"#utility.yul\":2198:2251   */\n      tag_45\n      jump\t// in\n    tag_90:\n        /* \"#utility.yul\":2188:2251   */\n      swap5\n      pop\n        /* \"#utility.yul\":2143:2261   */\n      pop\n        /* \"#utility.yul\":2300:2302   */\n      0x40\n        /* \"#utility.yul\":2326:2378   */\n      tag_91\n        /* \"#utility.yul\":2370:2377   */\n      dup9\n        /* \"#utility.yul\":2361:2367   */\n      dup3\n        /* \"#utility.yul\":2350:2359   */\n      dup10\n        /* \"#utility.yul\":2346:2368   */\n      add\n        /* \"#utility.yul\":2326:2378   */\n      tag_49\n      jump\t// in\n    tag_91:\n        /* \"#utility.yul\":2316:2378   */\n      swap4\n      pop\n        /* \"#utility.yul\":2271:2388   */\n      pop\n        /* \"#utility.yul\":2427:2429   */\n      0x60\n        /* \"#utility.yul\":2453:2505   */\n      tag_92\n        /* \"#utility.yul\":2497:2504   */\n      dup9\n        /* \"#utility.yul\":2488:2494   */\n      dup3\n        /* \"#utility.yul\":2477:2486   */\n      dup10\n        /* \"#utility.yul\":2473:2495   */\n      add\n        /* \"#utility.yul\":2453:2505   */\n      tag_49\n      jump\t// in\n    tag_92:\n        /* \"#utility.yul\":2443:2505   */\n      swap3\n      pop\n        /* \"#utility.yul\":2398:2515   */\n      pop\n        /* \"#utility.yul\":2554:2557   */\n      0x80\n        /* \"#utility.yul\":2581:2633   */\n      tag_93\n        /* \"#utility.yul\":2625:2632   */\n      dup9\n        /* \"#utility.yul\":2616:2622   */\n      dup3\n        /* \"#utility.yul\":2605:2614   */\n      dup10\n        /* \"#utility.yul\":2601:2623   */\n      add\n        /* \"#utility.yul\":2581:2633   */\n      tag_49\n      jump\t// in\n    tag_93:\n        /* \"#utility.yul\":2571:2633   */\n      swap2\n      pop\n        /* \"#utility.yul\":2525:2643   */\n      pop\n        /* \"#utility.yul\":1745:2650   */\n      swap3\n      swap6\n      pop\n      swap3\n      swap6\n      swap1\n      swap4\n      pop\n      jump\t// out\n        /* \"#utility.yul\":2656:2825   */\n    tag_50:\n        /* \"#utility.yul\":2740:2751   */\n      0x00\n        /* \"#utility.yul\":2774:2780   */\n      dup3\n        /* \"#utility.yul\":2769:2772   */\n      dup3\n        /* \"#utility.yul\":2762:2781   */\n      mstore\n        /* \"#utility.yul\":2814:2818   */\n      0x20\n        /* \"#utility.yul\":2809:2812   */\n      dup3\n        /* \"#utility.yul\":2805:2819   */\n      add\n        /* \"#utility.yul\":2790:2819   */\n      swap1\n      pop\n        /* \"#utility.yul\":2656:2825   */\n      swap3\n      swap2\n      pop\n      pop\n      jump\t// out\n        /* \"#utility.yul\":2831:3055   */\n    tag_51:\n        /* \"#utility.yul\":2971:3005   */\n      0x50726f76696465642068617368206e6f74207265636f7264656420696e206e6f\n        /* \"#utility.yul\":2967:2968   */\n      0x00\n        /* \"#utility.yul\":2959:2965   */\n      dup3\n        /* \"#utility.yul\":2955:2969   */\n      add\n        /* \"#utility.yul\":2948:3006   */\n      mstore\n        /* \"#utility.yul\":3040:3047   */\n      0x746172792e000000000000000000000000000000000000000000000000000000\n        /* \"#utility.yul\":3035:3037   */\n      0x20\n        /* \"#utility.yul\":3027:3033   */\n      dup3\n        /* \"#utility.yul\":3023:3038   */\n      add\n        /* \"#utility.yul\":3016:3048   */\n      mstore\n        /* \"#utility.yul\":2831:3055   */\n      pop\n      jump\t// out\n        /* \"#utility.yul\":3061:3427   */\n    tag_52:\n        /* \"#utility.yul\":3203:3206   */\n      0x00\n        /* \"#utility.yul\":3224:3291   */\n      tag_97\n        /* \"#utility.yul\":3288:3290   */\n      0x25\n        /* \"#utility.yul\":3283:3286   */\n      dup4\n        /* \"#utility.yul\":3224:3291   */\n      tag_50\n      jump\t// in\n    tag_97:\n        /* \"#utility.yul\":3217:3291   */\n      swap2\n      pop\n        /* \"#utility.yul\":3300:3393   */\n      tag_98\n        /* \"#utility.yul\":3389:3392   */\n      dup3\n        /* \"#utility.yul\":3300:3393   */\n      tag_51\n      jump\t// in\n    tag_98:\n        /* \"#utility.yul\":3418:3420   */\n      0x40\n        /* \"#utility.yul\":3413:3416   */\n      dup3\n        /* \"#utility.yul\":3409:3421   */\n      add\n        /* \"#utility.yul\":3402:3421   */\n      swap1\n      pop\n        /* \"#utility.yul\":3061:3427   */\n      swap2\n      swap1\n      pop\n      jump\t// out\n        /* \"#utility.yul\":3433:3852   */\n    tag_18:\n        /* \"#utility.yul\":3599:3603   */\n      0x00\n        /* \"#utility.yul\":3637:3639   */\n      0x20\n        /* \"#utility.yul\":3626:3635   */\n      dup3\n        /* \"#utility.yul\":3622:3640   */\n      add\n        /* \"#utility.yul\":3614:3640   */\n      swap1\n      pop\n        /* \"#utility.yul\":3686:3695   */\n      dup2\n        /* \"#utility.yul\":3680:3684   */\n      dup2\n        /* \"#utility.yul\":3676:3696   */\n      sub\n        /* \"#utility.yul\":3672:3673   */\n      0x00\n        /* \"#utility.yul\":3661:3670   */\n      dup4\n        /* \"#utility.yul\":3657:3674   */\n      add\n        /* \"#utility.yul\":3650:3697   */\n      mstore\n        /* \"#utility.yul\":3714:3845   */\n      tag_100\n        /* \"#utility.yul\":3840:3844   */\n      dup2\n        /* \"#utility.yul\":3714:3845   */\n      tag_52\n      jump\t// in\n    tag_100:\n        /* \"#utility.yul\":3706:3845   */\n      swap1\n      pop\n        /* \"#utility.yul\":3433:3852   */\n      swap2\n      swap1\n      pop\n      jump\t// out\n        /* \"#utility.yul\":3858:4103   */\n    tag_53:\n        /* \"#utility.yul\":3998:4032   */\n      0x5472616e73616374696f6e2076616c756520646f6573206e6f74206d61746368\n        /* \"#utility.yul\":3994:3995   */\n      0x00\n        /* \"#utility.yul\":3986:3992   */\n      dup3\n        /* \"#utility.yul\":3982:3996   */\n      add\n        /* \"#utility.yul\":3975:4033   */\n      mstore\n        /* \"#utility.yul\":4067:4095   */\n      0x2070726f76696465642067656e657369732066756e64696e672e000000000000\n        /* \"#utility.yul\":4062:4064   */\n      0x20\n        /* \"#utility.yul\":4054:4060   */\n      dup3\n        /* \"#utility.yul\":4050:4065   */\n      add\n        /* \"#utility.yul\":4043:4096   */\n      mstore\n        /* \"#utility.yul\":3858:4103   */\n      pop\n      jump\t// out\n        /* \"#utility.yul\":4109:4475   */\n    tag_54:\n        /* \"#utility.yul\":4251:4254   */\n      0x00\n        /* \"#utility.yul\":4272:4339   */\n      tag_103\n        /* \"#utility.yul\":4336:4338   */\n      0x3a\n        /* \"#utility.yul\":4331:4334   */\n      dup4\n        /* \"#utility.yul\":4272:4339   */\n      tag_50\n      jump\t// in\n    tag_103:\n        /* \"#utility.yul\":4265:4339   */\n      swap2\n      pop\n        /* \"#utility.yul\":4348:4441   */\n      tag_104\n        /* \"#utility.yul\":4437:4440   */\n      dup3\n        /* \"#utility.yul\":4348:4441   */\n      tag_53\n      jump\t// in\n    tag_104:\n        /* \"#utility.yul\":4466:4468   */\n      0x40\n        /* \"#utility.yul\":4461:4464   */\n      dup3\n        /* \"#utility.yul\":4457:4469   */\n      add\n        /* \"#utility.yul\":4450:4469   */\n      swap1\n      pop\n        /* \"#utility.yul\":4109:4475   */\n      swap2\n      swap1\n      pop\n      jump\t// out\n        /* \"#utility.yul\":4481:4900   */\n    tag_23:\n        /* \"#utility.yul\":4647:4651   */\n      0x00\n        /* \"#utility.yul\":4685:4687   */\n      0x20\n        /* \"#utility.yul\":4674:4683   */\n      dup3\n        /* \"#utility.yul\":4670:4688   */\n      add\n        /* \"#utility.yul\":4662:4688   */\n      swap1\n      pop\n        /* \"#utility.yul\":4734:4743   */\n      dup2\n        /* \"#utility.yul\":4728:4732   */\n      dup2\n        /* \"#utility.yul\":4724:4744   */\n      sub\n        /* \"#utility.yul\":4720:4721   */\n      0x00\n        /* \"#utility.yul\":4709:4718   */\n      dup4\n        /* \"#utility.yul\":4705:4722   */\n      add\n        /* \"#utility.yul\":4698:4745   */\n      mstore\n        /* \"#utility.yul\":4762:4893   */\n      tag_106\n        /* \"#utility.yul\":4888:4892   */\n      dup2\n        /* \"#utility.yul\":4762:4893   */\n      tag_54\n      jump\t// in\n    tag_106:\n        /* \"#utility.yul\":4754:4893   */\n      swap1\n      pop\n        /* \"#utility.yul\":4481:4900   */\n      swap2\n      swap1\n      pop\n      jump\t// out\n        /* \"#utility.yul\":4906:5086   */\n    tag_55:\n        /* \"#utility.yul\":4954:5031   */\n      0x4e487b7100000000000000000000000000000000000000000000000000000000\n        /* \"#utility.yul\":4951:4952   */\n      0x00\n        /* \"#utility.yul\":4944:5032   */\n      mstore\n        /* \"#utility.yul\":5051:5055   */\n      0x11\n        /* \"#utility.yul\":5048:5049   */\n      0x04\n        /* \"#utility.yul\":5041:5056   */\n      mstore\n        /* \"#utility.yul\":5075:5079   */\n      0x24\n        /* \"#utility.yul\":5072:5073   */\n      0x00\n        /* \"#utility.yul\":5065:5080   */\n      revert\n        /* \"#utility.yul\":5092:5286   */\n    tag_25:\n        /* \"#utility.yul\":5132:5136   */\n      0x00\n        /* \"#utility.yul\":5152:5172   */\n      tag_109\n        /* \"#utility.yul\":5170:5171   */\n      dup3\n        /* \"#utility.yul\":5152:5172   */\n      tag_43\n      jump\t// in\n    tag_109:\n        /* \"#utility.yul\":5147:5172   */\n      swap2\n      pop\n        /* \"#utility.yul\":5186:5206   */\n      tag_110\n        /* \"#utility.yul\":5204:5205   */\n      dup4\n        /* \"#utility.yul\":5186:5206   */\n      tag_43\n      jump\t// in\n    tag_110:\n        /* \"#utility.yul\":5181:5206   */\n      swap3\n      pop\n        /* \"#utility.yul\":5230:5231   */\n      dup3\n        /* \"#utility.yul\":5227:5228   */\n      dup3\n        /* \"#utility.yul\":5223:5232   */\n      sub\n        /* \"#utility.yul\":5215:5232   */\n      swap1\n      pop\n        /* \"#utility.yul\":5254:5255   */\n      dup2\n        /* \"#utility.yul\":5248:5252   */\n      dup2\n        /* \"#utility.yul\":5245:5256   */\n      gt\n        /* \"#utility.yul\":5242:5279   */\n      iszero\n      tag_111\n      jumpi\n        /* \"#utility.yul\":5259:5277   */\n      tag_112\n      tag_55\n      jump\t// in\n    tag_112:\n        /* \"#utility.yul\":5242:5279   */\n    tag_111:\n        /* \"#utility.yul\":5092:5286   */\n      swap3\n      swap2\n      pop\n      pop\n      jump\t// out\n        /* \"#utility.yul\":5292:5534   */\n    tag_56:\n        /* \"#utility.yul\":5432:5466   */\n      0x4c656e677468206f6620636f6d6d69746d656e7420706572696f64206d757374\n        /* \"#utility.yul\":5428:5429   */\n      0x00\n        /* \"#utility.yul\":5420:5426   */\n      dup3\n        /* \"#utility.yul\":5416:5430   */\n      add\n        /* \"#utility.yul\":5409:5467   */\n      mstore\n        /* \"#utility.yul\":5501:5526   */\n      0x206265206174206c65617374203130206d696e75746573000000000000000000\n        /* \"#utility.yul\":5496:5498   */\n      0x20\n        /* \"#utility.yul\":5488:5494   */\n      dup3\n        /* \"#utility.yul\":5484:5499   */\n      add\n        /* \"#utility.yul\":5477:5527   */\n      mstore\n        /* \"#utility.yul\":5292:5534   */\n      pop\n      jump\t// out\n        /* \"#utility.yul\":5540:5906   */\n    tag_57:\n        /* \"#utility.yul\":5682:5685   */\n      0x00\n        /* \"#utility.yul\":5703:5770   */\n      tag_115\n        /* \"#utility.yul\":5767:5769   */\n      0x37\n        /* \"#utility.yul\":5762:5765   */\n      dup4\n        /* \"#utility.yul\":5703:5770   */\n      tag_50\n      jump\t// in\n    tag_115:\n        /* \"#utility.yul\":5696:5770   */\n      swap2\n      pop\n        /* \"#utility.yul\":5779:5872   */\n      tag_116\n        /* \"#utility.yul\":5868:5871   */\n      dup3\n        /* \"#utility.yul\":5779:5872   */\n      tag_56\n      jump\t// in\n    tag_116:\n        /* \"#utility.yul\":5897:5899   */\n      0x40\n        /* \"#utility.yul\":5892:5895   */\n      dup3\n        /* \"#utility.yul\":5888:5900   */\n      add\n        /* \"#utility.yul\":5881:5900   */\n      swap1\n      pop\n        /* \"#utility.yul\":5540:5906   */\n      swap2\n      swap1\n      pop\n      jump\t// out\n        /* \"#utility.yul\":5912:6331   */\n    tag_28:\n        /* \"#utility.yul\":6078:6082   */\n      0x00\n        /* \"#utility.yul\":6116:6118   */\n      0x20\n        /* \"#utility.yul\":6105:6114   */\n      dup3\n        /* \"#utility.yul\":6101:6119   */\n      add\n        /* \"#utility.yul\":6093:6119   */\n      swap1\n      pop\n        /* \"#utility.yul\":6165:6174   */\n      dup2\n        /* \"#utility.yul\":6159:6163   */\n      dup2\n        /* \"#utility.yul\":6155:6175   */\n      sub\n        /* \"#utility.yul\":6151:6152   */\n      0x00\n        /* \"#utility.yul\":6140:6149   */\n      dup4\n        /* \"#utility.yul\":6136:6153   */\n      add\n        /* \"#utility.yul\":6129:6176   */\n      mstore\n        /* \"#utility.yul\":6193:6324   */\n      tag_118\n        /* \"#utility.yul\":6319:6323   */\n      dup2\n        /* \"#utility.yul\":6193:6324   */\n      tag_57\n      jump\t// in\n    tag_118:\n        /* \"#utility.yul\":6185:6324   */\n      swap1\n      pop\n        /* \"#utility.yul\":5912:6331   */\n      swap2\n      swap1\n      pop\n      jump\t// out\n        /* \"#utility.yul\":6337:6537   */\n    tag_30:\n        /* \"#utility.yul\":6376:6380   */\n      0x00\n        /* \"#utility.yul\":6396:6415   */\n      tag_120\n        /* \"#utility.yul\":6413:6414   */\n      dup3\n        /* \"#utility.yul\":6396:6415   */\n      tag_47\n      jump\t// in\n    tag_120:\n        /* \"#utility.yul\":6391:6415   */\n      swap2\n      pop\n        /* \"#utility.yul\":6429:6448   */\n      tag_121\n        /* \"#utility.yul\":6446:6447   */\n      dup4\n        /* \"#utility.yul\":6429:6448   */\n      tag_47\n      jump\t// in\n    tag_121:\n        /* \"#utility.yul\":6424:6448   */\n      swap3\n      pop\n        /* \"#utility.yul\":6472:6473   */\n      dup3\n        /* \"#utility.yul\":6469:6470   */\n      dup3\n        /* \"#utility.yul\":6465:6474   */\n      sub\n        /* \"#utility.yul\":6457:6474   */\n      swap1\n      pop\n        /* \"#utility.yul\":6496:6506   */\n      0xffffffff\n        /* \"#utility.yul\":6490:6494   */\n      dup2\n        /* \"#utility.yul\":6487:6507   */\n      gt\n        /* \"#utility.yul\":6484:6530   */\n      iszero\n      tag_122\n      jumpi\n        /* \"#utility.yul\":6510:6528   */\n      tag_123\n      tag_55\n      jump\t// in\n    tag_123:\n        /* \"#utility.yul\":6484:6530   */\n    tag_122:\n        /* \"#utility.yul\":6337:6537   */\n      swap3\n      swap2\n      pop\n      pop\n      jump\t// out\n        /* \"#utility.yul\":6543:6785   */\n    tag_58:\n        /* \"#utility.yul\":6683:6717   */\n      0x4e6f6e2d62616c6c6f74696e67207472616e73616374696f6e2063616e206e6f\n        /* \"#utility.yul\":6679:6680   */\n      0x00\n        /* \"#utility.yul\":6671:6677   */\n      dup3\n        /* \"#utility.yul\":6667:6681   */\n      add\n        /* \"#utility.yul\":6660:6718   */\n      mstore\n        /* \"#utility.yul\":6752:6777   */\n      0x7420686176652067656e657369732066756e64696e672e000000000000000000\n        /* \"#utility.yul\":6747:6749   */\n      0x20\n        /* \"#utility.yul\":6739:6745   */\n      dup3\n        /* \"#utility.yul\":6735:6750   */\n      add\n        /* \"#utility.yul\":6728:6778   */\n      mstore\n        /* \"#utility.yul\":6543:6785   */\n      pop\n      jump\t// out\n        /* \"#utility.yul\":6791:7157   */\n    tag_59:\n        /* \"#utility.yul\":6933:6936   */\n      0x00\n        /* \"#utility.yul\":6954:7021   */\n      tag_126\n        /* \"#utility.yul\":7018:7020   */\n      0x37\n        /* \"#utility.yul\":7013:7016   */\n      dup4\n        /* \"#utility.yul\":6954:7021   */\n      tag_50\n      jump\t// in\n    tag_126:\n        /* \"#utility.yul\":6947:7021   */\n      swap2\n      pop\n        /* \"#utility.yul\":7030:7123   */\n      tag_127\n        /* \"#utility.yul\":7119:7122   */\n      dup3\n        /* \"#utility.yul\":7030:7123   */\n      tag_58\n      jump\t// in\n    tag_127:\n        /* \"#utility.yul\":7148:7150   */\n      0x40\n        /* \"#utility.yul\":7143:7146   */\n      dup3\n        /* \"#utility.yul\":7139:7151   */\n      add\n        /* \"#utility.yul\":7132:7151   */\n      swap1\n      pop\n        /* \"#utility.yul\":6791:7157   */\n      swap2\n      swap1\n      pop\n      jump\t// out\n        /* \"#utility.yul\":7163:7582   */\n    tag_36:\n        /* \"#utility.yul\":7329:7333   */\n      0x00\n        /* \"#utility.yul\":7367:7369   */\n      0x20\n        /* \"#utility.yul\":7356:7365   */\n      dup3\n        /* \"#utility.yul\":7352:7370   */\n      add\n        /* \"#utility.yul\":7344:7370   */\n      swap1\n      pop\n        /* \"#utility.yul\":7416:7425   */\n      dup2\n        /* \"#utility.yul\":7410:7414   */\n      dup2\n        /* \"#utility.yul\":7406:7426   */\n      sub\n        /* \"#utility.yul\":7402:7403   */\n      0x00\n        /* \"#utility.yul\":7391:7400   */\n      dup4\n        /* \"#utility.yul\":7387:7404   */\n      add\n        /* \"#utility.yul\":7380:7427   */\n      mstore\n        /* \"#utility.yul\":7444:7575   */\n      tag_129\n        /* \"#utility.yul\":7570:7574   */\n      dup2\n        /* \"#utility.yul\":7444:7575   */\n      tag_59\n      jump\t// in\n    tag_129:\n        /* \"#utility.yul\":7436:7575   */\n      swap1\n      pop\n        /* \"#utility.yul\":7163:7582   */\n      swap2\n      swap1\n      pop\n      jump\t// out\n        /* \"#utility.yul\":7588:7762   */\n    tag_60:\n        /* \"#utility.yul\":7728:7754   */\n      0x496d61676520616c7265616479206e6f746172697a65642e0000000000000000\n        /* \"#utility.yul\":7724:7725   */\n      0x00\n        /* \"#utility.yul\":7716:7722   */\n      dup3\n        /* \"#utility.yul\":7712:7726   */\n      add\n        /* \"#utility.yul\":7705:7755   */\n      mstore\n        /* \"#utility.yul\":7588:7762   */\n      pop\n      jump\t// out\n        /* \"#utility.yul\":7768:8134   */\n    tag_61:\n        /* \"#utility.yul\":7910:7913   */\n      0x00\n        /* \"#utility.yul\":7931:7998   */\n      tag_132\n        /* \"#utility.yul\":7995:7997   */\n      0x18\n        /* \"#utility.yul\":7990:7993   */\n      dup4\n        /* \"#utility.yul\":7931:7998   */\n      tag_50\n      jump\t// in\n    tag_132:\n        /* \"#utility.yul\":7924:7998   */\n      swap2\n      pop\n        /* \"#utility.yul\":8007:8100   */\n      tag_133\n        /* \"#utility.yul\":8096:8099   */\n      dup3\n        /* \"#utility.yul\":8007:8100   */\n      tag_60\n      jump\t// in\n    tag_133:\n        /* \"#utility.yul\":8125:8127   */\n      0x20\n        /* \"#utility.yul\":8120:8123   */\n      dup3\n        /* \"#utility.yul\":8116:8128   */\n      add\n        /* \"#utility.yul\":8109:8128   */\n      swap1\n      pop\n        /* \"#utility.yul\":7768:8134   */\n      swap2\n      swap1\n      pop\n      jump\t// out\n        /* \"#utility.yul\":8140:8559   */\n    tag_39:\n        /* \"#utility.yul\":8306:8310   */\n      0x00\n        /* \"#utility.yul\":8344:8346   */\n      0x20\n        /* \"#utility.yul\":8333:8342   */\n      dup3\n        /* \"#utility.yul\":8329:8347   */\n      add\n        /* \"#utility.yul\":8321:8347   */\n      swap1\n      pop\n        /* \"#utility.yul\":8393:8402   */\n      dup2\n        /* \"#utility.yul\":8387:8391   */\n      dup2\n        /* \"#utility.yul\":8383:8403   */\n      sub\n        /* \"#utility.yul\":8379:8380   */\n      0x00\n        /* \"#utility.yul\":8368:8377   */\n      dup4\n        /* \"#utility.yul\":8364:8381   */\n      add\n        /* \"#utility.yul\":8357:8404   */\n      mstore\n        /* \"#utility.yul\":8421:8552   */\n      tag_135\n        /* \"#utility.yul\":8547:8551   */\n      dup2\n        /* \"#utility.yul\":8421:8552   */\n      tag_61\n      jump\t// in\n    tag_135:\n        /* \"#utility.yul\":8413:8552   */\n      swap1\n      pop\n        /* \"#utility.yul\":8140:8559   */\n      swap2\n      swap1\n      pop\n      jump\t// out\n\n    auxdata: 0xa2646970667358221220b2fc836d3595780c13810b39e0a7df14fa53e52bef9986763484579251e568c964736f6c634300081e0033\n}\n",
				"bytecode": {
					"linkReferences": {},
					"object": "6080604052348015600e575f5ffd5b506108188061001c5f395ff3fe608060405260043610610028575f3560e01c806360d37bbf1461002c578063fc5e796b14610068575b5f5ffd5b348015610037575f5ffd5b50610052600480360381019061004d9190610398565b610084565b60405161005f91906103d2565b60405180910390f35b610082600480360381019061007d9190610424565b6100f3565b005b5f5f5f5f8481526020019081526020015f205f0154036100d9576040517f08c379a00000000000000000000000000000000000000000000000000000000081526004016100d09061051b565b60405180910390fd5b5f5f8381526020019081526020015f205f01549050919050565b5f8263ffffffff1611156101fa578263ffffffff163414610149576040517f08c379a0000000000000000000000000000000000000000000000000000000008152600401610140906105a9565b60405180910390fd5b610258428363ffffffff1661015e91906105f4565b101561019f576040517f08c379a000000000000000000000000000000000000000000000000000000000815260040161019690610697565b60405180910390fd5b61025882826101ae91906106b5565b63ffffffff1610156101f5576040517f08c379a00000000000000000000000000000000000000000000000000000000081526004016101ec90610697565b60405180910390fd5b610244565b5f8363ffffffff161115610243576040517f08c379a000000000000000000000000000000000000000000000000000000000815260040161023a9061075c565b60405180910390fd5b5b5f5f5f8781526020019081526020015f205f015414610298576040517f08c379a000000000000000000000000000000000000000000000000000000000815260040161028f906107c4565b60405180910390fd5b60405180608001604052808581526020018463ffffffff1681526020018363ffffffff1681526020018263ffffffff168152505f5f8781526020019081526020015f205f820151815f01556020820151816001015f6101000a81548163ffffffff021916908363ffffffff16021790555060408201518160010160046101000a81548163ffffffff021916908363ffffffff16021790555060608201518160010160086101000a81548163ffffffff021916908363ffffffff1602179055509050505050505050565b5f5ffd5b5f819050919050565b61037781610365565b8114610381575f5ffd5b50565b5f813590506103928161036e565b92915050565b5f602082840312156103ad576103ac610361565b5b5f6103ba84828501610384565b91505092915050565b6103cc81610365565b82525050565b5f6020820190506103e55f8301846103c3565b92915050565b5f63ffffffff82169050919050565b610403816103eb565b811461040d575f5ffd5b50565b5f8135905061041e816103fa565b92915050565b5f5f5f5f5f60a0868803121561043d5761043c610361565b5b5f61044a88828901610384565b955050602061045b88828901610384565b945050604061046c88828901610410565b935050606061047d88828901610410565b925050608061048e88828901610410565b9150509295509295909350565b5f82825260208201905092915050565b7f50726f76696465642068617368206e6f74207265636f7264656420696e206e6f5f8201527f746172792e000000000000000000000000000000000000000000000000000000602082015250565b5f61050560258361049b565b9150610510826104ab565b604082019050919050565b5f6020820190508181035f830152610532816104f9565b9050919050565b7f5472616e73616374696f6e2076616c756520646f6573206e6f74206d617463685f8201527f2070726f76696465642067656e657369732066756e64696e672e000000000000602082015250565b5f610593603a8361049b565b915061059e82610539565b604082019050919050565b5f6020820190508181035f8301526105c081610587565b9050919050565b7f4e487b71000000000000000000000000000000000000000000000000000000005f52601160045260245ffd5b5f6105fe82610365565b915061060983610365565b9250828203905081811115610621576106206105c7565b5b92915050565b7f4c656e677468206f6620636f6d6d69746d656e7420706572696f64206d7573745f8201527f206265206174206c65617374203130206d696e75746573000000000000000000602082015250565b5f61068160378361049b565b915061068c82610627565b604082019050919050565b5f6020820190508181035f8301526106ae81610675565b9050919050565b5f6106bf826103eb565b91506106ca836103eb565b9250828203905063ffffffff8111156106e6576106e56105c7565b5b92915050565b7f4e6f6e2d62616c6c6f74696e67207472616e73616374696f6e2063616e206e6f5f8201527f7420686176652067656e657369732066756e64696e672e000000000000000000602082015250565b5f61074660378361049b565b9150610751826106ec565b604082019050919050565b5f6020820190508181035f8301526107738161073a565b9050919050565b7f496d61676520616c7265616479206e6f746172697a65642e00000000000000005f82015250565b5f6107ae60188361049b565b91506107b98261077a565b602082019050919050565b5f6020820190508181035f8301526107db816107a2565b905091905056fea2646970667358221220b2fc836d3595780c13810b39e0a7df14fa53e52bef9986763484579251e568c964736f6c634300081e0033",
					"opcodes": "PUSH1 0x80 PUSH1 0x40 MSTORE CALLVALUE DUP1 ISZERO PUSH1 0xE JUMPI PUSH0 PUSH0 REVERT JUMPDEST POP PUSH2 0x818 DUP1 PUSH2 0x1C PUSH0 CODECOPY PUSH0 RETURN INVALID PUSH1 0x80 PUSH1 0x40 MSTORE PUSH1 0x4 CALLDATASIZE LT PUSH2 0x28 JUMPI PUSH0 CALLDATALOAD PUSH1 0xE0 SHR DUP1 PUSH4 0x60D37BBF EQ PUSH2 0x2C JUMPI DUP1 PUSH4 0xFC5E796B EQ PUSH2 0x68 JUMPI JUMPDEST PUSH0 PUSH0 REVERT JUMPDEST CALLVALUE DUP1 ISZERO PUSH2 0x37 JUMPI PUSH0 PUSH0 REVERT JUMPDEST POP PUSH2 0x52 PUSH1 0x4 DUP1 CALLDATASIZE SUB DUP2 ADD SWAP1 PUSH2 0x4D SWAP2 SWAP1 PUSH2 0x398 JUMP JUMPDEST PUSH2 0x84 JUMP JUMPDEST PUSH1 0x40 MLOAD PUSH2 0x5F SWAP2 SWAP1 PUSH2 0x3D2 JUMP JUMPDEST PUSH1 0x40 MLOAD DUP1 SWAP2 SUB SWAP1 RETURN JUMPDEST PUSH2 0x82 PUSH1 0x4 DUP1 CALLDATASIZE SUB DUP2 ADD SWAP1 PUSH2 0x7D SWAP2 SWAP1 PUSH2 0x424 JUMP JUMPDEST PUSH2 0xF3 JUMP JUMPDEST STOP JUMPDEST PUSH0 PUSH0 PUSH0 PUSH0 DUP5 DUP2 MSTORE PUSH1 0x20 ADD SWAP1 DUP2 MSTORE PUSH1 0x20 ADD PUSH0 KECCAK256 PUSH0 ADD SLOAD SUB PUSH2 0xD9 JUMPI PUSH1 0x40 MLOAD PUSH32 0x8C379A000000000000000000000000000000000000000000000000000000000 DUP2 MSTORE PUSH1 0x4 ADD PUSH2 0xD0 SWAP1 PUSH2 0x51B JUMP JUMPDEST PUSH1 0x40 MLOAD DUP1 SWAP2 SUB SWAP1 REVERT JUMPDEST PUSH0 PUSH0 DUP4 DUP2 MSTORE PUSH1 0x20 ADD SWAP1 DUP2 MSTORE PUSH1 0x20 ADD PUSH0 KECCAK256 PUSH0 ADD SLOAD SWAP1 POP SWAP2 SWAP1 POP JUMP JUMPDEST PUSH0 DUP3 PUSH4 0xFFFFFFFF AND GT ISZERO PUSH2 0x1FA JUMPI DUP3 PUSH4 0xFFFFFFFF AND CALLVALUE EQ PUSH2 0x149 JUMPI PUSH1 0x40 MLOAD PUSH32 0x8C379A000000000000000000000000000000000000000000000000000000000 DUP2 MSTORE PUSH1 0x4 ADD PUSH2 0x140 SWAP1 PUSH2 0x5A9 JUMP JUMPDEST PUSH1 0x40 MLOAD DUP1 SWAP2 SUB SWAP1 REVERT JUMPDEST PUSH2 0x258 TIMESTAMP DUP4 PUSH4 0xFFFFFFFF AND PUSH2 0x15E SWAP2 SWAP1 PUSH2 0x5F4 JUMP JUMPDEST LT ISZERO PUSH2 0x19F JUMPI PUSH1 0x40 MLOAD PUSH32 0x8C379A000000000000000000000000000000000000000000000000000000000 DUP2 MSTORE PUSH1 0x4 ADD PUSH2 0x196 SWAP1 PUSH2 0x697 JUMP JUMPDEST PUSH1 0x40 MLOAD DUP1 SWAP2 SUB SWAP1 REVERT JUMPDEST PUSH2 0x258 DUP3 DUP3 PUSH2 0x1AE SWAP2 SWAP1 PUSH2 0x6B5 JUMP JUMPDEST PUSH4 0xFFFFFFFF AND LT ISZERO PUSH2 0x1F5 JUMPI PUSH1 0x40 MLOAD PUSH32 0x8C379A000000000000000000000000000000000000000000000000000000000 DUP2 MSTORE PUSH1 0x4 ADD PUSH2 0x1EC SWAP1 PUSH2 0x697 JUMP JUMPDEST PUSH1 0x40 MLOAD DUP1 SWAP2 SUB SWAP1 REVERT JUMPDEST PUSH2 0x244 JUMP JUMPDEST PUSH0 DUP4 PUSH4 0xFFFFFFFF AND GT ISZERO PUSH2 0x243 JUMPI PUSH1 0x40 MLOAD PUSH32 0x8C379A000000000000000000000000000000000000000000000000000000000 DUP2 MSTORE PUSH1 0x4 ADD PUSH2 0x23A SWAP1 PUSH2 0x75C JUMP JUMPDEST PUSH1 0x40 MLOAD DUP1 SWAP2 SUB SWAP1 REVERT JUMPDEST JUMPDEST PUSH0 PUSH0 PUSH0 DUP8 DUP2 MSTORE PUSH1 0x20 ADD SWAP1 DUP2 MSTORE PUSH1 0x20 ADD PUSH0 KECCAK256 PUSH0 ADD SLOAD EQ PUSH2 0x298 JUMPI PUSH1 0x40 MLOAD PUSH32 0x8C379A000000000000000000000000000000000000000000000000000000000 DUP2 MSTORE PUSH1 0x4 ADD PUSH2 0x28F SWAP1 PUSH2 0x7C4 JUMP JUMPDEST PUSH1 0x40 MLOAD DUP1 SWAP2 SUB SWAP1 REVERT JUMPDEST PUSH1 0x40 MLOAD DUP1 PUSH1 0x80 ADD PUSH1 0x40 MSTORE DUP1 DUP6 DUP2 MSTORE PUSH1 0x20 ADD DUP5 PUSH4 0xFFFFFFFF AND DUP2 MSTORE PUSH1 0x20 ADD DUP4 PUSH4 0xFFFFFFFF AND DUP2 MSTORE PUSH1 0x20 ADD DUP3 PUSH4 0xFFFFFFFF AND DUP2 MSTORE POP PUSH0 PUSH0 DUP8 DUP2 MSTORE PUSH1 0x20 ADD SWAP1 DUP2 MSTORE PUSH1 0x20 ADD PUSH0 KECCAK256 PUSH0 DUP3 ADD MLOAD DUP2 PUSH0 ADD SSTORE PUSH1 0x20 DUP3 ADD MLOAD DUP2 PUSH1 0x1 ADD PUSH0 PUSH2 0x100 EXP DUP2 SLOAD DUP2 PUSH4 0xFFFFFFFF MUL NOT AND SWAP1 DUP4 PUSH4 0xFFFFFFFF AND MUL OR SWAP1 SSTORE POP PUSH1 0x40 DUP3 ADD MLOAD DUP2 PUSH1 0x1 ADD PUSH1 0x4 PUSH2 0x100 EXP DUP2 SLOAD DUP2 PUSH4 0xFFFFFFFF MUL NOT AND SWAP1 DUP4 PUSH4 0xFFFFFFFF AND MUL OR SWAP1 SSTORE POP PUSH1 0x60 DUP3 ADD MLOAD DUP2 PUSH1 0x1 ADD PUSH1 0x8 PUSH2 0x100 EXP DUP2 SLOAD DUP2 PUSH4 0xFFFFFFFF MUL NOT AND SWAP1 DUP4 PUSH4 0xFFFFFFFF AND MUL OR SWAP1 SSTORE POP SWAP1 POP POP POP POP POP POP POP JUMP JUMPDEST PUSH0 PUSH0 REVERT JUMPDEST PUSH0 DUP2 SWAP1 POP SWAP2 SWAP1 POP JUMP JUMPDEST PUSH2 0x377 DUP2 PUSH2 0x365 JUMP JUMPDEST DUP2 EQ PUSH2 0x381 JUMPI PUSH0 PUSH0 REVERT JUMPDEST POP JUMP JUMPDEST PUSH0 DUP2 CALLDATALOAD SWAP1 POP PUSH2 0x392 DUP2 PUSH2 0x36E JUMP JUMPDEST SWAP3 SWAP2 POP POP JUMP JUMPDEST PUSH0 PUSH1 0x20 DUP3 DUP5 SUB SLT ISZERO PUSH2 0x3AD JUMPI PUSH2 0x3AC PUSH2 0x361 JUMP JUMPDEST JUMPDEST PUSH0 PUSH2 0x3BA DUP5 DUP3 DUP6 ADD PUSH2 0x384 JUMP JUMPDEST SWAP2 POP POP SWAP3 SWAP2 POP POP JUMP JUMPDEST PUSH2 0x3CC DUP2 PUSH2 0x365 JUMP JUMPDEST DUP3 MSTORE POP POP JUMP JUMPDEST PUSH0 PUSH1 0x20 DUP3 ADD SWAP1 POP PUSH2 0x3E5 PUSH0 DUP4 ADD DUP5 PUSH2 0x3C3 JUMP JUMPDEST SWAP3 SWAP2 POP POP JUMP JUMPDEST PUSH0 PUSH4 0xFFFFFFFF DUP3 AND SWAP1 POP SWAP2 SWAP1 POP JUMP JUMPDEST PUSH2 0x403 DUP2 PUSH2 0x3EB JUMP JUMPDEST DUP2 EQ PUSH2 0x40D JUMPI PUSH0 PUSH0 REVERT JUMPDEST POP JUMP JUMPDEST PUSH0 DUP2 CALLDATALOAD SWAP1 POP PUSH2 0x41E DUP2 PUSH2 0x3FA JUMP JUMPDEST SWAP3 SWAP2 POP POP JUMP JUMPDEST PUSH0 PUSH0 PUSH0 PUSH0 PUSH0 PUSH1 0xA0 DUP7 DUP9 SUB SLT ISZERO PUSH2 0x43D JUMPI PUSH2 0x43C PUSH2 0x361 JUMP JUMPDEST JUMPDEST PUSH0 PUSH2 0x44A DUP9 DUP3 DUP10 ADD PUSH2 0x384 JUMP JUMPDEST SWAP6 POP POP PUSH1 0x20 PUSH2 0x45B DUP9 DUP3 DUP10 ADD PUSH2 0x384 JUMP JUMPDEST SWAP5 POP POP PUSH1 0x40 PUSH2 0x46C DUP9 DUP3 DUP10 ADD PUSH2 0x410 JUMP JUMPDEST SWAP4 POP POP PUSH1 0x60 PUSH2 0x47D DUP9 DUP3 DUP10 ADD PUSH2 0x410 JUMP JUMPDEST SWAP3 POP POP PUSH1 0x80 PUSH2 0x48E DUP9 DUP3 DUP10 ADD PUSH2 0x410 JUMP JUMPDEST SWAP2 POP POP SWAP3 SWAP6 POP SWAP3 SWAP6 SWAP1 SWAP4 POP JUMP JUMPDEST PUSH0 DUP3 DUP3 MSTORE PUSH1 0x20 DUP3 ADD SWAP1 POP SWAP3 SWAP2 POP POP JUMP JUMPDEST PUSH32 0x50726F76696465642068617368206E6F74207265636F7264656420696E206E6F PUSH0 DUP3 ADD MSTORE PUSH32 0x746172792E000000000000000000000000000000000000000000000000000000 PUSH1 0x20 DUP3 ADD MSTORE POP JUMP JUMPDEST PUSH0 PUSH2 0x505 PUSH1 0x25 DUP4 PUSH2 0x49B JUMP JUMPDEST SWAP2 POP PUSH2 0x510 DUP3 PUSH2 0x4AB JUMP JUMPDEST PUSH1 0x40 DUP3 ADD SWAP1 POP SWAP2 SWAP1 POP JUMP JUMPDEST PUSH0 PUSH1 0x20 DUP3 ADD SWAP1 POP DUP2 DUP2 SUB PUSH0 DUP4 ADD MSTORE PUSH2 0x532 DUP2 PUSH2 0x4F9 JUMP JUMPDEST SWAP1 POP SWAP2 SWAP1 POP JUMP JUMPDEST PUSH32 0x5472616E73616374696F6E2076616C756520646F6573206E6F74206D61746368 PUSH0 DUP3 ADD MSTORE PUSH32 0x2070726F76696465642067656E657369732066756E64696E672E000000000000 PUSH1 0x20 DUP3 ADD MSTORE POP JUMP JUMPDEST PUSH0 PUSH2 0x593 PUSH1 0x3A DUP4 PUSH2 0x49B JUMP JUMPDEST SWAP2 POP PUSH2 0x59E DUP3 PUSH2 0x539 JUMP JUMPDEST PUSH1 0x40 DUP3 ADD SWAP1 POP SWAP2 SWAP1 POP JUMP JUMPDEST PUSH0 PUSH1 0x20 DUP3 ADD SWAP1 POP DUP2 DUP2 SUB PUSH0 DUP4 ADD MSTORE PUSH2 0x5C0 DUP2 PUSH2 0x587 JUMP JUMPDEST SWAP1 POP SWAP2 SWAP1 POP JUMP JUMPDEST PUSH32 0x4E487B7100000000000000000000000000000000000000000000000000000000 PUSH0 MSTORE PUSH1 0x11 PUSH1 0x4 MSTORE PUSH1 0x24 PUSH0 REVERT JUMPDEST PUSH0 PUSH2 0x5FE DUP3 PUSH2 0x365 JUMP JUMPDEST SWAP2 POP PUSH2 0x609 DUP4 PUSH2 0x365 JUMP JUMPDEST SWAP3 POP DUP3 DUP3 SUB SWAP1 POP DUP2 DUP2 GT ISZERO PUSH2 0x621 JUMPI PUSH2 0x620 PUSH2 0x5C7 JUMP JUMPDEST JUMPDEST SWAP3 SWAP2 POP POP JUMP JUMPDEST PUSH32 0x4C656E677468206F6620636F6D6D69746D656E7420706572696F64206D757374 PUSH0 DUP3 ADD MSTORE PUSH32 0x206265206174206C65617374203130206D696E75746573000000000000000000 PUSH1 0x20 DUP3 ADD MSTORE POP JUMP JUMPDEST PUSH0 PUSH2 0x681 PUSH1 0x37 DUP4 PUSH2 0x49B JUMP JUMPDEST SWAP2 POP PUSH2 0x68C DUP3 PUSH2 0x627 JUMP JUMPDEST PUSH1 0x40 DUP3 ADD SWAP1 POP SWAP2 SWAP1 POP JUMP JUMPDEST PUSH0 PUSH1 0x20 DUP3 ADD SWAP1 POP DUP2 DUP2 SUB PUSH0 DUP4 ADD MSTORE PUSH2 0x6AE DUP2 PUSH2 0x675 JUMP JUMPDEST SWAP1 POP SWAP2 SWAP1 POP JUMP JUMPDEST PUSH0 PUSH2 0x6BF DUP3 PUSH2 0x3EB JUMP JUMPDEST SWAP2 POP PUSH2 0x6CA DUP4 PUSH2 0x3EB JUMP JUMPDEST SWAP3 POP DUP3 DUP3 SUB SWAP1 POP PUSH4 0xFFFFFFFF DUP2 GT ISZERO PUSH2 0x6E6 JUMPI PUSH2 0x6E5 PUSH2 0x5C7 JUMP JUMPDEST JUMPDEST SWAP3 SWAP2 POP POP JUMP JUMPDEST PUSH32 0x4E6F6E2D62616C6C6F74696E67207472616E73616374696F6E2063616E206E6F PUSH0 DUP3 ADD MSTORE PUSH32 0x7420686176652067656E657369732066756E64696E672E000000000000000000 PUSH1 0x20 DUP3 ADD MSTORE POP JUMP JUMPDEST PUSH0 PUSH2 0x746 PUSH1 0x37 DUP4 PUSH2 0x49B JUMP JUMPDEST SWAP2 POP PUSH2 0x751 DUP3 PUSH2 0x6EC JUMP JUMPDEST PUSH1 0x40 DUP3 ADD SWAP1 POP SWAP2 SWAP1 POP JUMP JUMPDEST PUSH0 PUSH1 0x20 DUP3 ADD SWAP1 POP DUP2 DUP2 SUB PUSH0 DUP4 ADD MSTORE PUSH2 0x773 DUP2 PUSH2 0x73A JUMP JUMPDEST SWAP1 POP SWAP2 SWAP1 POP JUMP JUMPDEST PUSH32 0x496D61676520616C7265616479206E6F746172697A65642E0000000000000000 PUSH0 DUP3 ADD MSTORE POP JUMP JUMPDEST PUSH0 PUSH2 0x7AE PUSH1 0x18 DUP4 PUSH2 0x49B JUMP JUMPDEST SWAP2 POP PUSH2 0x7B9 DUP3 PUSH2 0x77A JUMP JUMPDEST PUSH1 0x20 DUP3 ADD SWAP1 POP SWAP2 SWAP1 POP JUMP JUMPDEST PUSH0 PUSH1 0x20 DUP3 ADD SWAP1 POP DUP2 DUP2 SUB PUSH0 DUP4 ADD MSTORE PUSH2 0x7DB DUP2 PUSH2 0x7A2 JUMP JUMPDEST SWAP1 POP SWAP2 SWAP1 POP JUMP INVALID LOG2 PUSH5 0x6970667358 0x22 SLT KECCAK256 0xB2 0xFC DUP4 PUSH14 0x3595780C13810B39E0A7DF14FA53 JUMPF 0x2BEF SWAP10 DUP7 PUSH23 0x3484579251E568C964736F6C634300081E003300000000 "
				},
				"gasEstimates": {
					"creation": {
						"codeDepositCost": "414400",
						"executionCost": "447",
						"totalCost": "414847"
					},
					"external": {
						"retrieve_image(uint256)": "infinite",
						"store_image(uint256,uint256,uint32,uint32,uint32)": "infinite"
					}
				},
				"methodIdentifiers": {
					"retrieve_image(uint256)": "60d37bbf",
					"store_image(uint256,uint256,uint32,uint32,uint32)": "fc5e796b"
				}
			},
			"storageLayout": {
				"storage": [
					{
						"astId": 23,
						"contract": "Notary.sol:Notary",
						"label": "retrieval",
						"offset": 0,
						"slot": "0",
						"type": "t_mapping(t_uint256,t_struct(Image)10_storage)"
					}
				],
				"types": {
					"t_mapping(t_uint256,t_struct(Image)10_storage)": {
						"encoding": "mapping",
						"key": "t_uint256",
						"label": "mapping(uint256 => struct Notary.Image)",
						"numberOfBytes": "32",
						"value": "t_struct(Image)10_storage"
					},
					"t_struct(Image)10_storage": {
						"encoding": "inplace",
						"label": "struct Notary.Image",
						"members": [
							{
								"astId": 3,
								"contract": "Notary.sol:Notary",
								"label": "cid",
								"offset": 0,
								"slot": "0",
								"type": "t_uint256"
							},
							{
								"astId": 5,
								"contract": "Notary.sol:Notary",
								"label": "genesisFunding",
								"offset": 0,
								"slot": "1",
								"type": "t_uint32"
							},
							{
								"astId": 7,
								"contract": "Notary.sol:Notary",
								"label": "commitEnd",
								"offset": 4,
								"slot": "1",
								"type": "t_uint32"
							},
							{
								"astId": 9,
								"contract": "Notary.sol:Notary",
								"label": "revealEnd",
								"offset": 8,
								"slot": "1",
								"type": "t_uint32"
							}
						],
						"numberOfBytes": "64"
					},
					"t_uint256": {
						"encoding": "inplace",
						"label": "uint256",
						"numberOfBytes": "32"
					},
					"t_uint32": {
						"encoding": "inplace",
						"label": "uint32",
						"numberOfBytes": "4"
					}
				}
			},
			"userdoc": {
				"kind": "user",
				"methods": {},
				"version": 1
			}
		}
	}
}