{
	"Notary.sol": {
		"Oracle": {
			"abi": [
				{
					"inputs": [
						{
							"internalType": "uint256",
							"name": "_genesisFunding",
							"type": "uint256"
						},
						{
							"internalType": "uint256",
							"name": "_hash",
							"type": "uint256"
						},
						{
							"internalType": "uint32",
							"name": "_commitEnd",
							"type": "uint32"
						},
						{
							"internalType": "uint256",
							"name": "_revealEnd",
							"type": "uint256"
						}
					],
					"name": "add_ballot",
					"outputs": [],
					"stateMutability": "payable",
					"type": "function"
				}
			],
			"devdoc": {
				"kind": "dev",
				"methods": {},
				"version": 1
			},
			"evm": {
				"assembly": "    /* \"Notary.sol\":1443:2175  contract Oracle {... */\n  mstore(0x40, 0x80)\n  callvalue\n  dup1\n  iszero\n  tag_1\n  jumpi\n  revert(0x00, 0x00)\ntag_1:\n  pop\n  dataSize(sub_0)\n  dup1\n  dataOffset(sub_0)\n  0x00\n  codecopy\n  0x00\n  return\nstop\n\nsub_0: assembly {\n        /* \"Notary.sol\":1443:2175  contract Oracle {... */\n      mstore(0x40, 0x80)\n      jumpi(tag_1, lt(calldatasize, 0x04))\n      shr(0xe0, calldataload(0x00))\n      dup1\n      0x0d6b446d\n      eq\n      tag_2\n      jumpi\n    tag_1:\n      revert(0x00, 0x00)\n        /* \"Notary.sol\":1697:2173  function add_ballot(uint _genesisFunding, uint _hash, uint32 _commitEnd, uint _revealEnd) external payable {... */\n    tag_2:\n      tag_3\n      0x04\n      dup1\n      calldatasize\n      sub\n      dup2\n      add\n      swap1\n      tag_4\n      swap2\n      swap1\n      tag_5\n      jump\t// in\n    tag_4:\n      tag_6\n      jump\t// in\n    tag_3:\n      stop\n    tag_6:\n        /* \"Notary.sol\":1831:1832  0 */\n      0x00\n        /* \"Notary.sol\":1822:1827  _hash */\n      dup4\n        /* \"Notary.sol\":1822:1832  _hash != 0 */\n      sub\n        /* \"Notary.sol\":1814:1850  require(_hash != 0, \"Invalid hash.\") */\n      tag_8\n      jumpi\n      mload(0x40)\n      0x08c379a000000000000000000000000000000000000000000000000000000000\n      dup2\n      mstore\n      0x04\n      add\n      tag_9\n      swap1\n      tag_10\n      jump\t// in\n    tag_9:\n      mload(0x40)\n      dup1\n      swap2\n      sub\n      swap1\n      revert\n    tag_8:\n        /* \"Notary.sol\":1893:1898  false */\n      0x00\n        /* \"Notary.sol\":1868:1898  ballots[_hash].exists == false */\n      iszero\n      iszero\n        /* \"Notary.sol\":1868:1875  ballots */\n      0x00\n        /* \"Notary.sol\":1868:1882  ballots[_hash] */\n      0x00\n        /* \"Notary.sol\":1876:1881  _hash */\n      dup6\n        /* \"Notary.sol\":1868:1882  ballots[_hash] */\n      dup2\n      mstore\n      0x20\n      add\n      swap1\n      dup2\n      mstore\n      0x20\n      add\n      0x00\n      keccak256\n        /* \"Notary.sol\":1868:1889  ballots[_hash].exists */\n      0x02\n      add\n      0x08\n      swap1\n      sload\n      swap1\n      0x0100\n      exp\n      swap1\n      div\n      0xff\n      and\n        /* \"Notary.sol\":1868:1898  ballots[_hash].exists == false */\n      iszero\n      iszero\n      eq\n        /* \"Notary.sol\":1860:1930  require(ballots[_hash].exists == false, \"Balloting has already begun\") */\n      tag_11\n      jumpi\n      mload(0x40)\n      0x08c379a000000000000000000000000000000000000000000000000000000000\n      dup2\n      mstore\n      0x04\n      add\n      tag_12\n      swap1\n      tag_13\n      jump\t// in\n    tag_12:\n      mload(0x40)\n      dup1\n      swap2\n      sub\n      swap1\n      revert\n    tag_11:\n        /* \"Notary.sol\":1980:1990  10 minutes */\n      0x0258\n        /* \"Notary.sol\":1961:1976  block.timestamp */\n      timestamp\n        /* \"Notary.sol\":1948:1958  _commitEnd */\n      dup4\n        /* \"Notary.sol\":1948:1976  _commitEnd - block.timestamp */\n      0xffffffff\n      and\n      tag_14\n      swap2\n      swap1\n      tag_15\n      jump\t// in\n    tag_14:\n        /* \"Notary.sol\":1948:1990  _commitEnd - block.timestamp >= 10 minutes */\n      lt\n      iszero\n        /* \"Notary.sol\":1940:2050  require(_commitEnd - block.timestamp >= 10 minutes, \"Length of commitment period must be at least 10 minutes\") */\n      tag_16\n      jumpi\n      mload(0x40)\n      0x08c379a000000000000000000000000000000000000000000000000000000000\n      dup2\n      mstore\n      0x04\n      add\n      tag_17\n      swap1\n      tag_18\n      jump\t// in\n    tag_17:\n      mload(0x40)\n      dup1\n      swap2\n      sub\n      swap1\n      revert\n    tag_16:\n        /* \"Notary.sol\":2095:2105  10 minutes */\n      0x0258\n        /* \"Notary.sol\":2081:2091  _commitEnd */\n      dup3\n        /* \"Notary.sol\":2068:2091  _revealEnd - _commitEnd */\n      0xffffffff\n      and\n        /* \"Notary.sol\":2068:2078  _revealEnd */\n      dup3\n        /* \"Notary.sol\":2068:2091  _revealEnd - _commitEnd */\n      tag_19\n      swap2\n      swap1\n      tag_15\n      jump\t// in\n    tag_19:\n        /* \"Notary.sol\":2068:2105  _revealEnd - _commitEnd >= 10 minutes */\n      lt\n      iszero\n        /* \"Notary.sol\":2060:2165  require(_revealEnd - _commitEnd >= 10 minutes, \"Length of commitment period must be at least 10 minutes\") */\n      tag_20\n      jumpi\n      mload(0x40)\n      0x08c379a000000000000000000000000000000000000000000000000000000000\n      dup2\n      mstore\n      0x04\n      add\n      tag_21\n      swap1\n      tag_18\n      jump\t// in\n    tag_21:\n      mload(0x40)\n      dup1\n      swap2\n      sub\n      swap1\n      revert\n    tag_20:\n        /* \"Notary.sol\":1697:2173  function add_ballot(uint _genesisFunding, uint _hash, uint32 _commitEnd, uint _revealEnd) external payable {... */\n      pop\n      pop\n      pop\n      pop\n      jump\t// out\n        /* \"#utility.yul\":88:205   */\n    tag_23:\n        /* \"#utility.yul\":197:198   */\n      0x00\n        /* \"#utility.yul\":194:195   */\n      0x00\n        /* \"#utility.yul\":187:199   */\n      revert\n        /* \"#utility.yul\":334:411   */\n    tag_25:\n        /* \"#utility.yul\":371:378   */\n      0x00\n        /* \"#utility.yul\":400:405   */\n      dup2\n        /* \"#utility.yul\":389:405   */\n      swap1\n      pop\n        /* \"#utility.yul\":334:411   */\n      swap2\n      swap1\n      pop\n      jump\t// out\n        /* \"#utility.yul\":417:539   */\n    tag_26:\n        /* \"#utility.yul\":490:514   */\n      tag_45\n        /* \"#utility.yul\":508:513   */\n      dup2\n        /* \"#utility.yul\":490:514   */\n      tag_25\n      jump\t// in\n    tag_45:\n        /* \"#utility.yul\":483:488   */\n      dup2\n        /* \"#utility.yul\":480:515   */\n      eq\n        /* \"#utility.yul\":470:533   */\n      tag_46\n      jumpi\n        /* \"#utility.yul\":529:530   */\n      0x00\n        /* \"#utility.yul\":526:527   */\n      0x00\n        /* \"#utility.yul\":519:531   */\n      revert\n        /* \"#utility.yul\":470:533   */\n    tag_46:\n        /* \"#utility.yul\":417:539   */\n      pop\n      jump\t// out\n        /* \"#utility.yul\":545:684   */\n    tag_27:\n        /* \"#utility.yul\":591:596   */\n      0x00\n        /* \"#utility.yul\":629:635   */\n      dup2\n        /* \"#utility.yul\":616:636   */\n      calldataload\n        /* \"#utility.yul\":607:636   */\n      swap1\n      pop\n        /* \"#utility.yul\":645:678   */\n      tag_48\n        /* \"#utility.yul\":672:677   */\n      dup2\n        /* \"#utility.yul\":645:678   */\n      tag_26\n      jump\t// in\n    tag_48:\n        /* \"#utility.yul\":545:684   */\n      swap3\n      swap2\n      pop\n      pop\n      jump\t// out\n        /* \"#utility.yul\":690:783   */\n    tag_28:\n        /* \"#utility.yul\":726:733   */\n      0x00\n        /* \"#utility.yul\":766:776   */\n      0xffffffff\n        /* \"#utility.yul\":759:764   */\n      dup3\n        /* \"#utility.yul\":755:777   */\n      and\n        /* \"#utility.yul\":744:777   */\n      swap1\n      pop\n        /* \"#utility.yul\":690:783   */\n      swap2\n      swap1\n      pop\n      jump\t// out\n        /* \"#utility.yul\":789:909   */\n    tag_29:\n        /* \"#utility.yul\":861:884   */\n      tag_51\n        /* \"#utility.yul\":878:883   */\n      dup2\n        /* \"#utility.yul\":861:884   */\n      tag_28\n      jump\t// in\n    tag_51:\n        /* \"#utility.yul\":854:859   */\n      dup2\n        /* \"#utility.yul\":851:885   */\n      eq\n        /* \"#utility.yul\":841:903   */\n      tag_52\n      jumpi\n        /* \"#utility.yul\":899:900   */\n      0x00\n        /* \"#utility.yul\":896:897   */\n      0x00\n        /* \"#utility.yul\":889:901   */\n      revert\n        /* \"#utility.yul\":841:903   */\n    tag_52:\n        /* \"#utility.yul\":789:909   */\n      pop\n      jump\t// out\n        /* \"#utility.yul\":915:1052   */\n    tag_30:\n        /* \"#utility.yul\":960:965   */\n      0x00\n        /* \"#utility.yul\":998:1004   */\n      dup2\n        /* \"#utility.yul\":985:1005   */\n      calldataload\n        /* \"#utility.yul\":976:1005   */\n      swap1\n      pop\n        /* \"#utility.yul\":1014:1046   */\n      tag_54\n        /* \"#utility.yul\":1040:1045   */\n      dup2\n        /* \"#utility.yul\":1014:1046   */\n      tag_29\n      jump\t// in\n    tag_54:\n        /* \"#utility.yul\":915:1052   */\n      swap3\n      swap2\n      pop\n      pop\n      jump\t// out\n        /* \"#utility.yul\":1058:1821   */\n    tag_5:\n        /* \"#utility.yul\":1143:1149   */\n      0x00\n        /* \"#utility.yul\":1151:1157   */\n      0x00\n        /* \"#utility.yul\":1159:1165   */\n      0x00\n        /* \"#utility.yul\":1167:1173   */\n      0x00\n        /* \"#utility.yul\":1216:1219   */\n      0x80\n        /* \"#utility.yul\":1204:1213   */\n      dup6\n        /* \"#utility.yul\":1195:1202   */\n      dup8\n        /* \"#utility.yul\":1191:1214   */\n      sub\n        /* \"#utility.yul\":1187:1220   */\n      slt\n        /* \"#utility.yul\":1184:1304   */\n      iszero\n      tag_56\n      jumpi\n        /* \"#utility.yul\":1223:1302   */\n      tag_57\n      tag_23\n      jump\t// in\n    tag_57:\n        /* \"#utility.yul\":1184:1304   */\n    tag_56:\n        /* \"#utility.yul\":1343:1344   */\n      0x00\n        /* \"#utility.yul\":1368:1421   */\n      tag_58\n        /* \"#utility.yul\":1413:1420   */\n      dup8\n        /* \"#utility.yul\":1404:1410   */\n      dup3\n        /* \"#utility.yul\":1393:1402   */\n      dup9\n        /* \"#utility.yul\":1389:1411   */\n      add\n        /* \"#utility.yul\":1368:1421   */\n      tag_27\n      jump\t// in\n    tag_58:\n        /* \"#utility.yul\":1358:1421   */\n      swap5\n      pop\n        /* \"#utility.yul\":1314:1431   */\n      pop\n        /* \"#utility.yul\":1470:1472   */\n      0x20\n        /* \"#utility.yul\":1496:1549   */\n      tag_59\n        /* \"#utility.yul\":1541:1548   */\n      dup8\n        /* \"#utility.yul\":1532:1538   */\n      dup3\n        /* \"#utility.yul\":1521:1530   */\n      dup9\n        /* \"#utility.yul\":1517:1539   */\n      add\n        /* \"#utility.yul\":1496:1549   */\n      tag_27\n      jump\t// in\n    tag_59:\n        /* \"#utility.yul\":1486:1549   */\n      swap4\n      pop\n        /* \"#utility.yul\":1441:1559   */\n      pop\n        /* \"#utility.yul\":1598:1600   */\n      0x40\n        /* \"#utility.yul\":1624:1676   */\n      tag_60\n        /* \"#utility.yul\":1668:1675   */\n      dup8\n        /* \"#utility.yul\":1659:1665   */\n      dup3\n        /* \"#utility.yul\":1648:1657   */\n      dup9\n        /* \"#utility.yul\":1644:1666   */\n      add\n        /* \"#utility.yul\":1624:1676   */\n      tag_30\n      jump\t// in\n    tag_60:\n        /* \"#utility.yul\":1614:1676   */\n      swap3\n      pop\n        /* \"#utility.yul\":1569:1686   */\n      pop\n        /* \"#utility.yul\":1725:1727   */\n      0x60\n        /* \"#utility.yul\":1751:1804   */\n      tag_61\n        /* \"#utility.yul\":1796:1803   */\n      dup8\n        /* \"#utility.yul\":1787:1793   */\n      dup3\n        /* \"#utility.yul\":1776:1785   */\n      dup9\n        /* \"#utility.yul\":1772:1794   */\n      add\n        /* \"#utility.yul\":1751:1804   */\n      tag_27\n      jump\t// in\n    tag_61:\n        /* \"#utility.yul\":1741:1804   */\n      swap2\n      pop\n        /* \"#utility.yul\":1696:1814   */\n      pop\n        /* \"#utility.yul\":1058:1821   */\n      swap3\n      swap6\n      swap2\n      swap5\n      pop\n      swap3\n      pop\n      jump\t// out\n        /* \"#utility.yul\":1827:1996   */\n    tag_31:\n        /* \"#utility.yul\":1911:1922   */\n      0x00\n        /* \"#utility.yul\":1945:1951   */\n      dup3\n        /* \"#utility.yul\":1940:1943   */\n      dup3\n        /* \"#utility.yul\":1933:1952   */\n      mstore\n        /* \"#utility.yul\":1985:1989   */\n      0x20\n        /* \"#utility.yul\":1980:1983   */\n      dup3\n        /* \"#utility.yul\":1976:1990   */\n      add\n        /* \"#utility.yul\":1961:1990   */\n      swap1\n      pop\n        /* \"#utility.yul\":1827:1996   */\n      swap3\n      swap2\n      pop\n      pop\n      jump\t// out\n        /* \"#utility.yul\":2002:2165   */\n    tag_32:\n        /* \"#utility.yul\":2142:2157   */\n      0x496e76616c696420686173682e00000000000000000000000000000000000000\n        /* \"#utility.yul\":2138:2139   */\n      0x00\n        /* \"#utility.yul\":2130:2136   */\n      dup3\n        /* \"#utility.yul\":2126:2140   */\n      add\n        /* \"#utility.yul\":2119:2158   */\n      mstore\n        /* \"#utility.yul\":2002:2165   */\n      pop\n      jump\t// out\n        /* \"#utility.yul\":2171:2537   */\n    tag_33:\n        /* \"#utility.yul\":2313:2316   */\n      0x00\n        /* \"#utility.yul\":2334:2401   */\n      tag_65\n        /* \"#utility.yul\":2398:2400   */\n      0x0d\n        /* \"#utility.yul\":2393:2396   */\n      dup4\n        /* \"#utility.yul\":2334:2401   */\n      tag_31\n      jump\t// in\n    tag_65:\n        /* \"#utility.yul\":2327:2401   */\n      swap2\n      pop\n        /* \"#utility.yul\":2410:2503   */\n      tag_66\n        /* \"#utility.yul\":2499:2502   */\n      dup3\n        /* \"#utility.yul\":2410:2503   */\n      tag_32\n      jump\t// in\n    tag_66:\n        /* \"#utility.yul\":2528:2530   */\n      0x20\n        /* \"#utility.yul\":2523:2526   */\n      dup3\n        /* \"#utility.yul\":2519:2531   */\n      add\n        /* \"#utility.yul\":2512:2531   */\n      swap1\n      pop\n        /* \"#utility.yul\":2171:2537   */\n      swap2\n      swap1\n      pop\n      jump\t// out\n        /* \"#utility.yul\":2543:2962   */\n    tag_10:\n        /* \"#utility.yul\":2709:2713   */\n      0x00\n        /* \"#utility.yul\":2747:2749   */\n      0x20\n        /* \"#utility.yul\":2736:2745   */\n      dup3\n        /* \"#utility.yul\":2732:2750   */\n      add\n        /* \"#utility.yul\":2724:2750   */\n      swap1\n      pop\n        /* \"#utility.yul\":2796:2805   */\n      dup2\n        /* \"#utility.yul\":2790:2794   */\n      dup2\n        /* \"#utility.yul\":2786:2806   */\n      sub\n        /* \"#utility.yul\":2782:2783   */\n      0x00\n        /* \"#utility.yul\":2771:2780   */\n      dup4\n        /* \"#utility.yul\":2767:2784   */\n      add\n        /* \"#utility.yul\":2760:2807   */\n      mstore\n        /* \"#utility.yul\":2824:2955   */\n      tag_68\n        /* \"#utility.yul\":2950:2954   */\n      dup2\n        /* \"#utility.yul\":2824:2955   */\n      tag_33\n      jump\t// in\n    tag_68:\n        /* \"#utility.yul\":2816:2955   */\n      swap1\n      pop\n        /* \"#utility.yul\":2543:2962   */\n      swap2\n      swap1\n      pop\n      jump\t// out\n        /* \"#utility.yul\":2968:3145   */\n    tag_34:\n        /* \"#utility.yul\":3108:3137   */\n      0x42616c6c6f74696e672068617320616c726561647920626567756e0000000000\n        /* \"#utility.yul\":3104:3105   */\n      0x00\n        /* \"#utility.yul\":3096:3102   */\n      dup3\n        /* \"#utility.yul\":3092:3106   */\n      add\n        /* \"#utility.yul\":3085:3138   */\n      mstore\n        /* \"#utility.yul\":2968:3145   */\n      pop\n      jump\t// out\n        /* \"#utility.yul\":3151:3517   */\n    tag_35:\n        /* \"#utility.yul\":3293:3296   */\n      0x00\n        /* \"#utility.yul\":3314:3381   */\n      tag_71\n        /* \"#utility.yul\":3378:3380   */\n      0x1b\n        /* \"#utility.yul\":3373:3376   */\n      dup4\n        /* \"#utility.yul\":3314:3381   */\n      tag_31\n      jump\t// in\n    tag_71:\n        /* \"#utility.yul\":3307:3381   */\n      swap2\n      pop\n        /* \"#utility.yul\":3390:3483   */\n      tag_72\n        /* \"#utility.yul\":3479:3482   */\n      dup3\n        /* \"#utility.yul\":3390:3483   */\n      tag_34\n      jump\t// in\n    tag_72:\n        /* \"#utility.yul\":3508:3510   */\n      0x20\n        /* \"#utility.yul\":3503:3506   */\n      dup3\n        /* \"#utility.yul\":3499:3511   */\n      add\n        /* \"#utility.yul\":3492:3511   */\n      swap1\n      pop\n        /* \"#utility.yul\":3151:3517   */\n      swap2\n      swap1\n      pop\n      jump\t// out\n        /* \"#utility.yul\":3523:3942   */\n    tag_13:\n        /* \"#utility.yul\":3689:3693   */\n      0x00\n        /* \"#utility.yul\":3727:3729   */\n      0x20\n        /* \"#utility.yul\":3716:3725   */\n      dup3\n        /* \"#utility.yul\":3712:3730   */\n      add\n        /* \"#utility.yul\":3704:3730   */\n      swap1\n      pop\n        /* \"#utility.yul\":3776:3785   */\n      dup2\n        /* \"#utility.yul\":3770:3774   */\n      dup2\n        /* \"#utility.yul\":3766:3786   */\n      sub\n        /* \"#utility.yul\":3762:3763   */\n      0x00\n        /* \"#utility.yul\":3751:3760   */\n      dup4\n        /* \"#utility.yul\":3747:3764   */\n      add\n        /* \"#utility.yul\":3740:3787   */\n      mstore\n        /* \"#utility.yul\":3804:3935   */\n      tag_74\n        /* \"#utility.yul\":3930:3934   */\n      dup2\n        /* \"#utility.yul\":3804:3935   */\n      tag_35\n      jump\t// in\n    tag_74:\n        /* \"#utility.yul\":3796:3935   */\n      swap1\n      pop\n        /* \"#utility.yul\":3523:3942   */\n      swap2\n      swap1\n      pop\n      jump\t// out\n        /* \"#utility.yul\":3948:4128   */\n    tag_36:\n        /* \"#utility.yul\":3996:4073   */\n      0x4e487b7100000000000000000000000000000000000000000000000000000000\n        /* \"#utility.yul\":3993:3994   */\n      0x00\n        /* \"#utility.yul\":3986:4074   */\n      mstore\n        /* \"#utility.yul\":4093:4097   */\n      0x11\n        /* \"#utility.yul\":4090:4091   */\n      0x04\n        /* \"#utility.yul\":4083:4098   */\n      mstore\n        /* \"#utility.yul\":4117:4121   */\n      0x24\n        /* \"#utility.yul\":4114:4115   */\n      0x00\n        /* \"#utility.yul\":4107:4122   */\n      revert\n        /* \"#utility.yul\":4134:4328   */\n    tag_15:\n        /* \"#utility.yul\":4174:4178   */\n      0x00\n        /* \"#utility.yul\":4194:4214   */\n      tag_77\n        /* \"#utility.yul\":4212:4213   */\n      dup3\n        /* \"#utility.yul\":4194:4214   */\n      tag_25\n      jump\t// in\n    tag_77:\n        /* \"#utility.yul\":4189:4214   */\n      swap2\n      pop\n        /* \"#utility.yul\":4228:4248   */\n      tag_78\n        /* \"#utility.yul\":4246:4247   */\n      dup4\n        /* \"#utility.yul\":4228:4248   */\n      tag_25\n      jump\t// in\n    tag_78:\n        /* \"#utility.yul\":4223:4248   */\n      swap3\n      pop\n        /* \"#utility.yul\":4272:4273   */\n      dup3\n        /* \"#utility.yul\":4269:4270   */\n      dup3\n        /* \"#utility.yul\":4265:4274   */\n      sub\n        /* \"#utility.yul\":4257:4274   */\n      swap1\n      pop\n        /* \"#utility.yul\":4296:4297   */\n      dup2\n        /* \"#utility.yul\":4290:4294   */\n      dup2\n        /* \"#utility.yul\":4287:4298   */\n      gt\n        /* \"#utility.yul\":4284:4321   */\n      iszero\n      tag_79\n      jumpi\n        /* \"#utility.yul\":4301:4319   */\n      tag_80\n      tag_36\n      jump\t// in\n    tag_80:\n        /* \"#utility.yul\":4284:4321   */\n    tag_79:\n        /* \"#utility.yul\":4134:4328   */\n      swap3\n      swap2\n      pop\n      pop\n      jump\t// out\n        /* \"#utility.yul\":4334:4576   */\n    tag_37:\n        /* \"#utility.yul\":4474:4508   */\n      0x4c656e677468206f6620636f6d6d69746d656e7420706572696f64206d757374\n        /* \"#utility.yul\":4470:4471   */\n      0x00\n        /* \"#utility.yul\":4462:4468   */\n      dup3\n        /* \"#utility.yul\":4458:4472   */\n      add\n        /* \"#utility.yul\":4451:4509   */\n      mstore\n        /* \"#utility.yul\":4543:4568   */\n      0x206265206174206c65617374203130206d696e75746573000000000000000000\n        /* \"#utility.yul\":4538:4540   */\n      0x20\n        /* \"#utility.yul\":4530:4536   */\n      dup3\n        /* \"#utility.yul\":4526:4541   */\n      add\n        /* \"#utility.yul\":4519:4569   */\n      mstore\n        /* \"#utility.yul\":4334:4576   */\n      pop\n      jump\t// out\n        /* \"#utility.yul\":4582:4948   */\n    tag_38:\n        /* \"#utility.yul\":4724:4727   */\n      0x00\n        /* \"#utility.yul\":4745:4812   */\n      tag_83\n        /* \"#utility.yul\":4809:4811   */\n      0x37\n        /* \"#utility.yul\":4804:4807   */\n      dup4\n        /* \"#utility.yul\":4745:4812   */\n      tag_31\n      jump\t// in\n    tag_83:\n        /* \"#utility.yul\":4738:4812   */\n      swap2\n      pop\n        /* \"#utility.yul\":4821:4914   */\n      tag_84\n        /* \"#utility.yul\":4910:4913   */\n      dup3\n        /* \"#utility.yul\":4821:4914   */\n      tag_37\n      jump\t// in\n    tag_84:\n        /* \"#utility.yul\":4939:4941   */\n      0x40\n        /* \"#utility.yul\":4934:4937   */\n      dup3\n        /* \"#utility.yul\":4930:4942   */\n      add\n        /* \"#utility.yul\":4923:4942   */\n      swap1\n      pop\n        /* \"#utility.yul\":4582:4948   */\n      swap2\n      swap1\n      pop\n      jump\t// out\n        /* \"#utility.yul\":4954:5373   */\n    tag_18:\n        /* \"#utility.yul\":5120:5124   */\n      0x00\n        /* \"#utility.yul\":5158:5160   */\n      0x20\n        /* \"#utility.yul\":5147:5156   */\n      dup3\n        /* \"#utility.yul\":5143:5161   */\n      add\n        /* \"#utility.yul\":5135:5161   */\n      swap1\n      pop\n        /* \"#utility.yul\":5207:5216   */\n      dup2\n        /* \"#utility.yul\":5201:5205   */\n      dup2\n        /* \"#utility.yul\":5197:5217   */\n      sub\n        /* \"#utility.yul\":5193:5194   */\n      0x00\n        /* \"#utility.yul\":5182:5191   */\n      dup4\n        /* \"#utility.yul\":5178:5195   */\n      add\n        /* \"#utility.yul\":5171:5218   */\n      mstore\n        /* \"#utility.yul\":5235:5366   */\n      tag_86\n        /* \"#utility.yul\":5361:5365   */\n      dup2\n        /* \"#utility.yul\":5235:5366   */\n      tag_38\n      jump\t// in\n    tag_86:\n        /* \"#utility.yul\":5227:5366   */\n      swap1\n      pop\n        /* \"#utility.yul\":4954:5373   */\n      swap2\n      swap1\n      pop\n      jump\t// out\n\n    auxdata: 0xa264697066735822122036017a87fec39e2a2214d060f895ff021691cbd484f78a3bc9f0e3f65be95cf564736f6c634300081e0033\n}\n",
				"bytecode": {
					"linkReferences": {},
					"object": "6080604052348015600e575f5ffd5b5061046f8061001c5f395ff3fe60806040526004361061001d575f3560e01c80630d6b446d14610021575b5f5ffd5b61003b60048036038101906100369190610207565b61003d565b005b5f830361007f576040517f08c379a0000000000000000000000000000000000000000000000000000000008152600401610076906102c5565b60405180910390fd5b5f15155f5f8581526020019081526020015f2060020160089054906101000a900460ff161515146100e5576040517f08c379a00000000000000000000000000000000000000000000000000000000081526004016100dc9061032d565b60405180910390fd5b610258428363ffffffff166100fa9190610378565b101561013b576040517f08c379a00000000000000000000000000000000000000000000000000000000081526004016101329061041b565b60405180910390fd5b6102588263ffffffff16826101509190610378565b1015610191576040517f08c379a00000000000000000000000000000000000000000000000000000000081526004016101889061041b565b60405180910390fd5b50505050565b5f5ffd5b5f819050919050565b6101ad8161019b565b81146101b7575f5ffd5b50565b5f813590506101c8816101a4565b92915050565b5f63ffffffff82169050919050565b6101e6816101ce565b81146101f0575f5ffd5b50565b5f81359050610201816101dd565b92915050565b5f5f5f5f6080858703121561021f5761021e610197565b5b5f61022c878288016101ba565b945050602061023d878288016101ba565b935050604061024e878288016101f3565b925050606061025f878288016101ba565b91505092959194509250565b5f82825260208201905092915050565b7f496e76616c696420686173682e000000000000000000000000000000000000005f82015250565b5f6102af600d8361026b565b91506102ba8261027b565b602082019050919050565b5f6020820190508181035f8301526102dc816102a3565b9050919050565b7f42616c6c6f74696e672068617320616c726561647920626567756e00000000005f82015250565b5f610317601b8361026b565b9150610322826102e3565b602082019050919050565b5f6020820190508181035f8301526103448161030b565b9050919050565b7f4e487b71000000000000000000000000000000000000000000000000000000005f52601160045260245ffd5b5f6103828261019b565b915061038d8361019b565b92508282039050818111156103a5576103a461034b565b5b92915050565b7f4c656e677468206f6620636f6d6d69746d656e7420706572696f64206d7573745f8201527f206265206174206c65617374203130206d696e75746573000000000000000000602082015250565b5f61040560378361026b565b9150610410826103ab565b604082019050919050565b5f6020820190508181035f830152610432816103f9565b905091905056fea264697066735822122036017a87fec39e2a2214d060f895ff021691cbd484f78a3bc9f0e3f65be95cf564736f6c634300081e0033",
					"opcodes": "PUSH1 0x80 PUSH1 0x40 MSTORE CALLVALUE DUP1 ISZERO PUSH1 0xE JUMPI PUSH0 PUSH0 REVERT JUMPDEST POP PUSH2 0x46F DUP1 PUSH2 0x1C PUSH0 CODECOPY PUSH0 RETURN INVALID PUSH1 0x80 PUSH1 0x40 MSTORE PUSH1 0x4 CALLDATASIZE LT PUSH2 0x1D JUMPI PUSH0 CALLDATALOAD PUSH1 0xE0 SHR DUP1 PUSH4 0xD6B446D EQ PUSH2 0x21 JUMPI JUMPDEST PUSH0 PUSH0 REVERT JUMPDEST PUSH2 0x3B PUSH1 0x4 DUP1 CALLDATASIZE SUB DUP2 ADD SWAP1 PUSH2 0x36 SWAP2 SWAP1 PUSH2 0x207 JUMP JUMPDEST PUSH2 0x3D JUMP JUMPDEST STOP JUMPDEST PUSH0 DUP4 SUB PUSH2 0x7F JUMPI PUSH1 0x40 MLOAD PUSH32 0x8C379A000000000000000000000000000000000000000000000000000000000 DUP2 MSTORE PUSH1 0x4 ADD PUSH2 0x76 SWAP1 PUSH2 0x2C5 JUMP JUMPDEST PUSH1 0x40 MLOAD DUP1 SWAP2 SUB SWAP1 REVERT JUMPDEST PUSH0 ISZERO ISZERO PUSH0 PUSH0 DUP6 DUP2 MSTORE PUSH1 0x20 ADD SWAP1 DUP2 MSTORE PUSH1 0x20 ADD PUSH0 KECCAK256 PUSH1 0x2 ADD PUSH1 0x8 SWAP1 SLOAD SWAP1 PUSH2 0x100 EXP SWAP1 DIV PUSH1 0xFF AND ISZERO ISZERO EQ PUSH2 0xE5 JUMPI PUSH1 0x40 MLOAD PUSH32 0x8C379A000000000000000000000000000000000000000000000000000000000 DUP2 MSTORE PUSH1 0x4 ADD PUSH2 0xDC SWAP1 PUSH2 0x32D JUMP JUMPDEST PUSH1 0x40 MLOAD DUP1 SWAP2 SUB SWAP1 REVERT JUMPDEST PUSH2 0x258 TIMESTAMP DUP4 PUSH4 0xFFFFFFFF AND PUSH2 0xFA SWAP2 SWAP1 PUSH2 0x378 JUMP JUMPDEST LT ISZERO PUSH2 0x13B JUMPI PUSH1 0x40 MLOAD PUSH32 0x8C379A000000000000000000000000000000000000000000000000000000000 DUP2 MSTORE PUSH1 0x4 ADD PUSH2 0x132 SWAP1 PUSH2 0x41B JUMP JUMPDEST PUSH1 0x40 MLOAD DUP1 SWAP2 SUB SWAP1 REVERT JUMPDEST PUSH2 0x258 DUP3 PUSH4 0xFFFFFFFF AND DUP3 PUSH2 0x150 SWAP2 SWAP1 PUSH2 0x378 JUMP JUMPDEST LT ISZERO PUSH2 0x191 JUMPI PUSH1 0x40 MLOAD PUSH32 0x8C379A000000000000000000000000000000000000000000000000000000000 DUP2 MSTORE PUSH1 0x4 ADD PUSH2 0x188 SWAP1 PUSH2 0x41B JUMP JUMPDEST PUSH1 0x40 MLOAD DUP1 SWAP2 SUB SWAP1 REVERT JUMPDEST POP POP POP POP JUMP JUMPDEST PUSH0 PUSH0 REVERT JUMPDEST PUSH0 DUP2 SWAP1 POP SWAP2 SWAP1 POP JUMP JUMPDEST PUSH2 0x1AD DUP2 PUSH2 0x19B JUMP JUMPDEST DUP2 EQ PUSH2 0x1B7 JUMPI PUSH0 PUSH0 REVERT JUMPDEST POP JUMP JUMPDEST PUSH0 DUP2 CALLDATALOAD SWAP1 POP PUSH2 0x1C8 DUP2 PUSH2 0x1A4 JUMP JUMPDEST SWAP3 SWAP2 POP POP JUMP JUMPDEST PUSH0 PUSH4 0xFFFFFFFF DUP3 AND SWAP1 POP SWAP2 SWAP1 POP JUMP JUMPDEST PUSH2 0x1E6 DUP2 PUSH2 0x1CE JUMP JUMPDEST DUP2 EQ PUSH2 0x1F0 JUMPI PUSH0 PUSH0 REVERT JUMPDEST POP JUMP JUMPDEST PUSH0 DUP2 CALLDATALOAD SWAP1 POP PUSH2 0x201 DUP2 PUSH2 0x1DD JUMP JUMPDEST SWAP3 SWAP2 POP POP JUMP JUMPDEST PUSH0 PUSH0 PUSH0 PUSH0 PUSH1 0x80 DUP6 DUP8 SUB SLT ISZERO PUSH2 0x21F JUMPI PUSH2 0x21E PUSH2 0x197 JUMP JUMPDEST JUMPDEST PUSH0 PUSH2 0x22C DUP8 DUP3 DUP9 ADD PUSH2 0x1BA JUMP JUMPDEST SWAP5 POP POP PUSH1 0x20 PUSH2 0x23D DUP8 DUP3 DUP9 ADD PUSH2 0x1BA JUMP JUMPDEST SWAP4 POP POP PUSH1 0x40 PUSH2 0x24E DUP8 DUP3 DUP9 ADD PUSH2 0x1F3 JUMP JUMPDEST SWAP3 POP POP PUSH1 0x60 PUSH2 0x25F DUP8 DUP3 DUP9 ADD PUSH2 0x1BA JUMP JUMPDEST SWAP2 POP POP SWAP3 SWAP6 SWAP2 SWAP5 POP SWAP3 POP JUMP JUMPDEST PUSH0 DUP3 DUP3 MSTORE PUSH1 0x20 DUP3 ADD SWAP1 POP SWAP3 SWAP2 POP POP JUMP JUMPDEST PUSH32 0x496E76616C696420686173682E00000000000000000000000000000000000000 PUSH0 DUP3 ADD MSTORE POP JUMP JUMPDEST PUSH0 PUSH2 0x2AF PUSH1 0xD DUP4 PUSH2 0x26B JUMP JUMPDEST SWAP2 POP PUSH2 0x2BA DUP3 PUSH2 0x27B JUMP JUMPDEST PUSH1 0x20 DUP3 ADD SWAP1 POP SWAP2 SWAP1 POP JUMP JUMPDEST PUSH0 PUSH1 0x20 DUP3 ADD SWAP1 POP DUP2 DUP2 SUB PUSH0 DUP4 ADD MSTORE PUSH2 0x2DC DUP2 PUSH2 0x2A3 JUMP JUMPDEST SWAP1 POP SWAP2 SWAP1 POP JUMP JUMPDEST PUSH32 0x42616C6C6F74696E672068617320616C726561647920626567756E0000000000 PUSH0 DUP3 ADD MSTORE POP JUMP JUMPDEST PUSH0 PUSH2 0x317 PUSH1 0x1B DUP4 PUSH2 0x26B JUMP JUMPDEST SWAP2 POP PUSH2 0x322 DUP3 PUSH2 0x2E3 JUMP JUMPDEST PUSH1 0x20 DUP3 ADD SWAP1 POP SWAP2 SWAP1 POP JUMP JUMPDEST PUSH0 PUSH1 0x20 DUP3 ADD SWAP1 POP DUP2 DUP2 SUB PUSH0 DUP4 ADD MSTORE PUSH2 0x344 DUP2 PUSH2 0x30B JUMP JUMPDEST SWAP1 POP SWAP2 SWAP1 POP JUMP JUMPDEST PUSH32 0x4E487B7100000000000000000000000000000000000000000000000000000000 PUSH0 MSTORE PUSH1 0x11 PUSH1 0x4 MSTORE PUSH1 0x24 PUSH0 REVERT JUMPDEST PUSH0 PUSH2 0x382 DUP3 PUSH2 0x19B JUMP JUMPDEST SWAP2 POP PUSH2 0x38D DUP4 PUSH2 0x19B JUMP JUMPDEST SWAP3 POP DUP3 DUP3 SUB SWAP1 POP DUP2 DUP2 GT ISZERO PUSH2 0x3A5 JUMPI PUSH2 0x3A4 PUSH2 0x34B JUMP JUMPDEST JUMPDEST SWAP3 SWAP2 POP POP JUMP JUMPDEST PUSH32 0x4C656E677468206F6620636F6D6D69746D656E7420706572696F64206D757374 PUSH0 DUP3 ADD MSTORE PUSH32 0x206265206174206C65617374203130206D696E75746573000000000000000000 PUSH1 0x20 DUP3 ADD MSTORE POP JUMP JUMPDEST PUSH0 PUSH2 0x405 PUSH1 0x37 DUP4 PUSH2 0x26B JUMP JUMPDEST SWAP2 POP PUSH2 0x410 DUP3 PUSH2 0x3AB JUMP JUMPDEST PUSH1 0x40 DUP3 ADD SWAP1 POP SWAP2 SWAP1 POP JUMP JUMPDEST PUSH0 PUSH1 0x20 DUP3 ADD SWAP1 POP DUP2 DUP2 SUB PUSH0 DUP4 ADD MSTORE PUSH2 0x432 DUP2 PUSH2 0x3F9 JUMP JUMPDEST SWAP1 POP SWAP2 SWAP1 POP JUMP INVALID LOG2 PUSH5 0x6970667358 0x22 SLT KECCAK256 CALLDATASIZE ADD PUSH27 0x87FEC39E2A2214D060F895FF021691CBD484F78A3BC9F0E3F65BE9 TLOAD CREATE2 PUSH5 0x736F6C6343 STOP ADDMOD 0x1E STOP CALLER "
				},
				"gasEstimates": {
					"creation": {
						"codeDepositCost": "227000",
						"executionCost": "267",
						"totalCost": "227267"
					},
					"external": {
						"add_ballot(uint256,uint256,uint32,uint256)": "infinite"
					}
				},
				"methodIdentifiers": {
					"add_ballot(uint256,uint256,uint32,uint256)": "0d6b446d"
				}
			},
			"storageLayout": {
				"storage": [
					{
						"astId": 139,
						"contract": "Notary.sol:Oracle",
						"label": "ballots",
						"offset": 0,
						"slot": "0",
						"type": "t_mapping(t_uint256,t_struct(AuthenticityBallot)134_storage)"
					}
				],
				"types": {
					"t_bool": {
						"encoding": "inplace",
						"label": "bool",
						"numberOfBytes": "1"
					},
					"t_mapping(t_uint256,t_struct(AuthenticityBallot)134_storage)": {
						"encoding": "mapping",
						"key": "t_uint256",
						"label": "mapping(uint256 => struct Oracle.AuthenticityBallot)",
						"numberOfBytes": "32",
						"value": "t_struct(AuthenticityBallot)134_storage"
					},
					"t_struct(AuthenticityBallot)134_storage": {
						"encoding": "inplace",
						"label": "struct Oracle.AuthenticityBallot",
						"members": [
							{
								"astId": 125,
								"contract": "Notary.sol:Oracle",
								"label": "authenticityRating",
								"offset": 0,
								"slot": "0",
								"type": "t_uint16"
							},
							{
								"astId": 127,
								"contract": "Notary.sol:Oracle",
								"label": "genesisFunding",
								"offset": 0,
								"slot": "1",
								"type": "t_uint256"
							},
							{
								"astId": 129,
								"contract": "Notary.sol:Oracle",
								"label": "commitEnd",
								"offset": 0,
								"slot": "2",
								"type": "t_uint32"
							},
							{
								"astId": 131,
								"contract": "Notary.sol:Oracle",
								"label": "revealEnd",
								"offset": 4,
								"slot": "2",
								"type": "t_uint32"
							},
							{
								"astId": 133,
								"contract": "Notary.sol:Oracle",
								"label": "exists",
								"offset": 8,
								"slot": "2",
								"type": "t_bool"
							}
						],
						"numberOfBytes": "96"
					},
					"t_uint16": {
						"encoding": "inplace",
						"label": "uint16",
						"numberOfBytes": "2"
					},
					"t_uint256": {
						"encoding": "inplace",
						"label": "uint256",
						"numberOfBytes": "32"
					},
					"t_uint32": {
						"encoding": "inplace",
						"label": "uint32",
						"numberOfBytes": "4"
					}
				}
			},
			"userdoc": {
				"kind": "user",
				"methods": {},
				"version": 1
			}
		}
	}
}