{
	"data": {
		"bytecode": {
			"linkReferences": {},
			"object": "6080604052348015600e575f5ffd5b5030604051601a906040565b602291906088565b604051809103905ff080158015603a573d5f5f3e3d5ffd5b5050609f565b6127ed806108ae83390190565b5f73ffffffffffffffffffffffffffffffffffffffff82169050919050565b5f607482604d565b9050919050565b608281606c565b82525050565b5f60208201905060995f830184607b565b92915050565b610802806100ac5f395ff3fe608060405260043610610028575f3560e01c806360d37bbf1461002c578063fc5e796b14610068575b5f5ffd5b348015610037575f5ffd5b50610052600480360381019061004d9190610382565b610084565b60405161005f91906103bc565b60405180910390f35b610082600480360381019061007d919061040e565b6100f3565b005b5f5f5f5f8481526020019081526020015f205f0154036100d9576040517f08c379a00000000000000000000000000000000000000000000000000000000081526004016100d090610505565b60405180910390fd5b5f5f8381526020019081526020015f205f01549050919050565b5f8263ffffffff1611156101fa578263ffffffff163414610149576040517f08c379a000000000000000000000000000000000000000000000000000000000815260040161014090610593565b60405180910390fd5b610258428363ffffffff1661015e91906105de565b101561019f576040517f08c379a000000000000000000000000000000000000000000000000000000000815260040161019690610681565b60405180910390fd5b61025882826101ae919061069f565b63ffffffff1610156101f5576040517f08c379a00000000000000000000000000000000000000000000000000000000081526004016101ec90610681565b60405180910390fd5b610244565b5f8363ffffffff161115610243576040517f08c379a000000000000000000000000000000000000000000000000000000000815260040161023a90610746565b60405180910390fd5b5b5f5f5f8781526020019081526020015f205f015414610298576040517f08c379a000000000000000000000000000000000000000000000000000000000815260040161028f906107ae565b60405180910390fd5b835f5f8781526020019081526020015f205f0181905550825f5f8781526020019081526020015f206001015f6101000a81548163ffffffff021916908363ffffffff160217905550815f5f8781526020019081526020015f2060010160046101000a81548163ffffffff021916908363ffffffff160217905550805f5f8781526020019081526020015f2060010160086101000a81548163ffffffff021916908363ffffffff1602179055505050505050565b5f5ffd5b5f819050919050565b6103618161034f565b811461036b575f5ffd5b50565b5f8135905061037c81610358565b92915050565b5f602082840312156103975761039661034b565b5b5f6103a48482850161036e565b91505092915050565b6103b68161034f565b82525050565b5f6020820190506103cf5f8301846103ad565b92915050565b5f63ffffffff82169050919050565b6103ed816103d5565b81146103f7575f5ffd5b50565b5f81359050610408816103e4565b92915050565b5f5f5f5f5f60a086880312156104275761042661034b565b5b5f6104348882890161036e565b95505060206104458882890161036e565b9450506040610456888289016103fa565b9350506060610467888289016103fa565b9250506080610478888289016103fa565b9150509295509295909350565b5f82825260208201905092915050565b7f50726f76696465642068617368206e6f74207265636f7264656420696e206e6f5f8201527f746172792e000000000000000000000000000000000000000000000000000000602082015250565b5f6104ef602583610485565b91506104fa82610495565b604082019050919050565b5f6020820190508181035f83015261051c816104e3565b9050919050565b7f5472616e73616374696f6e2076616c756520646f6573206e6f74206d617463685f8201527f2070726f76696465642067656e657369732066756e64696e672e000000000000602082015250565b5f61057d603a83610485565b915061058882610523565b604082019050919050565b5f6020820190508181035f8301526105aa81610571565b9050919050565b7f4e487b71000000000000000000000000000000000000000000000000000000005f52601160045260245ffd5b5f6105e88261034f565b91506105f38361034f565b925082820390508181111561060b5761060a6105b1565b5b92915050565b7f4c656e677468206f6620636f6d6d69746d656e7420706572696f64206d7573745f8201527f206265206174206c65617374203130206d696e75746573000000000000000000602082015250565b5f61066b603783610485565b915061067682610611565b604082019050919050565b5f6020820190508181035f8301526106988161065f565b9050919050565b5f6106a9826103d5565b91506106b4836103d5565b9250828203905063ffffffff8111156106d0576106cf6105b1565b5b92915050565b7f4e6f6e2d62616c6c6f74696e67207472616e73616374696f6e2063616e206e6f5f8201527f7420686176652067656e657369732066756e64696e672e000000000000000000602082015250565b5f610730603783610485565b915061073b826106d6565b604082019050919050565b5f6020820190508181035f83015261075d81610724565b9050919050565b7f496d61676520616c7265616479206e6f746172697a65642e00000000000000005f82015250565b5f610798601883610485565b91506107a382610764565b602082019050919050565b5f6020820190508181035f8301526107c58161078c565b905091905056fea264697066735822122036fca94a29787e92f2275c3d415822b58e8eb0a94b641e3d2c6f07a9af34676964736f6c634300081e0033608060405234801561000f575f5ffd5b506040516127ed3803806127ed83398181016040528101906100319190610151565b805f5f6101000a81548173ffffffffffffffffffffffffffffffffffffffff021916908373ffffffffffffffffffffffffffffffffffffffff1602179055503060405161007d906100e6565b610087919061018b565b604051809103905ff0801580156100a0573d5f5f3e3d5ffd5b5060015f6101000a81548173ffffffffffffffffffffffffffffffffffffffff021916908373ffffffffffffffffffffffffffffffffffffffff160217905550506101a4565b61070d806120e083390190565b5f5ffd5b5f73ffffffffffffffffffffffffffffffffffffffff82169050919050565b5f610120826100f7565b9050919050565b61013081610116565b811461013a575f5ffd5b50565b5f8151905061014b81610127565b92915050565b5f60208284031215610166576101656100f3565b5b5f6101738482850161013d565b91505092915050565b61018581610116565b82525050565b5f60208201905061019e5f83018461017c565b92915050565b611f2f806101b15f395ff3fe608060405260043610610054575f3560e01c80630af49750146100585780631dc1a9d9146100945780631f84d71a146100bc578063220900a6146100d85780632e1a7d4d14610100578063779069ab14610128575b5f5ffd5b348015610063575f5ffd5b5061007e600480360381019061007991906110c5565b610150565b60405161008b919061110e565b60405180910390f35b34801561009f575f5ffd5b506100ba60048036038101906100b5919061115a565b610174565b005b6100d660048036038101906100d191906111c2565b61027f565b005b3480156100e3575f5ffd5b506100fe60048036038101906100f99190611226565b610544565b005b34801561010b575f5ffd5b506101266004803603810190610121919061129d565b610b04565b005b348015610133575f5ffd5b5061014e6004803603810190610149919061129d565b610d8e565b005b5f5f8260030b121561016b5781610166906112f5565b61016d565b815b9050919050565b60025f8281526020019081526020015f2060060160049054906101000a900460ff166101d5576040517f08c379a00000000000000000000000000000000000000000000000000000000081526004016101cc90611395565b60405180910390fd5b60025f8281526020019081526020015f206002015f9054906101000a900463ffffffff1663ffffffff164210610240576040517f08c379a0000000000000000000000000000000000000000000000000000000008152600401610237906113fd565b60405180910390fd5b600160025f8381526020019081526020015f206003015f8481526020019081526020015f205f6101000a81548160ff0219169083151502179055505050565b5f5f9054906101000a900473ffffffffffffffffffffffffffffffffffffffff1673ffffffffffffffffffffffffffffffffffffffff163373ffffffffffffffffffffffffffffffffffffffff161461030d576040517f08c379a00000000000000000000000000000000000000000000000000000000081526004016103049061148b565b60405180910390fd5b5f830361034f576040517f08c379a0000000000000000000000000000000000000000000000000000000008152600401610346906114f3565b60405180910390fd5b5f151560025f8581526020019081526020015f2060060160049054906101000a900460ff161515146103b6576040517f08c379a00000000000000000000000000000000000000000000000000000000081526004016103ad9061155b565b60405180910390fd5b610258428363ffffffff166103cb9190611579565b101561040c576040517f08c379a00000000000000000000000000000000000000000000000000000000081526004016104039061161c565b60405180910390fd5b610258828261041b919061163a565b63ffffffff161015610462576040517f08c379a00000000000000000000000000000000000000000000000000000000081526004016104599061161c565b60405180910390fd5b5f60025f8581526020019081526020015f205f015f6101000a81548163ffffffff021916908363ffffffff1602179055508360025f8581526020019081526020015f20600101819055508160025f8581526020019081526020015f206002015f6101000a81548163ffffffff021916908363ffffffff1602179055508060025f8581526020019081526020015f2060020160046101000a81548163ffffffff021916908363ffffffff160217905550600160025f8581526020019081526020015f2060060160046101000a81548160ff02191690831515021790555050505050565b60025f8681526020019081526020015f2060060160049054906101000a900460ff166105a5576040517f08c379a000000000000000000000000000000000000000000000000000000000815260040161059c90611395565b60405180910390fd5b60025f8681526020019081526020015f206003015f8581526020019081526020015f205f9054906101000a900460ff16610614576040517f08c379a000000000000000000000000000000000000000000000000000000000815260040161060b906116bb565b60405180910390fd5b60025f8681526020019081526020015f206002015f9054906101000a900463ffffffff1663ffffffff16421161067f576040517f08c379a000000000000000000000000000000000000000000000000000000000815260040161067690611723565b60405180910390fd5b60025f8681526020019081526020015f2060020160049054906101000a900463ffffffff1663ffffffff1642106106eb576040517f08c379a00000000000000000000000000000000000000000000000000000000081526004016106e29061178b565b60405180910390fd5b835f1b600282848663ffffffff1661070391906117a9565b61070d91906117a9565b60405160200161071d91906117fc565b6040516020818303038152906040526040516107399190611868565b602060405180830381855afa158015610754573d5f5f3e3d5ffd5b5050506040513d601f19601f8201168201806040525081019061077791906118b1565b146107b7576040517f08c379a00000000000000000000000000000000000000000000000000000000081526004016107ae9061194c565b60405180910390fd5b8160015f9054906101000a900473ffffffffffffffffffffffffffffffffffffffff1673ffffffffffffffffffffffffffffffffffffffff16635b407a28836040518263ffffffff1660e01b81526004016108129190611979565b602060405180830381865afa15801561082d573d5f5f3e3d5ffd5b505050506040513d601f19601f8201168201806040525081019061085191906119a6565b1015610892576040517f08c379a000000000000000000000000000000000000000000000000000000000815260040161088990611a41565b60405180910390fd5b60015f9054906101000a900473ffffffffffffffffffffffffffffffffffffffff1673ffffffffffffffffffffffffffffffffffffffff1663ab6539a782336040518363ffffffff1660e01b81526004016108ee929190611a9e565b602060405180830381865afa158015610909573d5f5f3e3d5ffd5b505050506040513d601f19601f8201168201806040525081019061092d9190611afa565b61096c576040517f08c379a000000000000000000000000000000000000000000000000000000000815260040161096390611b95565b60405180910390fd5b5f60025f8781526020019081526020015f205f015f9054906101000a900463ffffffff1690505f60025f8881526020019081526020015f206006015f9054906101000a900463ffffffff16905080856109c59190611be0565b816109cf90611c10565b915081826109dd9190611be0565b836109e89190611c3b565b6109f29190611c77565b60025f8981526020019081526020015f205f015f6101000a81548163ffffffff021916908363ffffffff1602179055508060025f8981526020019081526020015f206006015f6101000a81548163ffffffff021916908363ffffffff1602179055505f60025f8981526020019081526020015f206004015f3373ffffffffffffffffffffffffffffffffffffffff1673ffffffffffffffffffffffffffffffffffffffff1681526020019081526020015f20905084816001018190555085815f015f6101000a81548163ffffffff021916908363ffffffff1602179055508460025f8a81526020019081526020015f206001015f828254610af391906117a9565b925050819055505050505050505050565b60025f8281526020019081526020015f2060060160049054906101000a900460ff16610b65576040517f08c379a0000000000000000000000000000000000000000000000000000000008152600401610b5c90611395565b60405180910390fd5b5f60025f8381526020019081526020015f206004015f3373ffffffffffffffffffffffffffffffffffffffff1673ffffffffffffffffffffffffffffffffffffffff1681526020019081526020015f206001015411610bf9576040517f08c379a0000000000000000000000000000000000000000000000000000000008152600401610bf090611cf8565b60405180910390fd5b6201518060025f8381526020019081526020015f2060020160049054906101000a900463ffffffff16610c2c9190611c77565b63ffffffff164211610c73576040517f08c379a0000000000000000000000000000000000000000000000000000000008152600401610c6a90611d60565b60405180910390fd5b60015f9054906101000a900473ffffffffffffffffffffffffffffffffffffffff1673ffffffffffffffffffffffffffffffffffffffff1662f714ce60025f8481526020019081526020015f206001015460025f8581526020019081526020015f206005015460025f8681526020019081526020015f206004015f3373ffffffffffffffffffffffffffffffffffffffff1673ffffffffffffffffffffffffffffffffffffffff1681526020019081526020015f2060020154610d369190611d7e565b610d409190611dae565b336040518363ffffffff1660e01b8152600401610d5e929190611e0f565b5f604051808303815f87803b158015610d75575f5ffd5b505af1158015610d87573d5f5f3e3d5ffd5b5050505050565b60025f8281526020019081526020015f2060060160049054906101000a900460ff16610def576040517f08c379a0000000000000000000000000000000000000000000000000000000008152600401610de690611395565b60405180910390fd5b5f60025f8381526020019081526020015f206004015f3373ffffffffffffffffffffffffffffffffffffffff1673ffffffffffffffffffffffffffffffffffffffff1681526020019081526020015f206001015411610e83576040517f08c379a0000000000000000000000000000000000000000000000000000000008152600401610e7a90611cf8565b60405180910390fd5b60025f8281526020019081526020015f2060020160049054906101000a900463ffffffff1663ffffffff164211610eef576040517f08c379a0000000000000000000000000000000000000000000000000000000008152600401610ee690611e80565b60405180910390fd5b5f60025f8381526020019081526020015f205f015f9054906101000a900463ffffffff1690505f60025f8481526020019081526020015f206004015f3373ffffffffffffffffffffffffffffffffffffffff1673ffffffffffffffffffffffffffffffffffffffff1681526020019081526020015f205f015f9054906101000a900463ffffffff1690505f60025f8581526020019081526020015f206004015f3373ffffffffffffffffffffffffffffffffffffffff1673ffffffffffffffffffffffffffffffffffffffff1681526020019081526020015f206001015490505f81610fe58486610fe09190611e9e565b610150565b6001610ff19190611be0565b63ffffffff166110019190611dae565b90508060025f8781526020019081526020015f206004015f3373ffffffffffffffffffffffffffffffffffffffff1673ffffffffffffffffffffffffffffffffffffffff1681526020019081526020015f20600201819055508060025f8781526020019081526020015f206005015f82825461107d91906117a9565b925050819055505050505050565b5f5ffd5b5f8160030b9050919050565b6110a48161108f565b81146110ae575f5ffd5b50565b5f813590506110bf8161109b565b92915050565b5f602082840312156110da576110d961108b565b5b5f6110e7848285016110b1565b91505092915050565b5f63ffffffff82169050919050565b611108816110f0565b82525050565b5f6020820190506111215f8301846110ff565b92915050565b5f819050919050565b61113981611127565b8114611143575f5ffd5b50565b5f8135905061115481611130565b92915050565b5f5f604083850312156111705761116f61108b565b5b5f61117d85828601611146565b925050602061118e85828601611146565b9150509250929050565b6111a1816110f0565b81146111ab575f5ffd5b50565b5f813590506111bc81611198565b92915050565b5f5f5f5f608085870312156111da576111d961108b565b5b5f6111e787828801611146565b94505060206111f887828801611146565b9350506040611209878288016111ae565b925050606061121a878288016111ae565b91505092959194509250565b5f5f5f5f5f60a0868803121561123f5761123e61108b565b5b5f61124c88828901611146565b955050602061125d88828901611146565b945050604061126e888289016111ae565b935050606061127f88828901611146565b925050608061129088828901611146565b9150509295509295909350565b5f602082840312156112b2576112b161108b565b5b5f6112bf84828501611146565b91505092915050565b7f4e487b71000000000000000000000000000000000000000000000000000000005f52601160045260245ffd5b5f6112ff8261108f565b91507fffffffffffffffffffffffffffffffffffffffffffffffffffffffff800000008203611331576113306112c8565b5b815f039050919050565b5f82825260208201905092915050565b7f42616c6c6f7420646f6573206e6f7420657869737400000000000000000000005f82015250565b5f61137f60158361133b565b915061138a8261134b565b602082019050919050565b5f6020820190508181035f8301526113ac81611373565b9050919050565b7f436f6d6d69746d656e7420706572696f642068617320656e6465642e000000005f82015250565b5f6113e7601c8361133b565b91506113f2826113b3565b602082019050919050565b5f6020820190508181035f830152611414816113db565b9050919050565b7f4f6e6c7920746865206e6f7461727920636f6e74726163742063616e206164645f8201527f20612062616c6c6f742e00000000000000000000000000000000000000000000602082015250565b5f611475602a8361133b565b91506114808261141b565b604082019050919050565b5f6020820190508181035f8301526114a281611469565b9050919050565b7f496e76616c696420686173682e000000000000000000000000000000000000005f82015250565b5f6114dd600d8361133b565b91506114e8826114a9565b602082019050919050565b5f6020820190508181035f83015261150a816114d1565b9050919050565b7f42616c6c6f74696e672068617320616c726561647920626567756e2e000000005f82015250565b5f611545601c8361133b565b915061155082611511565b602082019050919050565b5f6020820190508181035f83015261157281611539565b9050919050565b5f61158382611127565b915061158e83611127565b92508282039050818111156115a6576115a56112c8565b5b92915050565b7f4c656e677468206f6620636f6d6d69746d656e7420706572696f64206d7573745f8201527f206265206174206c65617374203130206d696e757465732e0000000000000000602082015250565b5f61160660388361133b565b9150611611826115ac565b604082019050919050565b5f6020820190508181035f830152611633816115fa565b9050919050565b5f611644826110f0565b915061164f836110f0565b9250828203905063ffffffff81111561166b5761166a6112c8565b5b92915050565b7f566f746520646f6573206e6f74206578697374000000000000000000000000005f82015250565b5f6116a560138361133b565b91506116b082611671565b602082019050919050565b5f6020820190508181035f8301526116d281611699565b9050919050565b7f436f6d6d69746d656e7420706572696f6420686173206e6f7420656e6465642e5f82015250565b5f61170d60208361133b565b9150611718826116d9565b602082019050919050565b5f6020820190508181035f83015261173a81611701565b9050919050565b7f52657665616c20706572696f642068617320656e6465642e00000000000000005f82015250565b5f61177560188361133b565b915061178082611741565b602082019050919050565b5f6020820190508181035f8301526117a281611769565b9050919050565b5f6117b382611127565b91506117be83611127565b92508282019050808211156117d6576117d56112c8565b5b92915050565b5f819050919050565b6117f66117f182611127565b6117dc565b82525050565b5f61180782846117e5565b60208201915081905092915050565b5f81519050919050565b5f81905092915050565b8281835e5f83830152505050565b5f61184282611816565b61184c8185611820565b935061185c81856020860161182a565b80840191505092915050565b5f6118738284611838565b915081905092915050565b5f819050919050565b6118908161187e565b811461189a575f5ffd5b50565b5f815190506118ab81611887565b92915050565b5f602082840312156118c6576118c561108b565b5b5f6118d38482850161189d565b91505092915050565b7f52657665616c6564206461746120646f6573206e6f74206861736820746f20635f8201527f6f6d6d69746d656e742e00000000000000000000000000000000000000000000602082015250565b5f611936602a8361133b565b9150611941826118dc565b604082019050919050565b5f6020820190508181035f8301526119638161192a565b9050919050565b61197381611127565b82525050565b5f60208201905061198c5f83018461196a565b92915050565b5f815190506119a081611130565b92915050565b5f602082840312156119bb576119ba61108b565b5b5f6119c884828501611992565b91505092915050565b7f536563757269747920726563656970742062616c616e636520746f6f206c6f775f8201527f2e00000000000000000000000000000000000000000000000000000000000000602082015250565b5f611a2b60218361133b565b9150611a36826119d1565b604082019050919050565b5f6020820190508181035f830152611a5881611a1f565b9050919050565b5f73ffffffffffffffffffffffffffffffffffffffff82169050919050565b5f611a8882611a5f565b9050919050565b611a9881611a7e565b82525050565b5f604082019050611ab15f83018561196a565b611abe6020830184611a8f565b9392505050565b5f8115159050919050565b611ad981611ac5565b8114611ae3575f5ffd5b50565b5f81519050611af481611ad0565b92915050565b5f60208284031215611b0f57611b0e61108b565b5b5f611b1c84828501611ae6565b91505092915050565b7f52657665616c6572206973206e6f742076616c6964207370656e646572206f665f8201527f20736563757269747920726563656970742e0000000000000000000000000000602082015250565b5f611b7f60328361133b565b9150611b8a82611b25565b604082019050919050565b5f6020820190508181035f830152611bac81611b73565b9050919050565b7f4e487b71000000000000000000000000000000000000000000000000000000005f52601260045260245ffd5b5f611bea826110f0565b9150611bf5836110f0565b925082611c0557611c04611bb3565b5b828204905092915050565b5f611c1a826110f0565b915063ffffffff8203611c3057611c2f6112c8565b5b600182019050919050565b5f611c45826110f0565b9150611c50836110f0565b9250828202611c5e816110f0565b9150808214611c7057611c6f6112c8565b5b5092915050565b5f611c81826110f0565b9150611c8c836110f0565b9250828201905063ffffffff811115611ca857611ca76112c8565b5b92915050565b7f53656e646572277320766f746520646f6573206e6f74206578697374000000005f82015250565b5f611ce2601c8361133b565b9150611ced82611cae565b602082019050919050565b5f6020820190508181035f830152611d0f81611cd6565b9050919050565b7f53656375726520706572696f6420686173206e6f7420656e6465642e000000005f82015250565b5f611d4a601c8361133b565b9150611d5582611d16565b602082019050919050565b5f6020820190508181035f830152611d7781611d3e565b9050919050565b5f611d8882611127565b9150611d9383611127565b925082611da357611da2611bb3565b5b828204905092915050565b5f611db882611127565b9150611dc383611127565b9250828202611dd181611127565b91508282048414831517611de857611de76112c8565b5b5092915050565b5f611df982611a5f565b9050919050565b611e0981611def565b82525050565b5f604082019050611e225f83018561196a565b611e2f6020830184611e00565b9392505050565b7f52657665616c20706572696f6420686173206e6f7420656e6465642e000000005f82015250565b5f611e6a601c8361133b565b9150611e7582611e36565b602082019050919050565b5f6020820190508181035f830152611e9781611e5e565b9050919050565b5f611ea88261108f565b9150611eb38361108f565b92508282039050637fffffff81137fffffffffffffffffffffffffffffffffffffffffffffffffffffffff8000000082121715611ef357611ef26112c8565b5b9291505056fea2646970667358221220344c8268d552bb7f550682f1e3efbfb14d07265fd39a0f154740a28603a79a6964736f6c634300081e0033608060405234801561000f575f5ffd5b5060405161070d38038061070d833981810160405281019061003191906100d4565b805f5f6101000a81548173ffffffffffffffffffffffffffffffffffffffff021916908373ffffffffffffffffffffffffffffffffffffffff160217905550506100ff565b5f5ffd5b5f73ffffffffffffffffffffffffffffffffffffffff82169050919050565b5f6100a38261007a565b9050919050565b6100b381610099565b81146100bd575f5ffd5b50565b5f815190506100ce816100aa565b92915050565b5f602082840312156100e9576100e8610076565b5b5f6100f6848285016100c0565b91505092915050565b6106018061010c5f395ff3fe60806040526004361061003d575f3560e01c8062f714ce146100415780635b407a2814610069578063ab6539a7146100a5578063b6b55f25146100e1575b5f5ffd5b34801561004c575f5ffd5b5061006760048036038101906100629190610390565b6100fd565b005b348015610074575f5ffd5b5061008f600480360381019061008a91906103ce565b6101d3565b60405161009c9190610408565b60405180910390f35b3480156100b0575f5ffd5b506100cb60048036038101906100c6919061045c565b6101ed565b6040516100d891906104b4565b60405180910390f35b6100fb60048036038101906100f691906103ce565b610255565b005b5f5f9054906101000a900473ffffffffffffffffffffffffffffffffffffffff1673ffffffffffffffffffffffffffffffffffffffff163373ffffffffffffffffffffffffffffffffffffffff161461018b576040517f08c379a00000000000000000000000000000000000000000000000000000000081526004016101829061054d565b60405180910390fd5b8073ffffffffffffffffffffffffffffffffffffffff166108fc8390811502906040515f60405180830381858888f193505050501580156101ce573d5f5f3e3d5ffd5b505050565b5f60025f8381526020019081526020015f20549050919050565b5f8173ffffffffffffffffffffffffffffffffffffffff1660035f8581526020019081526020015f205f9054906101000a900473ffffffffffffffffffffffffffffffffffffffff1673ffffffffffffffffffffffffffffffffffffffff1614905092915050565b3460015f8282546102669190610598565b925050819055505f60025f8381526020019081526020015f2054036102d5573360035f8381526020019081526020015f205f6101000a81548173ffffffffffffffffffffffffffffffffffffffff021916908373ffffffffffffffffffffffffffffffffffffffff1602179055505b3460025f8381526020019081526020015f205f8282546102f59190610598565b9250508190555050565b5f5ffd5b5f819050919050565b61031581610303565b811461031f575f5ffd5b50565b5f813590506103308161030c565b92915050565b5f73ffffffffffffffffffffffffffffffffffffffff82169050919050565b5f61035f82610336565b9050919050565b61036f81610355565b8114610379575f5ffd5b50565b5f8135905061038a81610366565b92915050565b5f5f604083850312156103a6576103a56102ff565b5b5f6103b385828601610322565b92505060206103c48582860161037c565b9150509250929050565b5f602082840312156103e3576103e26102ff565b5b5f6103f084828501610322565b91505092915050565b61040281610303565b82525050565b5f60208201905061041b5f8301846103f9565b92915050565b5f61042b82610336565b9050919050565b61043b81610421565b8114610445575f5ffd5b50565b5f8135905061045681610432565b92915050565b5f5f60408385031215610472576104716102ff565b5b5f61047f85828601610322565b925050602061049085828601610448565b9150509250929050565b5f8115159050919050565b6104ae8161049a565b82525050565b5f6020820190506104c75f8301846104a5565b92915050565b5f82825260208201905092915050565b7f4d6573736167652073656e646572206d757374206265206f7261636c6520636f5f8201527f6e74726163742e00000000000000000000000000000000000000000000000000602082015250565b5f6105376027836104cd565b9150610542826104dd565b604082019050919050565b5f6020820190508181035f8301526105648161052b565b9050919050565b7f4e487b71000000000000000000000000000000000000000000000000000000005f52601160045260245ffd5b5f6105a282610303565b91506105ad83610303565b92508282019050808211156105c5576105c461056b565b5b9291505056fea2646970667358221220fbd6a6e7125bae327fdd54dd8e2ea45a8bc701efa52935bd1c61f2284ed55c7764736f6c634300081e0033",
			"opcodes": "PUSH1 0x80 PUSH1 0x40 MSTORE CALLVALUE DUP1 ISZERO PUSH1 0xE JUMPI PUSH0 PUSH0 REVERT JUMPDEST POP ADDRESS PUSH1 0x40 MLOAD PUSH1 0x1A SWAP1 PUSH1 0x40 JUMP JUMPDEST PUSH1 0x22 SWAP2 SWAP1 PUSH1 0x88 JUMP JUMPDEST PUSH1 0x40 MLOAD DUP1 SWAP2 SUB SWAP1 PUSH0 CREATE DUP1 ISZERO DUP1 ISZERO PUSH1 0x3A JUMPI RETURNDATASIZE PUSH0 PUSH0 RETURNDATACOPY RETURNDATASIZE PUSH0 REVERT JUMPDEST POP POP PUSH1 0x9F JUMP JUMPDEST PUSH2 0x27ED DUP1 PUSH2 0x8AE DUP4 CODECOPY ADD SWAP1 JUMP JUMPDEST PUSH0 PUSH20 0xFFFFFFFFFFFFFFFFFFFFFFFFFFFFFFFFFFFFFFFF DUP3 AND SWAP1 POP SWAP2 SWAP1 POP JUMP JUMPDEST PUSH0 PUSH1 0x74 DUP3 PUSH1 0x4D JUMP JUMPDEST SWAP1 POP SWAP2 SWAP1 POP JUMP JUMPDEST PUSH1 0x82 DUP2 PUSH1 0x6C JUMP JUMPDEST DUP3 MSTORE POP POP JUMP JUMPDEST PUSH0 PUSH1 0x20 DUP3 ADD SWAP1 POP PUSH1 0x99 PUSH0 DUP4 ADD DUP5 PUSH1 0x7B JUMP JUMPDEST SWAP3 SWAP2 POP POP JUMP JUMPDEST PUSH2 0x802 DUP1 PUSH2 0xAC PUSH0 CODECOPY PUSH0 RETURN INVALID PUSH1 0x80 PUSH1 0x40 MSTORE PUSH1 0x4 CALLDATASIZE LT PUSH2 0x28 JUMPI PUSH0 CALLDATALOAD PUSH1 0xE0 SHR DUP1 PUSH4 0x60D37BBF EQ PUSH2 0x2C JUMPI DUP1 PUSH4 0xFC5E796B EQ PUSH2 0x68 JUMPI JUMPDEST PUSH0 PUSH0 REVERT JUMPDEST CALLVALUE DUP1 ISZERO PUSH2 0x37 JUMPI PUSH0 PUSH0 REVERT JUMPDEST POP PUSH2 0x52 PUSH1 0x4 DUP1 CALLDATASIZE SUB DUP2 ADD SWAP1 PUSH2 0x4D SWAP2 SWAP1 PUSH2 0x382 JUMP JUMPDEST PUSH2 0x84 JUMP JUMPDEST PUSH1 0x40 MLOAD PUSH2 0x5F SWAP2 SWAP1 PUSH2 0x3BC JUMP JUMPDEST PUSH1 0x40 MLOAD DUP1 SWAP2 SUB SWAP1 RETURN JUMPDEST PUSH2 0x82 PUSH1 0x4 DUP1 CALLDATASIZE SUB DUP2 ADD SWAP1 PUSH2 0x7D SWAP2 SWAP1 PUSH2 0x40E JUMP JUMPDEST PUSH2 0xF3 JUMP JUMPDEST STOP JUMPDEST PUSH0 PUSH0 PUSH0 PUSH0 DUP5 DUP2 MSTORE PUSH1 0x20 ADD SWAP1 DUP2 MSTORE PUSH1 0x20 ADD PUSH0 KECCAK256 PUSH0 ADD SLOAD SUB PUSH2 0xD9 JUMPI PUSH1 0x40 MLOAD PUSH32 0x8C379A000000000000000000000000000000000000000000000000000000000 DUP2 MSTORE PUSH1 0x4 ADD PUSH2 0xD0 SWAP1 PUSH2 0x505 JUMP JUMPDEST PUSH1 0x40 MLOAD DUP1 SWAP2 SUB SWAP1 REVERT JUMPDEST PUSH0 PUSH0 DUP4 DUP2 MSTORE PUSH1 0x20 ADD SWAP1 DUP2 MSTORE PUSH1 0x20 ADD PUSH0 KECCAK256 PUSH0 ADD SLOAD SWAP1 POP SWAP2 SWAP1 POP JUMP JUMPDEST PUSH0 DUP3 PUSH4 0xFFFFFFFF AND GT ISZERO PUSH2 0x1FA JUMPI DUP3 PUSH4 0xFFFFFFFF AND CALLVALUE EQ PUSH2 0x149 JUMPI PUSH1 0x40 MLOAD PUSH32 0x8C379A000000000000000000000000000000000000000000000000000000000 DUP2 MSTORE PUSH1 0x4 ADD PUSH2 0x140 SWAP1 PUSH2 0x593 JUMP JUMPDEST PUSH1 0x40 MLOAD DUP1 SWAP2 SUB SWAP1 REVERT JUMPDEST PUSH2 0x258 TIMESTAMP DUP4 PUSH4 0xFFFFFFFF AND PUSH2 0x15E SWAP2 SWAP1 PUSH2 0x5DE JUMP JUMPDEST LT ISZERO PUSH2 0x19F JUMPI PUSH1 0x40 MLOAD PUSH32 0x8C379A000000000000000000000000000000000000000000000000000000000 DUP2 MSTORE PUSH1 0x4 ADD PUSH2 0x196 SWAP1 PUSH2 0x681 JUMP JUMPDEST PUSH1 0x40 MLOAD DUP1 SWAP2 SUB SWAP1 REVERT JUMPDEST PUSH2 0x258 DUP3 DUP3 PUSH2 0x1AE SWAP2 SWAP1 PUSH2 0x69F JUMP JUMPDEST PUSH4 0xFFFFFFFF AND LT ISZERO PUSH2 0x1F5 JUMPI PUSH1 0x40 MLOAD PUSH32 0x8C379A000000000000000000000000000000000000000000000000000000000 DUP2 MSTORE PUSH1 0x4 ADD PUSH2 0x1EC SWAP1 PUSH2 0x681 JUMP JUMPDEST PUSH1 0x40 MLOAD DUP1 SWAP2 SUB SWAP1 REVERT JUMPDEST PUSH2 0x244 JUMP JUMPDEST PUSH0 DUP4 PUSH4 0xFFFFFFFF AND GT ISZERO PUSH2 0x243 JUMPI PUSH1 0x40 MLOAD PUSH32 0x8C379A000000000000000000000000000000000000000000000000000000000 DUP2 MSTORE PUSH1 0x4 ADD PUSH2 0x23A SWAP1 PUSH2 0x746 JUMP JUMPDEST PUSH1 0x40 MLOAD DUP1 SWAP2 SUB SWAP1 REVERT JUMPDEST JUMPDEST PUSH0 PUSH0 PUSH0 DUP8 DUP2 MSTORE PUSH1 0x20 ADD SWAP1 DUP2 MSTORE PUSH1 0x20 ADD PUSH0 KECCAK256 PUSH0 ADD SLOAD EQ PUSH2 0x298 JUMPI PUSH1 0x40 MLOAD PUSH32 0x8C379A000000000000000000000000000000000000000000000000000000000 DUP2 MSTORE PUSH1 0x4 ADD PUSH2 0x28F SWAP1 PUSH2 0x7AE JUMP JUMPDEST PUSH1 0x40 MLOAD DUP1 SWAP2 SUB SWAP1 REVERT JUMPDEST DUP4 PUSH0 PUSH0 DUP8 DUP2 MSTORE PUSH1 0x20 ADD SWAP1 DUP2 MSTORE PUSH1 0x20 ADD PUSH0 KECCAK256 PUSH0 ADD DUP2 SWAP1 SSTORE POP DUP3 PUSH0 PUSH0 DUP8 DUP2 MSTORE PUSH1 0x20 ADD SWAP1 DUP2 MSTORE PUSH1 0x20 ADD PUSH0 KECCAK256 PUSH1 0x1 ADD PUSH0 PUSH2 0x100 EXP DUP2 SLOAD DUP2 PUSH4 0xFFFFFFFF MUL NOT AND SWAP1 DUP4 PUSH4 0xFFFFFFFF AND MUL OR SWAP1 SSTORE POP DUP2 PUSH0 PUSH0 DUP8 DUP2 MSTORE PUSH1 0x20 ADD SWAP1 DUP2 MSTORE PUSH1 0x20 ADD PUSH0 KECCAK256 PUSH1 0x1 ADD PUSH1 0x4 PUSH2 0x100 EXP DUP2 SLOAD DUP2 PUSH4 0xFFFFFFFF MUL NOT AND SWAP1 DUP4 PUSH4 0xFFFFFFFF AND MUL OR SWAP1 SSTORE POP DUP1 PUSH0 PUSH0 DUP8 DUP2 MSTORE PUSH1 0x20 ADD SWAP1 DUP2 MSTORE PUSH1 0x20 ADD PUSH0 KECCAK256 PUSH1 0x1 ADD PUSH1 0x8 PUSH2 0x100 EXP DUP2 SLOAD DUP2 PUSH4 0xFFFFFFFF MUL NOT AND SWAP1 DUP4 PUSH4 0xFFFFFFFF AND MUL OR SWAP1 SSTORE POP POP POP POP POP POP JUMP JUMPDEST PUSH0 PUSH0 REVERT JUMPDEST PUSH0 DUP2 SWAP1 POP SWAP2 SWAP1 POP JUMP JUMPDEST PUSH2 0x361 DUP2 PUSH2 0x34F JUMP JUMPDEST DUP2 EQ PUSH2 0x36B JUMPI PUSH0 PUSH0 REVERT JUMPDEST POP JUMP JUMPDEST PUSH0 DUP2 CALLDATALOAD SWAP1 POP PUSH2 0x37C DUP2 PUSH2 0x358 JUMP JUMPDEST SWAP3 SWAP2 POP POP JUMP JUMPDEST PUSH0 PUSH1 0x20 DUP3 DUP5 SUB SLT ISZERO PUSH2 0x397 JUMPI PUSH2 0x396 PUSH2 0x34B JUMP JUMPDEST JUMPDEST PUSH0 PUSH2 0x3A4 DUP5 DUP3 DUP6 ADD PUSH2 0x36E JUMP JUMPDEST SWAP2 POP POP SWAP3 SWAP2 POP POP JUMP JUMPDEST PUSH2 0x3B6 DUP2 PUSH2 0x34F JUMP JUMPDEST DUP3 MSTORE POP POP JUMP JUMPDEST PUSH0 PUSH1 0x20 DUP3 ADD SWAP1 POP PUSH2 0x3CF PUSH0 DUP4 ADD DUP5 PUSH2 0x3AD JUMP JUMPDEST SWAP3 SWAP2 POP POP JUMP JUMPDEST PUSH0 PUSH4 0xFFFFFFFF DUP3 AND SWAP1 POP SWAP2 SWAP1 POP JUMP JUMPDEST PUSH2 0x3ED DUP2 PUSH2 0x3D5 JUMP JUMPDEST DUP2 EQ PUSH2 0x3F7 JUMPI PUSH0 PUSH0 REVERT JUMPDEST POP JUMP JUMPDEST PUSH0 DUP2 CALLDATALOAD SWAP1 POP PUSH2 0x408 DUP2 PUSH2 0x3E4 JUMP JUMPDEST SWAP3 SWAP2 POP POP JUMP JUMPDEST PUSH0 PUSH0 PUSH0 PUSH0 PUSH0 PUSH1 0xA0 DUP7 DUP9 SUB SLT ISZERO PUSH2 0x427 JUMPI PUSH2 0x426 PUSH2 0x34B JUMP JUMPDEST JUMPDEST PUSH0 PUSH2 0x434 DUP9 DUP3 DUP10 ADD PUSH2 0x36E JUMP JUMPDEST SWAP6 POP POP PUSH1 0x20 PUSH2 0x445 DUP9 DUP3 DUP10 ADD PUSH2 0x36E JUMP JUMPDEST SWAP5 POP POP PUSH1 0x40 PUSH2 0x456 DUP9 DUP3 DUP10 ADD PUSH2 0x3FA JUMP JUMPDEST SWAP4 POP POP PUSH1 0x60 PUSH2 0x467 DUP9 DUP3 DUP10 ADD PUSH2 0x3FA JUMP JUMPDEST SWAP3 POP POP PUSH1 0x80 PUSH2 0x478 DUP9 DUP3 DUP10 ADD PUSH2 0x3FA JUMP JUMPDEST SWAP2 POP POP SWAP3 SWAP6 POP SWAP3 SWAP6 SWAP1 SWAP4 POP JUMP JUMPDEST PUSH0 DUP3 DUP3 MSTORE PUSH1 0x20 DUP3 ADD SWAP1 POP SWAP3 SWAP2 POP POP JUMP JUMPDEST PUSH32 0x50726F76696465642068617368206E6F74207265636F7264656420696E206E6F PUSH0 DUP3 ADD MSTORE PUSH32 0x746172792E000000000000000000000000000000000000000000000000000000 PUSH1 0x20 DUP3 ADD MSTORE POP JUMP JUMPDEST PUSH0 PUSH2 0x4EF PUSH1 0x25 DUP4 PUSH2 0x485 JUMP JUMPDEST SWAP2 POP PUSH2 0x4FA DUP3 PUSH2 0x495 JUMP JUMPDEST PUSH1 0x40 DUP3 ADD SWAP1 POP SWAP2 SWAP1 POP JUMP JUMPDEST PUSH0 PUSH1 0x20 DUP3 ADD SWAP1 POP DUP2 DUP2 SUB PUSH0 DUP4 ADD MSTORE PUSH2 0x51C DUP2 PUSH2 0x4E3 JUMP JUMPDEST SWAP1 POP SWAP2 SWAP1 POP JUMP JUMPDEST PUSH32 0x5472616E73616374696F6E2076616C756520646F6573206E6F74206D61746368 PUSH0 DUP3 ADD MSTORE PUSH32 0x2070726F76696465642067656E657369732066756E64696E672E000000000000 PUSH1 0x20 DUP3 ADD MSTORE POP JUMP JUMPDEST PUSH0 PUSH2 0x57D PUSH1 0x3A DUP4 PUSH2 0x485 JUMP JUMPDEST SWAP2 POP PUSH2 0x588 DUP3 PUSH2 0x523 JUMP JUMPDEST PUSH1 0x40 DUP3 ADD SWAP1 POP SWAP2 SWAP1 POP JUMP JUMPDEST PUSH0 PUSH1 0x20 DUP3 ADD SWAP1 POP DUP2 DUP2 SUB PUSH0 DUP4 ADD MSTORE PUSH2 0x5AA DUP2 PUSH2 0x571 JUMP JUMPDEST SWAP1 POP SWAP2 SWAP1 POP JUMP JUMPDEST PUSH32 0x4E487B7100000000000000000000000000000000000000000000000000000000 PUSH0 MSTORE PUSH1 0x11 PUSH1 0x4 MSTORE PUSH1 0x24 PUSH0 REVERT JUMPDEST PUSH0 PUSH2 0x5E8 DUP3 PUSH2 0x34F JUMP JUMPDEST SWAP2 POP PUSH2 0x5F3 DUP4 PUSH2 0x34F JUMP JUMPDEST SWAP3 POP DUP3 DUP3 SUB SWAP1 POP DUP2 DUP2 GT ISZERO PUSH2 0x60B JUMPI PUSH2 0x60A PUSH2 0x5B1 JUMP JUMPDEST JUMPDEST SWAP3 SWAP2 POP POP JUMP JUMPDEST PUSH32 0x4C656E677468206F6620636F6D6D69746D656E7420706572696F64206D757374 PUSH0 DUP3 ADD MSTORE PUSH32 0x206265206174206C65617374203130206D696E75746573000000000000000000 PUSH1 0x20 DUP3 ADD MSTORE POP JUMP JUMPDEST PUSH0 PUSH2 0x66B PUSH1 0x37 DUP4 PUSH2 0x485 JUMP JUMPDEST SWAP2 POP PUSH2 0x676 DUP3 PUSH2 0x611 JUMP JUMPDEST PUSH1 0x40 DUP3 ADD SWAP1 POP SWAP2 SWAP1 POP JUMP JUMPDEST PUSH0 PUSH1 0x20 DUP3 ADD SWAP1 POP DUP2 DUP2 SUB PUSH0 DUP4 ADD MSTORE PUSH2 0x698 DUP2 PUSH2 0x65F JUMP JUMPDEST SWAP1 POP SWAP2 SWAP1 POP JUMP JUMPDEST PUSH0 PUSH2 0x6A9 DUP3 PUSH2 0x3D5 JUMP JUMPDEST SWAP2 POP PUSH2 0x6B4 DUP4 PUSH2 0x3D5 JUMP JUMPDEST SWAP3 POP DUP3 DUP3 SUB SWAP1 POP PUSH4 0xFFFFFFFF DUP2 GT ISZERO PUSH2 0x6D0 JUMPI PUSH2 0x6CF PUSH2 0x5B1 JUMP JUMPDEST JUMPDEST SWAP3 SWAP2 POP POP JUMP JUMPDEST PUSH32 0x4E6F6E2D62616C6C6F74696E67207472616E73616374696F6E2063616E206E6F PUSH0 DUP3 ADD MSTORE PUSH32 0x7420686176652067656E657369732066756E64696E672E000000000000000000 PUSH1 0x20 DUP3 ADD MSTORE POP JUMP JUMPDEST PUSH0 PUSH2 0x730 PUSH1 0x37 DUP4 PUSH2 0x485 JUMP JUMPDEST SWAP2 POP PUSH2 0x73B DUP3 PUSH2 0x6D6 JUMP JUMPDEST PUSH1 0x40 DUP3 ADD SWAP1 POP SWAP2 SWAP1 POP JUMP JUMPDEST PUSH0 PUSH1 0x20 DUP3 ADD SWAP1 POP DUP2 DUP2 SUB PUSH0 DUP4 ADD MSTORE PUSH2 0x75D DUP2 PUSH2 0x724 JUMP JUMPDEST SWAP1 POP SWAP2 SWAP1 POP JUMP JUMPDEST PUSH32 0x496D61676520616C7265616479206E6F746172697A65642E0000000000000000 PUSH0 DUP3 ADD MSTORE POP JUMP JUMPDEST PUSH0 PUSH2 0x798 PUSH1 0x18 DUP4 PUSH2 0x485 JUMP JUMPDEST SWAP2 POP PUSH2 0x7A3 DUP3 PUSH2 0x764 JUMP JUMPDEST PUSH1 0x20 DUP3 ADD SWAP1 POP SWAP2 SWAP1 POP JUMP JUMPDEST PUSH0 PUSH1 0x20 DUP3 ADD SWAP1 POP DUP2 DUP2 SUB PUSH0 DUP4 ADD MSTORE PUSH2 0x7C5 DUP2 PUSH2 0x78C JUMP JUMPDEST SWAP1 POP SWAP2 SWAP1 POP JUMP INVALID LOG2 PUSH5 0x6970667358 0x22 SLT KECCAK256 CALLDATASIZE 0xFC 0xA9 BLOBBASEFEE 0x29 PUSH25 0x7E92F2275C3D415822B58E8EB0A94B641E3D2C6F07A9AF3467 PUSH10 0x64736F6C634300081E00 CALLER PUSH1 0x80 PUSH1 0x40 MSTORE CALLVALUE DUP1 ISZERO PUSH2 0xF JUMPI PUSH0 PUSH0 REVERT JUMPDEST POP PUSH1 0x40 MLOAD PUSH2 0x27ED CODESIZE SUB DUP1 PUSH2 0x27ED DUP4 CODECOPY DUP2 DUP2 ADD PUSH1 0x40 MSTORE DUP2 ADD SWAP1 PUSH2 0x31 SWAP2 SWAP1 PUSH2 0x151 JUMP JUMPDEST DUP1 PUSH0 PUSH0 PUSH2 0x100 EXP DUP2 SLOAD DUP2 PUSH20 0xFFFFFFFFFFFFFFFFFFFFFFFFFFFFFFFFFFFFFFFF MUL NOT AND SWAP1 DUP4 PUSH20 0xFFFFFFFFFFFFFFFFFFFFFFFFFFFFFFFFFFFFFFFF AND MUL OR SWAP1 SSTORE POP ADDRESS PUSH1 0x40 MLOAD PUSH2 0x7D SWAP1 PUSH2 0xE6 JUMP JUMPDEST PUSH2 0x87 SWAP2 SWAP1 PUSH2 0x18B JUMP JUMPDEST PUSH1 0x40 MLOAD DUP1 SWAP2 SUB SWAP1 PUSH0 CREATE DUP1 ISZERO DUP1 ISZERO PUSH2 0xA0 JUMPI RETURNDATASIZE PUSH0 PUSH0 RETURNDATACOPY RETURNDATASIZE PUSH0 REVERT JUMPDEST POP PUSH1 0x1 PUSH0 PUSH2 0x100 EXP DUP2 SLOAD DUP2 PUSH20 0xFFFFFFFFFFFFFFFFFFFFFFFFFFFFFFFFFFFFFFFF MUL NOT AND SWAP1 DUP4 PUSH20 0xFFFFFFFFFFFFFFFFFFFFFFFFFFFFFFFFFFFFFFFF AND MUL OR SWAP1 SSTORE POP POP PUSH2 0x1A4 JUMP JUMPDEST PUSH2 0x70D DUP1 PUSH2 0x20E0 DUP4 CODECOPY ADD SWAP1 JUMP JUMPDEST PUSH0 PUSH0 REVERT JUMPDEST PUSH0 PUSH20 0xFFFFFFFFFFFFFFFFFFFFFFFFFFFFFFFFFFFFFFFF DUP3 AND SWAP1 POP SWAP2 SWAP1 POP JUMP JUMPDEST PUSH0 PUSH2 0x120 DUP3 PUSH2 0xF7 JUMP JUMPDEST SWAP1 POP SWAP2 SWAP1 POP JUMP JUMPDEST PUSH2 0x130 DUP2 PUSH2 0x116 JUMP JUMPDEST DUP2 EQ PUSH2 0x13A JUMPI PUSH0 PUSH0 REVERT JUMPDEST POP JUMP JUMPDEST PUSH0 DUP2 MLOAD SWAP1 POP PUSH2 0x14B DUP2 PUSH2 0x127 JUMP JUMPDEST SWAP3 SWAP2 POP POP JUMP JUMPDEST PUSH0 PUSH1 0x20 DUP3 DUP5 SUB SLT ISZERO PUSH2 0x166 JUMPI PUSH2 0x165 PUSH2 0xF3 JUMP JUMPDEST JUMPDEST PUSH0 PUSH2 0x173 DUP5 DUP3 DUP6 ADD PUSH2 0x13D JUMP JUMPDEST SWAP2 POP POP SWAP3 SWAP2 POP POP JUMP JUMPDEST PUSH2 0x185 DUP2 PUSH2 0x116 JUMP JUMPDEST DUP3 MSTORE POP POP JUMP JUMPDEST PUSH0 PUSH1 0x20 DUP3 ADD SWAP1 POP PUSH2 0x19E PUSH0 DUP4 ADD DUP5 PUSH2 0x17C JUMP JUMPDEST SWAP3 SWAP2 POP POP JUMP JUMPDEST PUSH2 0x1F2F DUP1 PUSH2 0x1B1 PUSH0 CODECOPY PUSH0 RETURN INVALID PUSH1 0x80 PUSH1 0x40 MSTORE PUSH1 0x4 CALLDATASIZE LT PUSH2 0x54 JUMPI PUSH0 CALLDATALOAD PUSH1 0xE0 SHR DUP1 PUSH4 0xAF49750 EQ PUSH2 0x58 JUMPI DUP1 PUSH4 0x1DC1A9D9 EQ PUSH2 0x94 JUMPI DUP1 PUSH4 0x1F84D71A EQ PUSH2 0xBC JUMPI DUP1 PUSH4 0x220900A6 EQ PUSH2 0xD8 JUMPI DUP1 PUSH4 0x2E1A7D4D EQ PUSH2 0x100 JUMPI DUP1 PUSH4 0x779069AB EQ PUSH2 0x128 JUMPI JUMPDEST PUSH0 PUSH0 REVERT JUMPDEST CALLVALUE DUP1 ISZERO PUSH2 0x63 JUMPI PUSH0 PUSH0 REVERT JUMPDEST POP PUSH2 0x7E PUSH1 0x4 DUP1 CALLDATASIZE SUB DUP2 ADD SWAP1 PUSH2 0x79 SWAP2 SWAP1 PUSH2 0x10C5 JUMP JUMPDEST PUSH2 0x150 JUMP JUMPDEST PUSH1 0x40 MLOAD PUSH2 0x8B SWAP2 SWAP1 PUSH2 0x110E JUMP JUMPDEST PUSH1 0x40 MLOAD DUP1 SWAP2 SUB SWAP1 RETURN JUMPDEST CALLVALUE DUP1 ISZERO PUSH2 0x9F JUMPI PUSH0 PUSH0 REVERT JUMPDEST POP PUSH2 0xBA PUSH1 0x4 DUP1 CALLDATASIZE SUB DUP2 ADD SWAP1 PUSH2 0xB5 SWAP2 SWAP1 PUSH2 0x115A JUMP JUMPDEST PUSH2 0x174 JUMP JUMPDEST STOP JUMPDEST PUSH2 0xD6 PUSH1 0x4 DUP1 CALLDATASIZE SUB DUP2 ADD SWAP1 PUSH2 0xD1 SWAP2 SWAP1 PUSH2 0x11C2 JUMP JUMPDEST PUSH2 0x27F JUMP JUMPDEST STOP JUMPDEST CALLVALUE DUP1 ISZERO PUSH2 0xE3 JUMPI PUSH0 PUSH0 REVERT JUMPDEST POP PUSH2 0xFE PUSH1 0x4 DUP1 CALLDATASIZE SUB DUP2 ADD SWAP1 PUSH2 0xF9 SWAP2 SWAP1 PUSH2 0x1226 JUMP JUMPDEST PUSH2 0x544 JUMP JUMPDEST STOP JUMPDEST CALLVALUE DUP1 ISZERO PUSH2 0x10B JUMPI PUSH0 PUSH0 REVERT JUMPDEST POP PUSH2 0x126 PUSH1 0x4 DUP1 CALLDATASIZE SUB DUP2 ADD SWAP1 PUSH2 0x121 SWAP2 SWAP1 PUSH2 0x129D JUMP JUMPDEST PUSH2 0xB04 JUMP JUMPDEST STOP JUMPDEST CALLVALUE DUP1 ISZERO PUSH2 0x133 JUMPI PUSH0 PUSH0 REVERT JUMPDEST POP PUSH2 0x14E PUSH1 0x4 DUP1 CALLDATASIZE SUB DUP2 ADD SWAP1 PUSH2 0x149 SWAP2 SWAP1 PUSH2 0x129D JUMP JUMPDEST PUSH2 0xD8E JUMP JUMPDEST STOP JUMPDEST PUSH0 PUSH0 DUP3 PUSH1 0x3 SIGNEXTEND SLT ISZERO PUSH2 0x16B JUMPI DUP2 PUSH2 0x166 SWAP1 PUSH2 0x12F5 JUMP JUMPDEST PUSH2 0x16D JUMP JUMPDEST DUP2 JUMPDEST SWAP1 POP SWAP2 SWAP1 POP JUMP JUMPDEST PUSH1 0x2 PUSH0 DUP3 DUP2 MSTORE PUSH1 0x20 ADD SWAP1 DUP2 MSTORE PUSH1 0x20 ADD PUSH0 KECCAK256 PUSH1 0x6 ADD PUSH1 0x4 SWAP1 SLOAD SWAP1 PUSH2 0x100 EXP SWAP1 DIV PUSH1 0xFF AND PUSH2 0x1D5 JUMPI PUSH1 0x40 MLOAD PUSH32 0x8C379A000000000000000000000000000000000000000000000000000000000 DUP2 MSTORE PUSH1 0x4 ADD PUSH2 0x1CC SWAP1 PUSH2 0x1395 JUMP JUMPDEST PUSH1 0x40 MLOAD DUP1 SWAP2 SUB SWAP1 REVERT JUMPDEST PUSH1 0x2 PUSH0 DUP3 DUP2 MSTORE PUSH1 0x20 ADD SWAP1 DUP2 MSTORE PUSH1 0x20 ADD PUSH0 KECCAK256 PUSH1 0x2 ADD PUSH0 SWAP1 SLOAD SWAP1 PUSH2 0x100 EXP SWAP1 DIV PUSH4 0xFFFFFFFF AND PUSH4 0xFFFFFFFF AND TIMESTAMP LT PUSH2 0x240 JUMPI PUSH1 0x40 MLOAD PUSH32 0x8C379A000000000000000000000000000000000000000000000000000000000 DUP2 MSTORE PUSH1 0x4 ADD PUSH2 0x237 SWAP1 PUSH2 0x13FD JUMP JUMPDEST PUSH1 0x40 MLOAD DUP1 SWAP2 SUB SWAP1 REVERT JUMPDEST PUSH1 0x1 PUSH1 0x2 PUSH0 DUP4 DUP2 MSTORE PUSH1 0x20 ADD SWAP1 DUP2 MSTORE PUSH1 0x20 ADD PUSH0 KECCAK256 PUSH1 0x3 ADD PUSH0 DUP5 DUP2 MSTORE PUSH1 0x20 ADD SWAP1 DUP2 MSTORE PUSH1 0x20 ADD PUSH0 KECCAK256 PUSH0 PUSH2 0x100 EXP DUP2 SLOAD DUP2 PUSH1 0xFF MUL NOT AND SWAP1 DUP4 ISZERO ISZERO MUL OR SWAP1 SSTORE POP POP POP JUMP JUMPDEST PUSH0 PUSH0 SWAP1 SLOAD SWAP1 PUSH2 0x100 EXP SWAP1 DIV PUSH20 0xFFFFFFFFFFFFFFFFFFFFFFFFFFFFFFFFFFFFFFFF AND PUSH20 0xFFFFFFFFFFFFFFFFFFFFFFFFFFFFFFFFFFFFFFFF AND CALLER PUSH20 0xFFFFFFFFFFFFFFFFFFFFFFFFFFFFFFFFFFFFFFFF AND EQ PUSH2 0x30D JUMPI PUSH1 0x40 MLOAD PUSH32 0x8C379A000000000000000000000000000000000000000000000000000000000 DUP2 MSTORE PUSH1 0x4 ADD PUSH2 0x304 SWAP1 PUSH2 0x148B JUMP JUMPDEST PUSH1 0x40 MLOAD DUP1 SWAP2 SUB SWAP1 REVERT JUMPDEST PUSH0 DUP4 SUB PUSH2 0x34F JUMPI PUSH1 0x40 MLOAD PUSH32 0x8C379A000000000000000000000000000000000000000000000000000000000 DUP2 MSTORE PUSH1 0x4 ADD PUSH2 0x346 SWAP1 PUSH2 0x14F3 JUMP JUMPDEST PUSH1 0x40 MLOAD DUP1 SWAP2 SUB SWAP1 REVERT JUMPDEST PUSH0 ISZERO ISZERO PUSH1 0x2 PUSH0 DUP6 DUP2 MSTORE PUSH1 0x20 ADD SWAP1 DUP2 MSTORE PUSH1 0x20 ADD PUSH0 KECCAK256 PUSH1 0x6 ADD PUSH1 0x4 SWAP1 SLOAD SWAP1 PUSH2 0x100 EXP SWAP1 DIV PUSH1 0xFF AND ISZERO ISZERO EQ PUSH2 0x3B6 JUMPI PUSH1 0x40 MLOAD PUSH32 0x8C379A000000000000000000000000000000000000000000000000000000000 DUP2 MSTORE PUSH1 0x4 ADD PUSH2 0x3AD SWAP1 PUSH2 0x155B JUMP JUMPDEST PUSH1 0x40 MLOAD DUP1 SWAP2 SUB SWAP1 REVERT JUMPDEST PUSH2 0x258 TIMESTAMP DUP4 PUSH4 0xFFFFFFFF AND PUSH2 0x3CB SWAP2 SWAP1 PUSH2 0x1579 JUMP JUMPDEST LT ISZERO PUSH2 0x40C JUMPI PUSH1 0x40 MLOAD PUSH32 0x8C379A000000000000000000000000000000000000000000000000000000000 DUP2 MSTORE PUSH1 0x4 ADD PUSH2 0x403 SWAP1 PUSH2 0x161C JUMP JUMPDEST PUSH1 0x40 MLOAD DUP1 SWAP2 SUB SWAP1 REVERT JUMPDEST PUSH2 0x258 DUP3 DUP3 PUSH2 0x41B SWAP2 SWAP1 PUSH2 0x163A JUMP JUMPDEST PUSH4 0xFFFFFFFF AND LT ISZERO PUSH2 0x462 JUMPI PUSH1 0x40 MLOAD PUSH32 0x8C379A000000000000000000000000000000000000000000000000000000000 DUP2 MSTORE PUSH1 0x4 ADD PUSH2 0x459 SWAP1 PUSH2 0x161C JUMP JUMPDEST PUSH1 0x40 MLOAD DUP1 SWAP2 SUB SWAP1 REVERT JUMPDEST PUSH0 PUSH1 0x2 PUSH0 DUP6 DUP2 MSTORE PUSH1 0x20 ADD SWAP1 DUP2 MSTORE PUSH1 0x20 ADD PUSH0 KECCAK256 PUSH0 ADD PUSH0 PUSH2 0x100 EXP DUP2 SLOAD DUP2 PUSH4 0xFFFFFFFF MUL NOT AND SWAP1 DUP4 PUSH4 0xFFFFFFFF AND MUL OR SWAP1 SSTORE POP DUP4 PUSH1 0x2 PUSH0 DUP6 DUP2 MSTORE PUSH1 0x20 ADD SWAP1 DUP2 MSTORE PUSH1 0x20 ADD PUSH0 KECCAK256 PUSH1 0x1 ADD DUP2 SWAP1 SSTORE POP DUP2 PUSH1 0x2 PUSH0 DUP6 DUP2 MSTORE PUSH1 0x20 ADD SWAP1 DUP2 MSTORE PUSH1 0x20 ADD PUSH0 KECCAK256 PUSH1 0x2 ADD PUSH0 PUSH2 0x100 EXP DUP2 SLOAD DUP2 PUSH4 0xFFFFFFFF MUL NOT AND SWAP1 DUP4 PUSH4 0xFFFFFFFF AND MUL OR SWAP1 SSTORE POP DUP1 PUSH1 0x2 PUSH0 DUP6 DUP2 MSTORE PUSH1 0x20 ADD SWAP1 DUP2 MSTORE PUSH1 0x20 ADD PUSH0 KECCAK256 PUSH1 0x2 ADD PUSH1 0x4 PUSH2 0x100 EXP DUP2 SLOAD DUP2 PUSH4 0xFFFFFFFF MUL NOT AND SWAP1 DUP4 PUSH4 0xFFFFFFFF AND MUL OR SWAP1 SSTORE POP PUSH1 0x1 PUSH1 0x2 PUSH0 DUP6 DUP2 MSTORE PUSH1 0x20 ADD SWAP1 DUP2 MSTORE PUSH1 0x20 ADD PUSH0 KECCAK256 PUSH1 0x6 ADD PUSH1 0x4 PUSH2 0x100 EXP DUP2 SLOAD DUP2 PUSH1 0xFF MUL NOT AND SWAP1 DUP4 ISZERO ISZERO MUL OR SWAP1 SSTORE POP POP POP POP POP JUMP JUMPDEST PUSH1 0x2 PUSH0 DUP7 DUP2 MSTORE PUSH1 0x20 ADD SWAP1 DUP2 MSTORE PUSH1 0x20 ADD PUSH0 KECCAK256 PUSH1 0x6 ADD PUSH1 0x4 SWAP1 SLOAD SWAP1 PUSH2 0x100 EXP SWAP1 DIV PUSH1 0xFF AND PUSH2 0x5A5 JUMPI PUSH1 0x40 MLOAD PUSH32 0x8C379A000000000000000000000000000000000000000000000000000000000 DUP2 MSTORE PUSH1 0x4 ADD PUSH2 0x59C SWAP1 PUSH2 0x1395 JUMP JUMPDEST PUSH1 0x40 MLOAD DUP1 SWAP2 SUB SWAP1 REVERT JUMPDEST PUSH1 0x2 PUSH0 DUP7 DUP2 MSTORE PUSH1 0x20 ADD SWAP1 DUP2 MSTORE PUSH1 0x20 ADD PUSH0 KECCAK256 PUSH1 0x3 ADD PUSH0 DUP6 DUP2 MSTORE PUSH1 0x20 ADD SWAP1 DUP2 MSTORE PUSH1 0x20 ADD PUSH0 KECCAK256 PUSH0 SWAP1 SLOAD SWAP1 PUSH2 0x100 EXP SWAP1 DIV PUSH1 0xFF AND PUSH2 0x614 JUMPI PUSH1 0x40 MLOAD PUSH32 0x8C379A000000000000000000000000000000000000000000000000000000000 DUP2 MSTORE PUSH1 0x4 ADD PUSH2 0x60B SWAP1 PUSH2 0x16BB JUMP JUMPDEST PUSH1 0x40 MLOAD DUP1 SWAP2 SUB SWAP1 REVERT JUMPDEST PUSH1 0x2 PUSH0 DUP7 DUP2 MSTORE PUSH1 0x20 ADD SWAP1 DUP2 MSTORE PUSH1 0x20 ADD PUSH0 KECCAK256 PUSH1 0x2 ADD PUSH0 SWAP1 SLOAD SWAP1 PUSH2 0x100 EXP SWAP1 DIV PUSH4 0xFFFFFFFF AND PUSH4 0xFFFFFFFF AND TIMESTAMP GT PUSH2 0x67F JUMPI PUSH1 0x40 MLOAD PUSH32 0x8C379A000000000000000000000000000000000000000000000000000000000 DUP2 MSTORE PUSH1 0x4 ADD PUSH2 0x676 SWAP1 PUSH2 0x1723 JUMP JUMPDEST PUSH1 0x40 MLOAD DUP1 SWAP2 SUB SWAP1 REVERT JUMPDEST PUSH1 0x2 PUSH0 DUP7 DUP2 MSTORE PUSH1 0x20 ADD SWAP1 DUP2 MSTORE PUSH1 0x20 ADD PUSH0 KECCAK256 PUSH1 0x2 ADD PUSH1 0x4 SWAP1 SLOAD SWAP1 PUSH2 0x100 EXP SWAP1 DIV PUSH4 0xFFFFFFFF AND PUSH4 0xFFFFFFFF AND TIMESTAMP LT PUSH2 0x6EB JUMPI PUSH1 0x40 MLOAD PUSH32 0x8C379A000000000000000000000000000000000000000000000000000000000 DUP2 MSTORE PUSH1 0x4 ADD PUSH2 0x6E2 SWAP1 PUSH2 0x178B JUMP JUMPDEST PUSH1 0x40 MLOAD DUP1 SWAP2 SUB SWAP1 REVERT JUMPDEST DUP4 PUSH0 SHL PUSH1 0x2 DUP3 DUP5 DUP7 PUSH4 0xFFFFFFFF AND PUSH2 0x703 SWAP2 SWAP1 PUSH2 0x17A9 JUMP JUMPDEST PUSH2 0x70D SWAP2 SWAP1 PUSH2 0x17A9 JUMP JUMPDEST PUSH1 0x40 MLOAD PUSH1 0x20 ADD PUSH2 0x71D SWAP2 SWAP1 PUSH2 0x17FC JUMP JUMPDEST PUSH1 0x40 MLOAD PUSH1 0x20 DUP2 DUP4 SUB SUB DUP2 MSTORE SWAP1 PUSH1 0x40 MSTORE PUSH1 0x40 MLOAD PUSH2 0x739 SWAP2 SWAP1 PUSH2 0x1868 JUMP JUMPDEST PUSH1 0x20 PUSH1 0x40 MLOAD DUP1 DUP4 SUB DUP2 DUP6 GAS STATICCALL ISZERO DUP1 ISZERO PUSH2 0x754 JUMPI RETURNDATASIZE PUSH0 PUSH0 RETURNDATACOPY RETURNDATASIZE PUSH0 REVERT JUMPDEST POP POP POP PUSH1 0x40 MLOAD RETURNDATASIZE PUSH1 0x1F NOT PUSH1 0x1F DUP3 ADD AND DUP3 ADD DUP1 PUSH1 0x40 MSTORE POP DUP2 ADD SWAP1 PUSH2 0x777 SWAP2 SWAP1 PUSH2 0x18B1 JUMP JUMPDEST EQ PUSH2 0x7B7 JUMPI PUSH1 0x40 MLOAD PUSH32 0x8C379A000000000000000000000000000000000000000000000000000000000 DUP2 MSTORE PUSH1 0x4 ADD PUSH2 0x7AE SWAP1 PUSH2 0x194C JUMP JUMPDEST PUSH1 0x40 MLOAD DUP1 SWAP2 SUB SWAP1 REVERT JUMPDEST DUP2 PUSH1 0x1 PUSH0 SWAP1 SLOAD SWAP1 PUSH2 0x100 EXP SWAP1 DIV PUSH20 0xFFFFFFFFFFFFFFFFFFFFFFFFFFFFFFFFFFFFFFFF AND PUSH20 0xFFFFFFFFFFFFFFFFFFFFFFFFFFFFFFFFFFFFFFFF AND PUSH4 0x5B407A28 DUP4 PUSH1 0x40 MLOAD DUP3 PUSH4 0xFFFFFFFF AND PUSH1 0xE0 SHL DUP2 MSTORE PUSH1 0x4 ADD PUSH2 0x812 SWAP2 SWAP1 PUSH2 0x1979 JUMP JUMPDEST PUSH1 0x20 PUSH1 0x40 MLOAD DUP1 DUP4 SUB DUP2 DUP7 GAS STATICCALL ISZERO DUP1 ISZERO PUSH2 0x82D JUMPI RETURNDATASIZE PUSH0 PUSH0 RETURNDATACOPY RETURNDATASIZE PUSH0 REVERT JUMPDEST POP POP POP POP PUSH1 0x40 MLOAD RETURNDATASIZE PUSH1 0x1F NOT PUSH1 0x1F DUP3 ADD AND DUP3 ADD DUP1 PUSH1 0x40 MSTORE POP DUP2 ADD SWAP1 PUSH2 0x851 SWAP2 SWAP1 PUSH2 0x19A6 JUMP JUMPDEST LT ISZERO PUSH2 0x892 JUMPI PUSH1 0x40 MLOAD PUSH32 0x8C379A000000000000000000000000000000000000000000000000000000000 DUP2 MSTORE PUSH1 0x4 ADD PUSH2 0x889 SWAP1 PUSH2 0x1A41 JUMP JUMPDEST PUSH1 0x40 MLOAD DUP1 SWAP2 SUB SWAP1 REVERT JUMPDEST PUSH1 0x1 PUSH0 SWAP1 SLOAD SWAP1 PUSH2 0x100 EXP SWAP1 DIV PUSH20 0xFFFFFFFFFFFFFFFFFFFFFFFFFFFFFFFFFFFFFFFF AND PUSH20 0xFFFFFFFFFFFFFFFFFFFFFFFFFFFFFFFFFFFFFFFF AND PUSH4 0xAB6539A7 DUP3 CALLER PUSH1 0x40 MLOAD DUP4 PUSH4 0xFFFFFFFF AND PUSH1 0xE0 SHL DUP2 MSTORE PUSH1 0x4 ADD PUSH2 0x8EE SWAP3 SWAP2 SWAP1 PUSH2 0x1A9E JUMP JUMPDEST PUSH1 0x20 PUSH1 0x40 MLOAD DUP1 DUP4 SUB DUP2 DUP7 GAS STATICCALL ISZERO DUP1 ISZERO PUSH2 0x909 JUMPI RETURNDATASIZE PUSH0 PUSH0 RETURNDATACOPY RETURNDATASIZE PUSH0 REVERT JUMPDEST POP POP POP POP PUSH1 0x40 MLOAD RETURNDATASIZE PUSH1 0x1F NOT PUSH1 0x1F DUP3 ADD AND DUP3 ADD DUP1 PUSH1 0x40 MSTORE POP DUP2 ADD SWAP1 PUSH2 0x92D SWAP2 SWAP1 PUSH2 0x1AFA JUMP JUMPDEST PUSH2 0x96C JUMPI PUSH1 0x40 MLOAD PUSH32 0x8C379A000000000000000000000000000000000000000000000000000000000 DUP2 MSTORE PUSH1 0x4 ADD PUSH2 0x963 SWAP1 PUSH2 0x1B95 JUMP JUMPDEST PUSH1 0x40 MLOAD DUP1 SWAP2 SUB SWAP1 REVERT JUMPDEST PUSH0 PUSH1 0x2 PUSH0 DUP8 DUP2 MSTORE PUSH1 0x20 ADD SWAP1 DUP2 MSTORE PUSH1 0x20 ADD PUSH0 KECCAK256 PUSH0 ADD PUSH0 SWAP1 SLOAD SWAP1 PUSH2 0x100 EXP SWAP1 DIV PUSH4 0xFFFFFFFF AND SWAP1 POP PUSH0 PUSH1 0x2 PUSH0 DUP9 DUP2 MSTORE PUSH1 0x20 ADD SWAP1 DUP2 MSTORE PUSH1 0x20 ADD PUSH0 KECCAK256 PUSH1 0x6 ADD PUSH0 SWAP1 SLOAD SWAP1 PUSH2 0x100 EXP SWAP1 DIV PUSH4 0xFFFFFFFF AND SWAP1 POP DUP1 DUP6 PUSH2 0x9C5 SWAP2 SWAP1 PUSH2 0x1BE0 JUMP JUMPDEST DUP2 PUSH2 0x9CF SWAP1 PUSH2 0x1C10 JUMP JUMPDEST SWAP2 POP DUP2 DUP3 PUSH2 0x9DD SWAP2 SWAP1 PUSH2 0x1BE0 JUMP JUMPDEST DUP4 PUSH2 0x9E8 SWAP2 SWAP1 PUSH2 0x1C3B JUMP JUMPDEST PUSH2 0x9F2 SWAP2 SWAP1 PUSH2 0x1C77 JUMP JUMPDEST PUSH1 0x2 PUSH0 DUP10 DUP2 MSTORE PUSH1 0x20 ADD SWAP1 DUP2 MSTORE PUSH1 0x20 ADD PUSH0 KECCAK256 PUSH0 ADD PUSH0 PUSH2 0x100 EXP DUP2 SLOAD DUP2 PUSH4 0xFFFFFFFF MUL NOT AND SWAP1 DUP4 PUSH4 0xFFFFFFFF AND MUL OR SWAP1 SSTORE POP DUP1 PUSH1 0x2 PUSH0 DUP10 DUP2 MSTORE PUSH1 0x20 ADD SWAP1 DUP2 MSTORE PUSH1 0x20 ADD PUSH0 KECCAK256 PUSH1 0x6 ADD PUSH0 PUSH2 0x100 EXP DUP2 SLOAD DUP2 PUSH4 0xFFFFFFFF MUL NOT AND SWAP1 DUP4 PUSH4 0xFFFFFFFF AND MUL OR SWAP1 SSTORE POP PUSH0 PUSH1 0x2 PUSH0 DUP10 DUP2 MSTORE PUSH1 0x20 ADD SWAP1 DUP2 MSTORE PUSH1 0x20 ADD PUSH0 KECCAK256 PUSH1 0x4 ADD PUSH0 CALLER PUSH20 0xFFFFFFFFFFFFFFFFFFFFFFFFFFFFFFFFFFFFFFFF AND PUSH20 0xFFFFFFFFFFFFFFFFFFFFFFFFFFFFFFFFFFFFFFFF AND DUP2 MSTORE PUSH1 0x20 ADD SWAP1 DUP2 MSTORE PUSH1 0x20 ADD PUSH0 KECCAK256 SWAP1 POP DUP5 DUP2 PUSH1 0x1 ADD DUP2 SWAP1 SSTORE POP DUP6 DUP2 PUSH0 ADD PUSH0 PUSH2 0x100 EXP DUP2 SLOAD DUP2 PUSH4 0xFFFFFFFF MUL NOT AND SWAP1 DUP4 PUSH4 0xFFFFFFFF AND MUL OR SWAP1 SSTORE POP DUP5 PUSH1 0x2 PUSH0 DUP11 DUP2 MSTORE PUSH1 0x20 ADD SWAP1 DUP2 MSTORE PUSH1 0x20 ADD PUSH0 KECCAK256 PUSH1 0x1 ADD PUSH0 DUP3 DUP3 SLOAD PUSH2 0xAF3 SWAP2 SWAP1 PUSH2 0x17A9 JUMP JUMPDEST SWAP3 POP POP DUP2 SWAP1 SSTORE POP POP POP POP POP POP POP POP POP JUMP JUMPDEST PUSH1 0x2 PUSH0 DUP3 DUP2 MSTORE PUSH1 0x20 ADD SWAP1 DUP2 MSTORE PUSH1 0x20 ADD PUSH0 KECCAK256 PUSH1 0x6 ADD PUSH1 0x4 SWAP1 SLOAD SWAP1 PUSH2 0x100 EXP SWAP1 DIV PUSH1 0xFF AND PUSH2 0xB65 JUMPI PUSH1 0x40 MLOAD PUSH32 0x8C379A000000000000000000000000000000000000000000000000000000000 DUP2 MSTORE PUSH1 0x4 ADD PUSH2 0xB5C SWAP1 PUSH2 0x1395 JUMP JUMPDEST PUSH1 0x40 MLOAD DUP1 SWAP2 SUB SWAP1 REVERT JUMPDEST PUSH0 PUSH1 0x2 PUSH0 DUP4 DUP2 MSTORE PUSH1 0x20 ADD SWAP1 DUP2 MSTORE PUSH1 0x20 ADD PUSH0 KECCAK256 PUSH1 0x4 ADD PUSH0 CALLER PUSH20 0xFFFFFFFFFFFFFFFFFFFFFFFFFFFFFFFFFFFFFFFF AND PUSH20 0xFFFFFFFFFFFFFFFFFFFFFFFFFFFFFFFFFFFFFFFF AND DUP2 MSTORE PUSH1 0x20 ADD SWAP1 DUP2 MSTORE PUSH1 0x20 ADD PUSH0 KECCAK256 PUSH1 0x1 ADD SLOAD GT PUSH2 0xBF9 JUMPI PUSH1 0x40 MLOAD PUSH32 0x8C379A000000000000000000000000000000000000000000000000000000000 DUP2 MSTORE PUSH1 0x4 ADD PUSH2 0xBF0 SWAP1 PUSH2 0x1CF8 JUMP JUMPDEST PUSH1 0x40 MLOAD DUP1 SWAP2 SUB SWAP1 REVERT JUMPDEST PUSH3 0x15180 PUSH1 0x2 PUSH0 DUP4 DUP2 MSTORE PUSH1 0x20 ADD SWAP1 DUP2 MSTORE PUSH1 0x20 ADD PUSH0 KECCAK256 PUSH1 0x2 ADD PUSH1 0x4 SWAP1 SLOAD SWAP1 PUSH2 0x100 EXP SWAP1 DIV PUSH4 0xFFFFFFFF AND PUSH2 0xC2C SWAP2 SWAP1 PUSH2 0x1C77 JUMP JUMPDEST PUSH4 0xFFFFFFFF AND TIMESTAMP GT PUSH2 0xC73 JUMPI PUSH1 0x40 MLOAD PUSH32 0x8C379A000000000000000000000000000000000000000000000000000000000 DUP2 MSTORE PUSH1 0x4 ADD PUSH2 0xC6A SWAP1 PUSH2 0x1D60 JUMP JUMPDEST PUSH1 0x40 MLOAD DUP1 SWAP2 SUB SWAP1 REVERT JUMPDEST PUSH1 0x1 PUSH0 SWAP1 SLOAD SWAP1 PUSH2 0x100 EXP SWAP1 DIV PUSH20 0xFFFFFFFFFFFFFFFFFFFFFFFFFFFFFFFFFFFFFFFF AND PUSH20 0xFFFFFFFFFFFFFFFFFFFFFFFFFFFFFFFFFFFFFFFF AND PUSH3 0xF714CE PUSH1 0x2 PUSH0 DUP5 DUP2 MSTORE PUSH1 0x20 ADD SWAP1 DUP2 MSTORE PUSH1 0x20 ADD PUSH0 KECCAK256 PUSH1 0x1 ADD SLOAD PUSH1 0x2 PUSH0 DUP6 DUP2 MSTORE PUSH1 0x20 ADD SWAP1 DUP2 MSTORE PUSH1 0x20 ADD PUSH0 KECCAK256 PUSH1 0x5 ADD SLOAD PUSH1 0x2 PUSH0 DUP7 DUP2 MSTORE PUSH1 0x20 ADD SWAP1 DUP2 MSTORE PUSH1 0x20 ADD PUSH0 KECCAK256 PUSH1 0x4 ADD PUSH0 CALLER PUSH20 0xFFFFFFFFFFFFFFFFFFFFFFFFFFFFFFFFFFFFFFFF AND PUSH20 0xFFFFFFFFFFFFFFFFFFFFFFFFFFFFFFFFFFFFFFFF AND DUP2 MSTORE PUSH1 0x20 ADD SWAP1 DUP2 MSTORE PUSH1 0x20 ADD PUSH0 KECCAK256 PUSH1 0x2 ADD SLOAD PUSH2 0xD36 SWAP2 SWAP1 PUSH2 0x1D7E JUMP JUMPDEST PUSH2 0xD40 SWAP2 SWAP1 PUSH2 0x1DAE JUMP JUMPDEST CALLER PUSH1 0x40 MLOAD DUP4 PUSH4 0xFFFFFFFF AND PUSH1 0xE0 SHL DUP2 MSTORE PUSH1 0x4 ADD PUSH2 0xD5E SWAP3 SWAP2 SWAP1 PUSH2 0x1E0F JUMP JUMPDEST PUSH0 PUSH1 0x40 MLOAD DUP1 DUP4 SUB DUP2 PUSH0 DUP8 DUP1 EXTCODESIZE ISZERO DUP1 ISZERO PUSH2 0xD75 JUMPI PUSH0 PUSH0 REVERT JUMPDEST POP GAS CALL ISZERO DUP1 ISZERO PUSH2 0xD87 JUMPI RETURNDATASIZE PUSH0 PUSH0 RETURNDATACOPY RETURNDATASIZE PUSH0 REVERT JUMPDEST POP POP POP POP POP JUMP JUMPDEST PUSH1 0x2 PUSH0 DUP3 DUP2 MSTORE PUSH1 0x20 ADD SWAP1 DUP2 MSTORE PUSH1 0x20 ADD PUSH0 KECCAK256 PUSH1 0x6 ADD PUSH1 0x4 SWAP1 SLOAD SWAP1 PUSH2 0x100 EXP SWAP1 DIV PUSH1 0xFF AND PUSH2 0xDEF JUMPI PUSH1 0x40 MLOAD PUSH32 0x8C379A000000000000000000000000000000000000000000000000000000000 DUP2 MSTORE PUSH1 0x4 ADD PUSH2 0xDE6 SWAP1 PUSH2 0x1395 JUMP JUMPDEST PUSH1 0x40 MLOAD DUP1 SWAP2 SUB SWAP1 REVERT JUMPDEST PUSH0 PUSH1 0x2 PUSH0 DUP4 DUP2 MSTORE PUSH1 0x20 ADD SWAP1 DUP2 MSTORE PUSH1 0x20 ADD PUSH0 KECCAK256 PUSH1 0x4 ADD PUSH0 CALLER PUSH20 0xFFFFFFFFFFFFFFFFFFFFFFFFFFFFFFFFFFFFFFFF AND PUSH20 0xFFFFFFFFFFFFFFFFFFFFFFFFFFFFFFFFFFFFFFFF AND DUP2 MSTORE PUSH1 0x20 ADD SWAP1 DUP2 MSTORE PUSH1 0x20 ADD PUSH0 KECCAK256 PUSH1 0x1 ADD SLOAD GT PUSH2 0xE83 JUMPI PUSH1 0x40 MLOAD PUSH32 0x8C379A000000000000000000000000000000000000000000000000000000000 DUP2 MSTORE PUSH1 0x4 ADD PUSH2 0xE7A SWAP1 PUSH2 0x1CF8 JUMP JUMPDEST PUSH1 0x40 MLOAD DUP1 SWAP2 SUB SWAP1 REVERT JUMPDEST PUSH1 0x2 PUSH0 DUP3 DUP2 MSTORE PUSH1 0x20 ADD SWAP1 DUP2 MSTORE PUSH1 0x20 ADD PUSH0 KECCAK256 PUSH1 0x2 ADD PUSH1 0x4 SWAP1 SLOAD SWAP1 PUSH2 0x100 EXP SWAP1 DIV PUSH4 0xFFFFFFFF AND PUSH4 0xFFFFFFFF AND TIMESTAMP GT PUSH2 0xEEF JUMPI PUSH1 0x40 MLOAD PUSH32 0x8C379A000000000000000000000000000000000000000000000000000000000 DUP2 MSTORE PUSH1 0x4 ADD PUSH2 0xEE6 SWAP1 PUSH2 0x1E80 JUMP JUMPDEST PUSH1 0x40 MLOAD DUP1 SWAP2 SUB SWAP1 REVERT JUMPDEST PUSH0 PUSH1 0x2 PUSH0 DUP4 DUP2 MSTORE PUSH1 0x20 ADD SWAP1 DUP2 MSTORE PUSH1 0x20 ADD PUSH0 KECCAK256 PUSH0 ADD PUSH0 SWAP1 SLOAD SWAP1 PUSH2 0x100 EXP SWAP1 DIV PUSH4 0xFFFFFFFF AND SWAP1 POP PUSH0 PUSH1 0x2 PUSH0 DUP5 DUP2 MSTORE PUSH1 0x20 ADD SWAP1 DUP2 MSTORE PUSH1 0x20 ADD PUSH0 KECCAK256 PUSH1 0x4 ADD PUSH0 CALLER PUSH20 0xFFFFFFFFFFFFFFFFFFFFFFFFFFFFFFFFFFFFFFFF AND PUSH20 0xFFFFFFFFFFFFFFFFFFFFFFFFFFFFFFFFFFFFFFFF AND DUP2 MSTORE PUSH1 0x20 ADD SWAP1 DUP2 MSTORE PUSH1 0x20 ADD PUSH0 KECCAK256 PUSH0 ADD PUSH0 SWAP1 SLOAD SWAP1 PUSH2 0x100 EXP SWAP1 DIV PUSH4 0xFFFFFFFF AND SWAP1 POP PUSH0 PUSH1 0x2 PUSH0 DUP6 DUP2 MSTORE PUSH1 0x20 ADD SWAP1 DUP2 MSTORE PUSH1 0x20 ADD PUSH0 KECCAK256 PUSH1 0x4 ADD PUSH0 CALLER PUSH20 0xFFFFFFFFFFFFFFFFFFFFFFFFFFFFFFFFFFFFFFFF AND PUSH20 0xFFFFFFFFFFFFFFFFFFFFFFFFFFFFFFFFFFFFFFFF AND DUP2 MSTORE PUSH1 0x20 ADD SWAP1 DUP2 MSTORE PUSH1 0x20 ADD PUSH0 KECCAK256 PUSH1 0x1 ADD SLOAD SWAP1 POP PUSH0 DUP2 PUSH2 0xFE5 DUP5 DUP7 PUSH2 0xFE0 SWAP2 SWAP1 PUSH2 0x1E9E JUMP JUMPDEST PUSH2 0x150 JUMP JUMPDEST PUSH1 0x1 PUSH2 0xFF1 SWAP2 SWAP1 PUSH2 0x1BE0 JUMP JUMPDEST PUSH4 0xFFFFFFFF AND PUSH2 0x1001 SWAP2 SWAP1 PUSH2 0x1DAE JUMP JUMPDEST SWAP1 POP DUP1 PUSH1 0x2 PUSH0 DUP8 DUP2 MSTORE PUSH1 0x20 ADD SWAP1 DUP2 MSTORE PUSH1 0x20 ADD PUSH0 KECCAK256 PUSH1 0x4 ADD PUSH0 CALLER PUSH20 0xFFFFFFFFFFFFFFFFFFFFFFFFFFFFFFFFFFFFFFFF AND PUSH20 0xFFFFFFFFFFFFFFFFFFFFFFFFFFFFFFFFFFFFFFFF AND DUP2 MSTORE PUSH1 0x20 ADD SWAP1 DUP2 MSTORE PUSH1 0x20 ADD PUSH0 KECCAK256 PUSH1 0x2 ADD DUP2 SWAP1 SSTORE POP DUP1 PUSH1 0x2 PUSH0 DUP8 DUP2 MSTORE PUSH1 0x20 ADD SWAP1 DUP2 MSTORE PUSH1 0x20 ADD PUSH0 KECCAK256 PUSH1 0x5 ADD PUSH0 DUP3 DUP3 SLOAD PUSH2 0x107D SWAP2 SWAP1 PUSH2 0x17A9 JUMP JUMPDEST SWAP3 POP POP DUP2 SWAP1 SSTORE POP POP POP POP POP POP JUMP JUMPDEST PUSH0 PUSH0 REVERT JUMPDEST PUSH0 DUP2 PUSH1 0x3 SIGNEXTEND SWAP1 POP SWAP2 SWAP1 POP JUMP JUMPDEST PUSH2 0x10A4 DUP2 PUSH2 0x108F JUMP JUMPDEST DUP2 EQ PUSH2 0x10AE JUMPI PUSH0 PUSH0 REVERT JUMPDEST POP JUMP JUMPDEST PUSH0 DUP2 CALLDATALOAD SWAP1 POP PUSH2 0x10BF DUP2 PUSH2 0x109B JUMP JUMPDEST SWAP3 SWAP2 POP POP JUMP JUMPDEST PUSH0 PUSH1 0x20 DUP3 DUP5 SUB SLT ISZERO PUSH2 0x10DA JUMPI PUSH2 0x10D9 PUSH2 0x108B JUMP JUMPDEST JUMPDEST PUSH0 PUSH2 0x10E7 DUP5 DUP3 DUP6 ADD PUSH2 0x10B1 JUMP JUMPDEST SWAP2 POP POP SWAP3 SWAP2 POP POP JUMP JUMPDEST PUSH0 PUSH4 0xFFFFFFFF DUP3 AND SWAP1 POP SWAP2 SWAP1 POP JUMP JUMPDEST PUSH2 0x1108 DUP2 PUSH2 0x10F0 JUMP JUMPDEST DUP3 MSTORE POP POP JUMP JUMPDEST PUSH0 PUSH1 0x20 DUP3 ADD SWAP1 POP PUSH2 0x1121 PUSH0 DUP4 ADD DUP5 PUSH2 0x10FF JUMP JUMPDEST SWAP3 SWAP2 POP POP JUMP JUMPDEST PUSH0 DUP2 SWAP1 POP SWAP2 SWAP1 POP JUMP JUMPDEST PUSH2 0x1139 DUP2 PUSH2 0x1127 JUMP JUMPDEST DUP2 EQ PUSH2 0x1143 JUMPI PUSH0 PUSH0 REVERT JUMPDEST POP JUMP JUMPDEST PUSH0 DUP2 CALLDATALOAD SWAP1 POP PUSH2 0x1154 DUP2 PUSH2 0x1130 JUMP JUMPDEST SWAP3 SWAP2 POP POP JUMP JUMPDEST PUSH0 PUSH0 PUSH1 0x40 DUP4 DUP6 SUB SLT ISZERO PUSH2 0x1170 JUMPI PUSH2 0x116F PUSH2 0x108B JUMP JUMPDEST JUMPDEST PUSH0 PUSH2 0x117D DUP6 DUP3 DUP7 ADD PUSH2 0x1146 JUMP JUMPDEST SWAP3 POP POP PUSH1 0x20 PUSH2 0x118E DUP6 DUP3 DUP7 ADD PUSH2 0x1146 JUMP JUMPDEST SWAP2 POP POP SWAP3 POP SWAP3 SWAP1 POP JUMP JUMPDEST PUSH2 0x11A1 DUP2 PUSH2 0x10F0 JUMP JUMPDEST DUP2 EQ PUSH2 0x11AB JUMPI PUSH0 PUSH0 REVERT JUMPDEST POP JUMP JUMPDEST PUSH0 DUP2 CALLDATALOAD SWAP1 POP PUSH2 0x11BC DUP2 PUSH2 0x1198 JUMP JUMPDEST SWAP3 SWAP2 POP POP JUMP JUMPDEST PUSH0 PUSH0 PUSH0 PUSH0 PUSH1 0x80 DUP6 DUP8 SUB SLT ISZERO PUSH2 0x11DA JUMPI PUSH2 0x11D9 PUSH2 0x108B JUMP JUMPDEST JUMPDEST PUSH0 PUSH2 0x11E7 DUP8 DUP3 DUP9 ADD PUSH2 0x1146 JUMP JUMPDEST SWAP5 POP POP PUSH1 0x20 PUSH2 0x11F8 DUP8 DUP3 DUP9 ADD PUSH2 0x1146 JUMP JUMPDEST SWAP4 POP POP PUSH1 0x40 PUSH2 0x1209 DUP8 DUP3 DUP9 ADD PUSH2 0x11AE JUMP JUMPDEST SWAP3 POP POP PUSH1 0x60 PUSH2 0x121A DUP8 DUP3 DUP9 ADD PUSH2 0x11AE JUMP JUMPDEST SWAP2 POP POP SWAP3 SWAP6 SWAP2 SWAP5 POP SWAP3 POP JUMP JUMPDEST PUSH0 PUSH0 PUSH0 PUSH0 PUSH0 PUSH1 0xA0 DUP7 DUP9 SUB SLT ISZERO PUSH2 0x123F JUMPI PUSH2 0x123E PUSH2 0x108B JUMP JUMPDEST JUMPDEST PUSH0 PUSH2 0x124C DUP9 DUP3 DUP10 ADD PUSH2 0x1146 JUMP JUMPDEST SWAP6 POP POP PUSH1 0x20 PUSH2 0x125D DUP9 DUP3 DUP10 ADD PUSH2 0x1146 JUMP JUMPDEST SWAP5 POP POP PUSH1 0x40 PUSH2 0x126E DUP9 DUP3 DUP10 ADD PUSH2 0x11AE JUMP JUMPDEST SWAP4 POP POP PUSH1 0x60 PUSH2 0x127F DUP9 DUP3 DUP10 ADD PUSH2 0x1146 JUMP JUMPDEST SWAP3 POP POP PUSH1 0x80 PUSH2 0x1290 DUP9 DUP3 DUP10 ADD PUSH2 0x1146 JUMP JUMPDEST SWAP2 POP POP SWAP3 SWAP6 POP SWAP3 SWAP6 SWAP1 SWAP4 POP JUMP JUMPDEST PUSH0 PUSH1 0x20 DUP3 DUP5 SUB SLT ISZERO PUSH2 0x12B2 JUMPI PUSH2 0x12B1 PUSH2 0x108B JUMP JUMPDEST JUMPDEST PUSH0 PUSH2 0x12BF DUP5 DUP3 DUP6 ADD PUSH2 0x1146 JUMP JUMPDEST SWAP2 POP POP SWAP3 SWAP2 POP POP JUMP JUMPDEST PUSH32 0x4E487B7100000000000000000000000000000000000000000000000000000000 PUSH0 MSTORE PUSH1 0x11 PUSH1 0x4 MSTORE PUSH1 0x24 PUSH0 REVERT JUMPDEST PUSH0 PUSH2 0x12FF DUP3 PUSH2 0x108F JUMP JUMPDEST SWAP2 POP PUSH32 0xFFFFFFFFFFFFFFFFFFFFFFFFFFFFFFFFFFFFFFFFFFFFFFFFFFFFFFFF80000000 DUP3 SUB PUSH2 0x1331 JUMPI PUSH2 0x1330 PUSH2 0x12C8 JUMP JUMPDEST JUMPDEST DUP2 PUSH0 SUB SWAP1 POP SWAP2 SWAP1 POP JUMP JUMPDEST PUSH0 DUP3 DUP3 MSTORE PUSH1 0x20 DUP3 ADD SWAP1 POP SWAP3 SWAP2 POP POP JUMP JUMPDEST PUSH32 0x42616C6C6F7420646F6573206E6F742065786973740000000000000000000000 PUSH0 DUP3 ADD MSTORE POP JUMP JUMPDEST PUSH0 PUSH2 0x137F PUSH1 0x15 DUP4 PUSH2 0x133B JUMP JUMPDEST SWAP2 POP PUSH2 0x138A DUP3 PUSH2 0x134B JUMP JUMPDEST PUSH1 0x20 DUP3 ADD SWAP1 POP SWAP2 SWAP1 POP JUMP JUMPDEST PUSH0 PUSH1 0x20 DUP3 ADD SWAP1 POP DUP2 DUP2 SUB PUSH0 DUP4 ADD MSTORE PUSH2 0x13AC DUP2 PUSH2 0x1373 JUMP JUMPDEST SWAP1 POP SWAP2 SWAP1 POP JUMP JUMPDEST PUSH32 0x436F6D6D69746D656E7420706572696F642068617320656E6465642E00000000 PUSH0 DUP3 ADD MSTORE POP JUMP JUMPDEST PUSH0 PUSH2 0x13E7 PUSH1 0x1C DUP4 PUSH2 0x133B JUMP JUMPDEST SWAP2 POP PUSH2 0x13F2 DUP3 PUSH2 0x13B3 JUMP JUMPDEST PUSH1 0x20 DUP3 ADD SWAP1 POP SWAP2 SWAP1 POP JUMP JUMPDEST PUSH0 PUSH1 0x20 DUP3 ADD SWAP1 POP DUP2 DUP2 SUB PUSH0 DUP4 ADD MSTORE PUSH2 0x1414 DUP2 PUSH2 0x13DB JUMP JUMPDEST SWAP1 POP SWAP2 SWAP1 POP JUMP JUMPDEST PUSH32 0x4F6E6C7920746865206E6F7461727920636F6E74726163742063616E20616464 PUSH0 DUP3 ADD MSTORE PUSH32 0x20612062616C6C6F742E00000000000000000000000000000000000000000000 PUSH1 0x20 DUP3 ADD MSTORE POP JUMP JUMPDEST PUSH0 PUSH2 0x1475 PUSH1 0x2A DUP4 PUSH2 0x133B JUMP JUMPDEST SWAP2 POP PUSH2 0x1480 DUP3 PUSH2 0x141B JUMP JUMPDEST PUSH1 0x40 DUP3 ADD SWAP1 POP SWAP2 SWAP1 POP JUMP JUMPDEST PUSH0 PUSH1 0x20 DUP3 ADD SWAP1 POP DUP2 DUP2 SUB PUSH0 DUP4 ADD MSTORE PUSH2 0x14A2 DUP2 PUSH2 0x1469 JUMP JUMPDEST SWAP1 POP SWAP2 SWAP1 POP JUMP JUMPDEST PUSH32 0x496E76616C696420686173682E00000000000000000000000000000000000000 PUSH0 DUP3 ADD MSTORE POP JUMP JUMPDEST PUSH0 PUSH2 0x14DD PUSH1 0xD DUP4 PUSH2 0x133B JUMP JUMPDEST SWAP2 POP PUSH2 0x14E8 DUP3 PUSH2 0x14A9 JUMP JUMPDEST PUSH1 0x20 DUP3 ADD SWAP1 POP SWAP2 SWAP1 POP JUMP JUMPDEST PUSH0 PUSH1 0x20 DUP3 ADD SWAP1 POP DUP2 DUP2 SUB PUSH0 DUP4 ADD MSTORE PUSH2 0x150A DUP2 PUSH2 0x14D1 JUMP JUMPDEST SWAP1 POP SWAP2 SWAP1 POP JUMP JUMPDEST PUSH32 0x42616C6C6F74696E672068617320616C726561647920626567756E2E00000000 PUSH0 DUP3 ADD MSTORE POP JUMP JUMPDEST PUSH0 PUSH2 0x1545 PUSH1 0x1C DUP4 PUSH2 0x133B JUMP JUMPDEST SWAP2 POP PUSH2 0x1550 DUP3 PUSH2 0x1511 JUMP JUMPDEST PUSH1 0x20 DUP3 ADD SWAP1 POP SWAP2 SWAP1 POP JUMP JUMPDEST PUSH0 PUSH1 0x20 DUP3 ADD SWAP1 POP DUP2 DUP2 SUB PUSH0 DUP4 ADD MSTORE PUSH2 0x1572 DUP2 PUSH2 0x1539 JUMP JUMPDEST SWAP1 POP SWAP2 SWAP1 POP JUMP JUMPDEST PUSH0 PUSH2 0x1583 DUP3 PUSH2 0x1127 JUMP JUMPDEST SWAP2 POP PUSH2 0x158E DUP4 PUSH2 0x1127 JUMP JUMPDEST SWAP3 POP DUP3 DUP3 SUB SWAP1 POP DUP2 DUP2 GT ISZERO PUSH2 0x15A6 JUMPI PUSH2 0x15A5 PUSH2 0x12C8 JUMP JUMPDEST JUMPDEST SWAP3 SWAP2 POP POP JUMP JUMPDEST PUSH32 0x4C656E677468206F6620636F6D6D69746D656E7420706572696F64206D757374 PUSH0 DUP3 ADD MSTORE PUSH32 0x206265206174206C65617374203130206D696E757465732E0000000000000000 PUSH1 0x20 DUP3 ADD MSTORE POP JUMP JUMPDEST PUSH0 PUSH2 0x1606 PUSH1 0x38 DUP4 PUSH2 0x133B JUMP JUMPDEST SWAP2 POP PUSH2 0x1611 DUP3 PUSH2 0x15AC JUMP JUMPDEST PUSH1 0x40 DUP3 ADD SWAP1 POP SWAP2 SWAP1 POP JUMP JUMPDEST PUSH0 PUSH1 0x20 DUP3 ADD SWAP1 POP DUP2 DUP2 SUB PUSH0 DUP4 ADD MSTORE PUSH2 0x1633 DUP2 PUSH2 0x15FA JUMP JUMPDEST SWAP1 POP SWAP2 SWAP1 POP JUMP JUMPDEST PUSH0 PUSH2 0x1644 DUP3 PUSH2 0x10F0 JUMP JUMPDEST SWAP2 POP PUSH2 0x164F DUP4 PUSH2 0x10F0 JUMP JUMPDEST SWAP3 POP DUP3 DUP3 SUB SWAP1 POP PUSH4 0xFFFFFFFF DUP2 GT ISZERO PUSH2 0x166B JUMPI PUSH2 0x166A PUSH2 0x12C8 JUMP JUMPDEST JUMPDEST SWAP3 SWAP2 POP POP JUMP JUMPDEST PUSH32 0x566F746520646F6573206E6F7420657869737400000000000000000000000000 PUSH0 DUP3 ADD MSTORE POP JUMP JUMPDEST PUSH0 PUSH2 0x16A5 PUSH1 0x13 DUP4 PUSH2 0x133B JUMP JUMPDEST SWAP2 POP PUSH2 0x16B0 DUP3 PUSH2 0x1671 JUMP JUMPDEST PUSH1 0x20 DUP3 ADD SWAP1 POP SWAP2 SWAP1 POP JUMP JUMPDEST PUSH0 PUSH1 0x20 DUP3 ADD SWAP1 POP DUP2 DUP2 SUB PUSH0 DUP4 ADD MSTORE PUSH2 0x16D2 DUP2 PUSH2 0x1699 JUMP JUMPDEST SWAP1 POP SWAP2 SWAP1 POP JUMP JUMPDEST PUSH32 0x436F6D6D69746D656E7420706572696F6420686173206E6F7420656E6465642E PUSH0 DUP3 ADD MSTORE POP JUMP JUMPDEST PUSH0 PUSH2 0x170D PUSH1 0x20 DUP4 PUSH2 0x133B JUMP JUMPDEST SWAP2 POP PUSH2 0x1718 DUP3 PUSH2 0x16D9 JUMP JUMPDEST PUSH1 0x20 DUP3 ADD SWAP1 POP SWAP2 SWAP1 POP JUMP JUMPDEST PUSH0 PUSH1 0x20 DUP3 ADD SWAP1 POP DUP2 DUP2 SUB PUSH0 DUP4 ADD MSTORE PUSH2 0x173A DUP2 PUSH2 0x1701 JUMP JUMPDEST SWAP1 POP SWAP2 SWAP1 POP JUMP JUMPDEST PUSH32 0x52657665616C20706572696F642068617320656E6465642E0000000000000000 PUSH0 DUP3 ADD MSTORE POP JUMP JUMPDEST PUSH0 PUSH2 0x1775 PUSH1 0x18 DUP4 PUSH2 0x133B JUMP JUMPDEST SWAP2 POP PUSH2 0x1780 DUP3 PUSH2 0x1741 JUMP JUMPDEST PUSH1 0x20 DUP3 ADD SWAP1 POP SWAP2 SWAP1 POP JUMP JUMPDEST PUSH0 PUSH1 0x20 DUP3 ADD SWAP1 POP DUP2 DUP2 SUB PUSH0 DUP4 ADD MSTORE PUSH2 0x17A2 DUP2 PUSH2 0x1769 JUMP JUMPDEST SWAP1 POP SWAP2 SWAP1 POP JUMP JUMPDEST PUSH0 PUSH2 0x17B3 DUP3 PUSH2 0x1127 JUMP JUMPDEST SWAP2 POP PUSH2 0x17BE DUP4 PUSH2 0x1127 JUMP JUMPDEST SWAP3 POP DUP3 DUP3 ADD SWAP1 POP DUP1 DUP3 GT ISZERO PUSH2 0x17D6 JUMPI PUSH2 0x17D5 PUSH2 0x12C8 JUMP JUMPDEST JUMPDEST SWAP3 SWAP2 POP POP JUMP JUMPDEST PUSH0 DUP2 SWAP1 POP SWAP2 SWAP1 POP JUMP JUMPDEST PUSH2 0x17F6 PUSH2 0x17F1 DUP3 PUSH2 0x1127 JUMP JUMPDEST PUSH2 0x17DC JUMP JUMPDEST DUP3 MSTORE POP POP JUMP JUMPDEST PUSH0 PUSH2 0x1807 DUP3 DUP5 PUSH2 0x17E5 JUMP JUMPDEST PUSH1 0x20 DUP3 ADD SWAP2 POP DUP2 SWAP1 POP SWAP3 SWAP2 POP POP JUMP JUMPDEST PUSH0 DUP2 MLOAD SWAP1 POP SWAP2 SWAP1 POP JUMP JUMPDEST PUSH0 DUP2 SWAP1 POP SWAP3 SWAP2 POP POP JUMP JUMPDEST DUP3 DUP2 DUP4 MCOPY PUSH0 DUP4 DUP4 ADD MSTORE POP POP POP JUMP JUMPDEST PUSH0 PUSH2 0x1842 DUP3 PUSH2 0x1816 JUMP JUMPDEST PUSH2 0x184C DUP2 DUP6 PUSH2 0x1820 JUMP JUMPDEST SWAP4 POP PUSH2 0x185C DUP2 DUP6 PUSH1 0x20 DUP7 ADD PUSH2 0x182A JUMP JUMPDEST DUP1 DUP5 ADD SWAP2 POP POP SWAP3 SWAP2 POP POP JUMP JUMPDEST PUSH0 PUSH2 0x1873 DUP3 DUP5 PUSH2 0x1838 JUMP JUMPDEST SWAP2 POP DUP2 SWAP1 POP SWAP3 SWAP2 POP POP JUMP JUMPDEST PUSH0 DUP2 SWAP1 POP SWAP2 SWAP1 POP JUMP JUMPDEST PUSH2 0x1890 DUP2 PUSH2 0x187E JUMP JUMPDEST DUP2 EQ PUSH2 0x189A JUMPI PUSH0 PUSH0 REVERT JUMPDEST POP JUMP JUMPDEST PUSH0 DUP2 MLOAD SWAP1 POP PUSH2 0x18AB DUP2 PUSH2 0x1887 JUMP JUMPDEST SWAP3 SWAP2 POP POP JUMP JUMPDEST PUSH0 PUSH1 0x20 DUP3 DUP5 SUB SLT ISZERO PUSH2 0x18C6 JUMPI PUSH2 0x18C5 PUSH2 0x108B JUMP JUMPDEST JUMPDEST PUSH0 PUSH2 0x18D3 DUP5 DUP3 DUP6 ADD PUSH2 0x189D JUMP JUMPDEST SWAP2 POP POP SWAP3 SWAP2 POP POP JUMP JUMPDEST PUSH32 0x52657665616C6564206461746120646F6573206E6F74206861736820746F2063 PUSH0 DUP3 ADD MSTORE PUSH32 0x6F6D6D69746D656E742E00000000000000000000000000000000000000000000 PUSH1 0x20 DUP3 ADD MSTORE POP JUMP JUMPDEST PUSH0 PUSH2 0x1936 PUSH1 0x2A DUP4 PUSH2 0x133B JUMP JUMPDEST SWAP2 POP PUSH2 0x1941 DUP3 PUSH2 0x18DC JUMP JUMPDEST PUSH1 0x40 DUP3 ADD SWAP1 POP SWAP2 SWAP1 POP JUMP JUMPDEST PUSH0 PUSH1 0x20 DUP3 ADD SWAP1 POP DUP2 DUP2 SUB PUSH0 DUP4 ADD MSTORE PUSH2 0x1963 DUP2 PUSH2 0x192A JUMP JUMPDEST SWAP1 POP SWAP2 SWAP1 POP JUMP JUMPDEST PUSH2 0x1973 DUP2 PUSH2 0x1127 JUMP JUMPDEST DUP3 MSTORE POP POP JUMP JUMPDEST PUSH0 PUSH1 0x20 DUP3 ADD SWAP1 POP PUSH2 0x198C PUSH0 DUP4 ADD DUP5 PUSH2 0x196A JUMP JUMPDEST SWAP3 SWAP2 POP POP JUMP JUMPDEST PUSH0 DUP2 MLOAD SWAP1 POP PUSH2 0x19A0 DUP2 PUSH2 0x1130 JUMP JUMPDEST SWAP3 SWAP2 POP POP JUMP JUMPDEST PUSH0 PUSH1 0x20 DUP3 DUP5 SUB SLT ISZERO PUSH2 0x19BB JUMPI PUSH2 0x19BA PUSH2 0x108B JUMP JUMPDEST JUMPDEST PUSH0 PUSH2 0x19C8 DUP5 DUP3 DUP6 ADD PUSH2 0x1992 JUMP JUMPDEST SWAP2 POP POP SWAP3 SWAP2 POP POP JUMP JUMPDEST PUSH32 0x536563757269747920726563656970742062616C616E636520746F6F206C6F77 PUSH0 DUP3 ADD MSTORE PUSH32 0x2E00000000000000000000000000000000000000000000000000000000000000 PUSH1 0x20 DUP3 ADD MSTORE POP JUMP JUMPDEST PUSH0 PUSH2 0x1A2B PUSH1 0x21 DUP4 PUSH2 0x133B JUMP JUMPDEST SWAP2 POP PUSH2 0x1A36 DUP3 PUSH2 0x19D1 JUMP JUMPDEST PUSH1 0x40 DUP3 ADD SWAP1 POP SWAP2 SWAP1 POP JUMP JUMPDEST PUSH0 PUSH1 0x20 DUP3 ADD SWAP1 POP DUP2 DUP2 SUB PUSH0 DUP4 ADD MSTORE PUSH2 0x1A58 DUP2 PUSH2 0x1A1F JUMP JUMPDEST SWAP1 POP SWAP2 SWAP1 POP JUMP JUMPDEST PUSH0 PUSH20 0xFFFFFFFFFFFFFFFFFFFFFFFFFFFFFFFFFFFFFFFF DUP3 AND SWAP1 POP SWAP2 SWAP1 POP JUMP JUMPDEST PUSH0 PUSH2 0x1A88 DUP3 PUSH2 0x1A5F JUMP JUMPDEST SWAP1 POP SWAP2 SWAP1 POP JUMP JUMPDEST PUSH2 0x1A98 DUP2 PUSH2 0x1A7E JUMP JUMPDEST DUP3 MSTORE POP POP JUMP JUMPDEST PUSH0 PUSH1 0x40 DUP3 ADD SWAP1 POP PUSH2 0x1AB1 PUSH0 DUP4 ADD DUP6 PUSH2 0x196A JUMP JUMPDEST PUSH2 0x1ABE PUSH1 0x20 DUP4 ADD DUP5 PUSH2 0x1A8F JUMP JUMPDEST SWAP4 SWAP3 POP POP POP JUMP JUMPDEST PUSH0 DUP2 ISZERO ISZERO SWAP1 POP SWAP2 SWAP1 POP JUMP JUMPDEST PUSH2 0x1AD9 DUP2 PUSH2 0x1AC5 JUMP JUMPDEST DUP2 EQ PUSH2 0x1AE3 JUMPI PUSH0 PUSH0 REVERT JUMPDEST POP JUMP JUMPDEST PUSH0 DUP2 MLOAD SWAP1 POP PUSH2 0x1AF4 DUP2 PUSH2 0x1AD0 JUMP JUMPDEST SWAP3 SWAP2 POP POP JUMP JUMPDEST PUSH0 PUSH1 0x20 DUP3 DUP5 SUB SLT ISZERO PUSH2 0x1B0F JUMPI PUSH2 0x1B0E PUSH2 0x108B JUMP JUMPDEST JUMPDEST PUSH0 PUSH2 0x1B1C DUP5 DUP3 DUP6 ADD PUSH2 0x1AE6 JUMP JUMPDEST SWAP2 POP POP SWAP3 SWAP2 POP POP JUMP JUMPDEST PUSH32 0x52657665616C6572206973206E6F742076616C6964207370656E646572206F66 PUSH0 DUP3 ADD MSTORE PUSH32 0x20736563757269747920726563656970742E0000000000000000000000000000 PUSH1 0x20 DUP3 ADD MSTORE POP JUMP JUMPDEST PUSH0 PUSH2 0x1B7F PUSH1 0x32 DUP4 PUSH2 0x133B JUMP JUMPDEST SWAP2 POP PUSH2 0x1B8A DUP3 PUSH2 0x1B25 JUMP JUMPDEST PUSH1 0x40 DUP3 ADD SWAP1 POP SWAP2 SWAP1 POP JUMP JUMPDEST PUSH0 PUSH1 0x20 DUP3 ADD SWAP1 POP DUP2 DUP2 SUB PUSH0 DUP4 ADD MSTORE PUSH2 0x1BAC DUP2 PUSH2 0x1B73 JUMP JUMPDEST SWAP1 POP SWAP2 SWAP1 POP JUMP JUMPDEST PUSH32 0x4E487B7100000000000000000000000000000000000000000000000000000000 PUSH0 MSTORE PUSH1 0x12 PUSH1 0x4 MSTORE PUSH1 0x24 PUSH0 REVERT JUMPDEST PUSH0 PUSH2 0x1BEA DUP3 PUSH2 0x10F0 JUMP JUMPDEST SWAP2 POP PUSH2 0x1BF5 DUP4 PUSH2 0x10F0 JUMP JUMPDEST SWAP3 POP DUP3 PUSH2 0x1C05 JUMPI PUSH2 0x1C04 PUSH2 0x1BB3 JUMP JUMPDEST JUMPDEST DUP3 DUP3 DIV SWAP1 POP SWAP3 SWAP2 POP POP JUMP JUMPDEST PUSH0 PUSH2 0x1C1A DUP3 PUSH2 0x10F0 JUMP JUMPDEST SWAP2 POP PUSH4 0xFFFFFFFF DUP3 SUB PUSH2 0x1C30 JUMPI PUSH2 0x1C2F PUSH2 0x12C8 JUMP JUMPDEST JUMPDEST PUSH1 0x1 DUP3 ADD SWAP1 POP SWAP2 SWAP1 POP JUMP JUMPDEST PUSH0 PUSH2 0x1C45 DUP3 PUSH2 0x10F0 JUMP JUMPDEST SWAP2 POP PUSH2 0x1C50 DUP4 PUSH2 0x10F0 JUMP JUMPDEST SWAP3 POP DUP3 DUP3 MUL PUSH2 0x1C5E DUP2 PUSH2 0x10F0 JUMP JUMPDEST SWAP2 POP DUP1 DUP3 EQ PUSH2 0x1C70 JUMPI PUSH2 0x1C6F PUSH2 0x12C8 JUMP JUMPDEST JUMPDEST POP SWAP3 SWAP2 POP POP JUMP JUMPDEST PUSH0 PUSH2 0x1C81 DUP3 PUSH2 0x10F0 JUMP JUMPDEST SWAP2 POP PUSH2 0x1C8C DUP4 PUSH2 0x10F0 JUMP JUMPDEST SWAP3 POP DUP3 DUP3 ADD SWAP1 POP PUSH4 0xFFFFFFFF DUP2 GT ISZERO PUSH2 0x1CA8 JUMPI PUSH2 0x1CA7 PUSH2 0x12C8 JUMP JUMPDEST JUMPDEST SWAP3 SWAP2 POP POP JUMP JUMPDEST PUSH32 0x53656E646572277320766F746520646F6573206E6F7420657869737400000000 PUSH0 DUP3 ADD MSTORE POP JUMP JUMPDEST PUSH0 PUSH2 0x1CE2 PUSH1 0x1C DUP4 PUSH2 0x133B JUMP JUMPDEST SWAP2 POP PUSH2 0x1CED DUP3 PUSH2 0x1CAE JUMP JUMPDEST PUSH1 0x20 DUP3 ADD SWAP1 POP SWAP2 SWAP1 POP JUMP JUMPDEST PUSH0 PUSH1 0x20 DUP3 ADD SWAP1 POP DUP2 DUP2 SUB PUSH0 DUP4 ADD MSTORE PUSH2 0x1D0F DUP2 PUSH2 0x1CD6 JUMP JUMPDEST SWAP1 POP SWAP2 SWAP1 POP JUMP JUMPDEST PUSH32 0x53656375726520706572696F6420686173206E6F7420656E6465642E00000000 PUSH0 DUP3 ADD MSTORE POP JUMP JUMPDEST PUSH0 PUSH2 0x1D4A PUSH1 0x1C DUP4 PUSH2 0x133B JUMP JUMPDEST SWAP2 POP PUSH2 0x1D55 DUP3 PUSH2 0x1D16 JUMP JUMPDEST PUSH1 0x20 DUP3 ADD SWAP1 POP SWAP2 SWAP1 POP JUMP JUMPDEST PUSH0 PUSH1 0x20 DUP3 ADD SWAP1 POP DUP2 DUP2 SUB PUSH0 DUP4 ADD MSTORE PUSH2 0x1D77 DUP2 PUSH2 0x1D3E JUMP JUMPDEST SWAP1 POP SWAP2 SWAP1 POP JUMP JUMPDEST PUSH0 PUSH2 0x1D88 DUP3 PUSH2 0x1127 JUMP JUMPDEST SWAP2 POP PUSH2 0x1D93 DUP4 PUSH2 0x1127 JUMP JUMPDEST SWAP3 POP DUP3 PUSH2 0x1DA3 JUMPI PUSH2 0x1DA2 PUSH2 0x1BB3 JUMP JUMPDEST JUMPDEST DUP3 DUP3 DIV SWAP1 POP SWAP3 SWAP2 POP POP JUMP JUMPDEST PUSH0 PUSH2 0x1DB8 DUP3 PUSH2 0x1127 JUMP JUMPDEST SWAP2 POP PUSH2 0x1DC3 DUP4 PUSH2 0x1127 JUMP JUMPDEST SWAP3 POP DUP3 DUP3 MUL PUSH2 0x1DD1 DUP2 PUSH2 0x1127 JUMP JUMPDEST SWAP2 POP DUP3 DUP3 DIV DUP5 EQ DUP4 ISZERO OR PUSH2 0x1DE8 JUMPI PUSH2 0x1DE7 PUSH2 0x12C8 JUMP JUMPDEST JUMPDEST POP SWAP3 SWAP2 POP POP JUMP JUMPDEST PUSH0 PUSH2 0x1DF9 DUP3 PUSH2 0x1A5F JUMP JUMPDEST SWAP1 POP SWAP2 SWAP1 POP JUMP JUMPDEST PUSH2 0x1E09 DUP2 PUSH2 0x1DEF JUMP JUMPDEST DUP3 MSTORE POP POP JUMP JUMPDEST PUSH0 PUSH1 0x40 DUP3 ADD SWAP1 POP PUSH2 0x1E22 PUSH0 DUP4 ADD DUP6 PUSH2 0x196A JUMP JUMPDEST PUSH2 0x1E2F PUSH1 0x20 DUP4 ADD DUP5 PUSH2 0x1E00 JUMP JUMPDEST SWAP4 SWAP3 POP POP POP JUMP JUMPDEST PUSH32 0x52657665616C20706572696F6420686173206E6F7420656E6465642E00000000 PUSH0 DUP3 ADD MSTORE POP JUMP JUMPDEST PUSH0 PUSH2 0x1E6A PUSH1 0x1C DUP4 PUSH2 0x133B JUMP JUMPDEST SWAP2 POP PUSH2 0x1E75 DUP3 PUSH2 0x1E36 JUMP JUMPDEST PUSH1 0x20 DUP3 ADD SWAP1 POP SWAP2 SWAP1 POP JUMP JUMPDEST PUSH0 PUSH1 0x20 DUP3 ADD SWAP1 POP DUP2 DUP2 SUB PUSH0 DUP4 ADD MSTORE PUSH2 0x1E97 DUP2 PUSH2 0x1E5E JUMP JUMPDEST SWAP1 POP SWAP2 SWAP1 POP JUMP JUMPDEST PUSH0 PUSH2 0x1EA8 DUP3 PUSH2 0x108F JUMP JUMPDEST SWAP2 POP PUSH2 0x1EB3 DUP4 PUSH2 0x108F JUMP JUMPDEST SWAP3 POP DUP3 DUP3 SUB SWAP1 POP PUSH4 0x7FFFFFFF DUP2 SGT PUSH32 0xFFFFFFFFFFFFFFFFFFFFFFFFFFFFFFFFFFFFFFFFFFFFFFFFFFFFFFFF80000000 DUP3 SLT OR ISZERO PUSH2 0x1EF3 JUMPI PUSH2 0x1EF2 PUSH2 0x12C8 JUMP JUMPDEST JUMPDEST SWAP3 SWAP2 POP POP JUMP INVALID LOG2 PUSH5 0x6970667358 0x22 SLT KECCAK256 CALLVALUE 0x4C DUP3 PUSH9 0xD552BB7F550682F1E3 0xEF 0xBF 0xB1 0x4D SMOD 0x26 PUSH0 0xD3 SWAP11 0xF ISZERO SELFBALANCE BLOCKHASH LOG2 DUP7 SUB 0xA7 SWAP11 PUSH10 0x64736F6C634300081E00 CALLER PUSH1 0x80 PUSH1 0x40 MSTORE CALLVALUE DUP1 ISZERO PUSH2 0xF JUMPI PUSH0 PUSH0 REVERT JUMPDEST POP PUSH1 0x40 MLOAD PUSH2 0x70D CODESIZE SUB DUP1 PUSH2 0x70D DUP4 CODECOPY DUP2 DUP2 ADD PUSH1 0x40 MSTORE DUP2 ADD SWAP1 PUSH2 0x31 SWAP2 SWAP1 PUSH2 0xD4 JUMP JUMPDEST DUP1 PUSH0 PUSH0 PUSH2 0x100 EXP DUP2 SLOAD DUP2 PUSH20 0xFFFFFFFFFFFFFFFFFFFFFFFFFFFFFFFFFFFFFFFF MUL NOT AND SWAP1 DUP4 PUSH20 0xFFFFFFFFFFFFFFFFFFFFFFFFFFFFFFFFFFFFFFFF AND MUL OR SWAP1 SSTORE POP POP PUSH2 0xFF JUMP JUMPDEST PUSH0 PUSH0 REVERT JUMPDEST PUSH0 PUSH20 0xFFFFFFFFFFFFFFFFFFFFFFFFFFFFFFFFFFFFFFFF DUP3 AND SWAP1 POP SWAP2 SWAP1 POP JUMP JUMPDEST PUSH0 PUSH2 0xA3 DUP3 PUSH2 0x7A JUMP JUMPDEST SWAP1 POP SWAP2 SWAP1 POP JUMP JUMPDEST PUSH2 0xB3 DUP2 PUSH2 0x99 JUMP JUMPDEST DUP2 EQ PUSH2 0xBD JUMPI PUSH0 PUSH0 REVERT JUMPDEST POP JUMP JUMPDEST PUSH0 DUP2 MLOAD SWAP1 POP PUSH2 0xCE DUP2 PUSH2 0xAA JUMP JUMPDEST SWAP3 SWAP2 POP POP JUMP JUMPDEST PUSH0 PUSH1 0x20 DUP3 DUP5 SUB SLT ISZERO PUSH2 0xE9 JUMPI PUSH2 0xE8 PUSH2 0x76 JUMP JUMPDEST JUMPDEST PUSH0 PUSH2 0xF6 DUP5 DUP3 DUP6 ADD PUSH2 0xC0 JUMP JUMPDEST SWAP2 POP POP SWAP3 SWAP2 POP POP JUMP JUMPDEST PUSH2 0x601 DUP1 PUSH2 0x10C PUSH0 CODECOPY PUSH0 RETURN INVALID PUSH1 0x80 PUSH1 0x40 MSTORE PUSH1 0x4 CALLDATASIZE LT PUSH2 0x3D JUMPI PUSH0 CALLDATALOAD PUSH1 0xE0 SHR DUP1 PUSH3 0xF714CE EQ PUSH2 0x41 JUMPI DUP1 PUSH4 0x5B407A28 EQ PUSH2 0x69 JUMPI DUP1 PUSH4 0xAB6539A7 EQ PUSH2 0xA5 JUMPI DUP1 PUSH4 0xB6B55F25 EQ PUSH2 0xE1 JUMPI JUMPDEST PUSH0 PUSH0 REVERT JUMPDEST CALLVALUE DUP1 ISZERO PUSH2 0x4C JUMPI PUSH0 PUSH0 REVERT JUMPDEST POP PUSH2 0x67 PUSH1 0x4 DUP1 CALLDATASIZE SUB DUP2 ADD SWAP1 PUSH2 0x62 SWAP2 SWAP1 PUSH2 0x390 JUMP JUMPDEST PUSH2 0xFD JUMP JUMPDEST STOP JUMPDEST CALLVALUE DUP1 ISZERO PUSH2 0x74 JUMPI PUSH0 PUSH0 REVERT JUMPDEST POP PUSH2 0x8F PUSH1 0x4 DUP1 CALLDATASIZE SUB DUP2 ADD SWAP1 PUSH2 0x8A SWAP2 SWAP1 PUSH2 0x3CE JUMP JUMPDEST PUSH2 0x1D3 JUMP JUMPDEST PUSH1 0x40 MLOAD PUSH2 0x9C SWAP2 SWAP1 PUSH2 0x408 JUMP JUMPDEST PUSH1 0x40 MLOAD DUP1 SWAP2 SUB SWAP1 RETURN JUMPDEST CALLVALUE DUP1 ISZERO PUSH2 0xB0 JUMPI PUSH0 PUSH0 REVERT JUMPDEST POP PUSH2 0xCB PUSH1 0x4 DUP1 CALLDATASIZE SUB DUP2 ADD SWAP1 PUSH2 0xC6 SWAP2 SWAP1 PUSH2 0x45C JUMP JUMPDEST PUSH2 0x1ED JUMP JUMPDEST PUSH1 0x40 MLOAD PUSH2 0xD8 SWAP2 SWAP1 PUSH2 0x4B4 JUMP JUMPDEST PUSH1 0x40 MLOAD DUP1 SWAP2 SUB SWAP1 RETURN JUMPDEST PUSH2 0xFB PUSH1 0x4 DUP1 CALLDATASIZE SUB DUP2 ADD SWAP1 PUSH2 0xF6 SWAP2 SWAP1 PUSH2 0x3CE JUMP JUMPDEST PUSH2 0x255 JUMP JUMPDEST STOP JUMPDEST PUSH0 PUSH0 SWAP1 SLOAD SWAP1 PUSH2 0x100 EXP SWAP1 DIV PUSH20 0xFFFFFFFFFFFFFFFFFFFFFFFFFFFFFFFFFFFFFFFF AND PUSH20 0xFFFFFFFFFFFFFFFFFFFFFFFFFFFFFFFFFFFFFFFF AND CALLER PUSH20 0xFFFFFFFFFFFFFFFFFFFFFFFFFFFFFFFFFFFFFFFF AND EQ PUSH2 0x18B JUMPI PUSH1 0x40 MLOAD PUSH32 0x8C379A000000000000000000000000000000000000000000000000000000000 DUP2 MSTORE PUSH1 0x4 ADD PUSH2 0x182 SWAP1 PUSH2 0x54D JUMP JUMPDEST PUSH1 0x40 MLOAD DUP1 SWAP2 SUB SWAP1 REVERT JUMPDEST DUP1 PUSH20 0xFFFFFFFFFFFFFFFFFFFFFFFFFFFFFFFFFFFFFFFF AND PUSH2 0x8FC DUP4 SWAP1 DUP2 ISZERO MUL SWAP1 PUSH1 0x40 MLOAD PUSH0 PUSH1 0x40 MLOAD DUP1 DUP4 SUB DUP2 DUP6 DUP9 DUP9 CALL SWAP4 POP POP POP POP ISZERO DUP1 ISZERO PUSH2 0x1CE JUMPI RETURNDATASIZE PUSH0 PUSH0 RETURNDATACOPY RETURNDATASIZE PUSH0 REVERT JUMPDEST POP POP POP JUMP JUMPDEST PUSH0 PUSH1 0x2 PUSH0 DUP4 DUP2 MSTORE PUSH1 0x20 ADD SWAP1 DUP2 MSTORE PUSH1 0x20 ADD PUSH0 KECCAK256 SLOAD SWAP1 POP SWAP2 SWAP1 POP JUMP JUMPDEST PUSH0 DUP2 PUSH20 0xFFFFFFFFFFFFFFFFFFFFFFFFFFFFFFFFFFFFFFFF AND PUSH1 0x3 PUSH0 DUP6 DUP2 MSTORE PUSH1 0x20 ADD SWAP1 DUP2 MSTORE PUSH1 0x20 ADD PUSH0 KECCAK256 PUSH0 SWAP1 SLOAD SWAP1 PUSH2 0x100 EXP SWAP1 DIV PUSH20 0xFFFFFFFFFFFFFFFFFFFFFFFFFFFFFFFFFFFFFFFF AND PUSH20 0xFFFFFFFFFFFFFFFFFFFFFFFFFFFFFFFFFFFFFFFF AND EQ SWAP1 POP SWAP3 SWAP2 POP POP JUMP JUMPDEST CALLVALUE PUSH1 0x1 PUSH0 DUP3 DUP3 SLOAD PUSH2 0x266 SWAP2 SWAP1 PUSH2 0x598 JUMP JUMPDEST SWAP3 POP POP DUP2 SWAP1 SSTORE POP PUSH0 PUSH1 0x2 PUSH0 DUP4 DUP2 MSTORE PUSH1 0x20 ADD SWAP1 DUP2 MSTORE PUSH1 0x20 ADD PUSH0 KECCAK256 SLOAD SUB PUSH2 0x2D5 JUMPI CALLER PUSH1 0x3 PUSH0 DUP4 DUP2 MSTORE PUSH1 0x20 ADD SWAP1 DUP2 MSTORE PUSH1 0x20 ADD PUSH0 KECCAK256 PUSH0 PUSH2 0x100 EXP DUP2 SLOAD DUP2 PUSH20 0xFFFFFFFFFFFFFFFFFFFFFFFFFFFFFFFFFFFFFFFF MUL NOT AND SWAP1 DUP4 PUSH20 0xFFFFFFFFFFFFFFFFFFFFFFFFFFFFFFFFFFFFFFFF AND MUL OR SWAP1 SSTORE POP JUMPDEST CALLVALUE PUSH1 0x2 PUSH0 DUP4 DUP2 MSTORE PUSH1 0x20 ADD SWAP1 DUP2 MSTORE PUSH1 0x20 ADD PUSH0 KECCAK256 PUSH0 DUP3 DUP3 SLOAD PUSH2 0x2F5 SWAP2 SWAP1 PUSH2 0x598 JUMP JUMPDEST SWAP3 POP POP DUP2 SWAP1 SSTORE POP POP JUMP JUMPDEST PUSH0 PUSH0 REVERT JUMPDEST PUSH0 DUP2 SWAP1 POP SWAP2 SWAP1 POP JUMP JUMPDEST PUSH2 0x315 DUP2 PUSH2 0x303 JUMP JUMPDEST DUP2 EQ PUSH2 0x31F JUMPI PUSH0 PUSH0 REVERT JUMPDEST POP JUMP JUMPDEST PUSH0 DUP2 CALLDATALOAD SWAP1 POP PUSH2 0x330 DUP2 PUSH2 0x30C JUMP JUMPDEST SWAP3 SWAP2 POP POP JUMP JUMPDEST PUSH0 PUSH20 0xFFFFFFFFFFFFFFFFFFFFFFFFFFFFFFFFFFFFFFFF DUP3 AND SWAP1 POP SWAP2 SWAP1 POP JUMP JUMPDEST PUSH0 PUSH2 0x35F DUP3 PUSH2 0x336 JUMP JUMPDEST SWAP1 POP SWAP2 SWAP1 POP JUMP JUMPDEST PUSH2 0x36F DUP2 PUSH2 0x355 JUMP JUMPDEST DUP2 EQ PUSH2 0x379 JUMPI PUSH0 PUSH0 REVERT JUMPDEST POP JUMP JUMPDEST PUSH0 DUP2 CALLDATALOAD SWAP1 POP PUSH2 0x38A DUP2 PUSH2 0x366 JUMP JUMPDEST SWAP3 SWAP2 POP POP JUMP JUMPDEST PUSH0 PUSH0 PUSH1 0x40 DUP4 DUP6 SUB SLT ISZERO PUSH2 0x3A6 JUMPI PUSH2 0x3A5 PUSH2 0x2FF JUMP JUMPDEST JUMPDEST PUSH0 PUSH2 0x3B3 DUP6 DUP3 DUP7 ADD PUSH2 0x322 JUMP JUMPDEST SWAP3 POP POP PUSH1 0x20 PUSH2 0x3C4 DUP6 DUP3 DUP7 ADD PUSH2 0x37C JUMP JUMPDEST SWAP2 POP POP SWAP3 POP SWAP3 SWAP1 POP JUMP JUMPDEST PUSH0 PUSH1 0x20 DUP3 DUP5 SUB SLT ISZERO PUSH2 0x3E3 JUMPI PUSH2 0x3E2 PUSH2 0x2FF JUMP JUMPDEST JUMPDEST PUSH0 PUSH2 0x3F0 DUP5 DUP3 DUP6 ADD PUSH2 0x322 JUMP JUMPDEST SWAP2 POP POP SWAP3 SWAP2 POP POP JUMP JUMPDEST PUSH2 0x402 DUP2 PUSH2 0x303 JUMP JUMPDEST DUP3 MSTORE POP POP JUMP JUMPDEST PUSH0 PUSH1 0x20 DUP3 ADD SWAP1 POP PUSH2 0x41B PUSH0 DUP4 ADD DUP5 PUSH2 0x3F9 JUMP JUMPDEST SWAP3 SWAP2 POP POP JUMP JUMPDEST PUSH0 PUSH2 0x42B DUP3 PUSH2 0x336 JUMP JUMPDEST SWAP1 POP SWAP2 SWAP1 POP JUMP JUMPDEST PUSH2 0x43B DUP2 PUSH2 0x421 JUMP JUMPDEST DUP2 EQ PUSH2 0x445 JUMPI PUSH0 PUSH0 REVERT JUMPDEST POP JUMP JUMPDEST PUSH0 DUP2 CALLDATALOAD SWAP1 POP PUSH2 0x456 DUP2 PUSH2 0x432 JUMP JUMPDEST SWAP3 SWAP2 POP POP JUMP JUMPDEST PUSH0 PUSH0 PUSH1 0x40 DUP4 DUP6 SUB SLT ISZERO PUSH2 0x472 JUMPI PUSH2 0x471 PUSH2 0x2FF JUMP JUMPDEST JUMPDEST PUSH0 PUSH2 0x47F DUP6 DUP3 DUP7 ADD PUSH2 0x322 JUMP JUMPDEST SWAP3 POP POP PUSH1 0x20 PUSH2 0x490 DUP6 DUP3 DUP7 ADD PUSH2 0x448 JUMP JUMPDEST SWAP2 POP POP SWAP3 POP SWAP3 SWAP1 POP JUMP JUMPDEST PUSH0 DUP2 ISZERO ISZERO SWAP1 POP SWAP2 SWAP1 POP JUMP JUMPDEST PUSH2 0x4AE DUP2 PUSH2 0x49A JUMP JUMPDEST DUP3 MSTORE POP POP JUMP JUMPDEST PUSH0 PUSH1 0x20 DUP3 ADD SWAP1 POP PUSH2 0x4C7 PUSH0 DUP4 ADD DUP5 PUSH2 0x4A5 JUMP JUMPDEST SWAP3 SWAP2 POP POP JUMP JUMPDEST PUSH0 DUP3 DUP3 MSTORE PUSH1 0x20 DUP3 ADD SWAP1 POP SWAP3 SWAP2 POP POP JUMP JUMPDEST PUSH32 0x4D6573736167652073656E646572206D757374206265206F7261636C6520636F PUSH0 DUP3 ADD MSTORE PUSH32 0x6E74726163742E00000000000000000000000000000000000000000000000000 PUSH1 0x20 DUP3 ADD MSTORE POP JUMP JUMPDEST PUSH0 PUSH2 0x537 PUSH1 0x27 DUP4 PUSH2 0x4CD JUMP JUMPDEST SWAP2 POP PUSH2 0x542 DUP3 PUSH2 0x4DD JUMP JUMPDEST PUSH1 0x40 DUP3 ADD SWAP1 POP SWAP2 SWAP1 POP JUMP JUMPDEST PUSH0 PUSH1 0x20 DUP3 ADD SWAP1 POP DUP2 DUP2 SUB PUSH0 DUP4 ADD MSTORE PUSH2 0x564 DUP2 PUSH2 0x52B JUMP JUMPDEST SWAP1 POP SWAP2 SWAP1 POP JUMP JUMPDEST PUSH32 0x4E487B7100000000000000000000000000000000000000000000000000000000 PUSH0 MSTORE PUSH1 0x11 PUSH1 0x4 MSTORE PUSH1 0x24 PUSH0 REVERT JUMPDEST PUSH0 PUSH2 0x5A2 DUP3 PUSH2 0x303 JUMP JUMPDEST SWAP2 POP PUSH2 0x5AD DUP4 PUSH2 0x303 JUMP JUMPDEST SWAP3 POP DUP3 DUP3 ADD SWAP1 POP DUP1 DUP3 GT ISZERO PUSH2 0x5C5 JUMPI PUSH2 0x5C4 PUSH2 0x56B JUMP JUMPDEST JUMPDEST SWAP3 SWAP2 POP POP JUMP INVALID LOG2 PUSH5 0x6970667358 0x22 SLT KECCAK256 EXTSTATICCALL 0xD6 0xA6 SWAPN 0x12 JUMPDEST 0xAE ORIGIN PUSH32 0xDD54DD8E2EA45A8BC701EFA52935BD1C61F2284ED55C7764736F6C634300081E STOP CALLER "
		},
		"gasEstimates": {
			"creation": {
				"codeDepositCost": "410000",
				"executionCost": "infinite",
				"totalCost": "infinite"
			},
			"external": {
				"retrieve_image(uint256)": "infinite",
				"store_image(uint256,uint256,uint32,uint32,uint32)": "infinite"
			}
		},
		"methodIdentifiers": {
			"retrieve_image(uint256)": "60d37bbf",
			"store_image(uint256,uint256,uint32,uint32,uint32)": "fc5e796b"
		}
	},
	"abi": [
		{
			"inputs": [],
			"stateMutability": "nonpayable",
			"type": "constructor"
		},
		{
			"anonymous": false,
			"inputs": [
				{
					"indexed": false,
					"internalType": "uint256",
					"name": "hash",
					"type": "uint256"
				},
				{
					"indexed": false,
					"internalType": "uint256",
					"name": "cid",
					"type": "uint256"
				},
				{
					"indexed": false,
					"internalType": "uint32",
					"name": "genesisFunding",
					"type": "uint32"
				}
			],
			"name": "ImageStored",
			"type": "event"
		},
		{
			"inputs": [
				{
					"internalType": "uint256",
					"name": "_jpegHash",
					"type": "uint256"
				}
			],
			"name": "retrieve_image",
			"outputs": [
				{
					"internalType": "uint256",
					"name": "",
					"type": "uint256"
				}
			],
			"stateMutability": "view",
			"type": "function"
		},
		{
			"inputs": [
				{
					"internalType": "uint256",
					"name": "_jpegHash",
					"type": "uint256"
				},
				{
					"internalType": "uint256",
					"name": "_cid",
					"type": "uint256"
				},
				{
					"internalType": "uint32",
					"name": "_genesisFunding",
					"type": "uint32"
				},
				{
					"internalType": "uint32",
					"name": "_commitEnd",
					"type": "uint32"
				},
				{
					"internalType": "uint32",
					"name": "_revealEnd",
					"type": "uint32"
				}
			],
			"name": "store_image",
			"outputs": [],
			"stateMutability": "payable",
			"type": "function"
		}
	]
}